:020000040000fa
:080000000002040000000000f2
:020000040000fa
:0400080012030000df
:020000040000fa
:04000c005403000099
:020000040000fa
:04001000b403000035
:020000040000fa
:0400140032030000b3
:020000040000fa
:04001800740300006d
:020000040000fa
:04001c009403000049
:020000040000fa
:04002000d403000005
:020000040000fa
:04002400a204000032
:020000040000fa
:04002800a20400002e
:020000040000fa
:04002c00a20400002a
:020000040000fa
:04003000a204000026
:020000040000fa
:0400340000040000c4
:020000040000fa
:04003800a20400001e
:020000040000fa
:04003c00a20400001a
:020000040000fa
:04004000a204000016
:020000040000fa
:04004400360400007e
:020000040000fa
:040048006c04000044
:020000040000fa
:04004c00a20400000a
:020000040000fa
:04005000a204000006
:020000040000fa
:04005400a204000002
:020000040000fa
:04005800a2040000fe
:020000040000fa
:04005c00a2040000fa
:020000040000fa
:04006000a2040000f6
:020000040000fa
:04006400a2040000f2
:020000040000fa
:04006800a2040000ee
:020000040000fa
:04006c00a2040000ea
:020000040000fa
:04007000a2040000e6
:020000040000fa
:04007400a2040000e2
:020000040000fa
:04007800a2040000de
:020000040000fa
:04007c00a2040000da
:020000040000fa
:04008000a2040000d6
:020000040000fa
:04008400a2040000d2
:020000040000fa
:04008800a2040000ce
:020000040000fa
:04008c00a2040000ca
:020000040000fa
:04009000a2040000c6
:020000040000fa
:04009400a2040000c2
:020000040000fa
:04009800a2040000be
:020000040000fa
:04009c00a2040000ba
:020000040000fa
:0400a000a2040000b6
:020000040000fa
:0400a400a2040000b2
:020000040000fa
:0400a800a2040000ae
:020000040000fa
:0400ac00a2040000aa
:020000040000fa
:0400b000a2040000a6
:020000040000fa
:0400b400a2040000a2
:020000040000fa
:0400b800a20400009e
:020000040000fa
:0400bc00a20400009a
:020000040000fa
:0400c000a204000096
:020000040000fa
:0400c400a204000092
:020000040000fa
:0400c800a20400008e
:020000040000fa
:0400cc00a20400008a
:020000040000fa
:0400d000a204000086
:020000040000fa
:0400d400a204000082
:020000040000fa
:0400d800a20400007e
:020000040000fa
:0400dc00a20400007a
:020000040000fa
:0400e000a204000076
:020000040000fa
:0400e400a204000072
:020000040000fa
:0400e800a20400006e
:020000040000fa
:0400ec00a20400006a
:020000040000fa
:0400f000a204000066
:020000040000fa
:0400f400a204000062
:020000040000fa
:0400f800a20400005e
:020000040000fa
:0400fc00a20400005a
:020000040000fa
:04010000a204000055
:020000040000fa
:04010400a204000051
:020000040000fa
:04010800a20400004d
:020000040000fa
:04010c00a204000049
:020000040000fa
:04011000a204000045
:020000040000fa
:04011400a204000041
:020000040000fa
:04011800a20400003d
:020000040000fa
:04011c00a204000039
:020000040000fa
:04012000a204000035
:020000040000fa
:04012400a204000031
:020000040000fa
:04012800a20400002d
:020000040000fa
:04012c00a204000029
:020000040000fa
:04013000a204000025
:020000040000fa
:04013400a204000021
:020000040000fa
:04013800a20400001d
:020000040000fa
:04013c00a204000019
:020000040000fa
:04014000a204000015
:020000040000fa
:04014400a204000011
:020000040000fa
:04014800a20400000d
:020000040000fa
:04014c00a204000009
:020000040000fa
:04015000a204000005
:020000040000fa
:04015400a204000001
:020000040000fa
:04015800a2040000fd
:020000040000fa
:04015c00a2040000f9
:020000040000fa
:04016000a2040000f5
:020000040000fa
:04016400a2040000f1
:020000040000fa
:04016800a2040000ed
:020000040000fa
:04016c00a2040000e9
:020000040000fa
:04017000a2040000e5
:020000040000fa
:04017400a2040000e1
:020000040000fa
:04017800a2040000dd
:020000040000fa
:04017c00a2040000d9
:020000040000fa
:04018000a2040000d5
:020000040000fa
:04018400a2040000d1
:020000040000fa
:04018800a2040000cd
:020000040000fa
:04018c00a2040000c9
:020000040000fa
:04019000a2040000c5
:020000040000fa
:04019400a2040000c1
:020000040000fa
:04019800a2040000bd
:020000040000fa
:04019c00a2040000b9
:020000040000fa
:0401a000a2040000b5
:020000040000fa
:0401a400a2040000b1
:020000040000fa
:0401a800a2040000ad
:020000040000fa
:0401ac00a2040000a9
:020000040000fa
:0401b000a2040000a5
:020000040000fa
:0401b400a2040000a1
:020000040000fa
:0401b800a20400009d
:020000040000fa
:0401bc00a204000099
:020000040000fa
:0401c000a204000095
:020000040000fa
:0401c400a204000091
:020000040000fa
:0401c800a20400008d
:020000040000fa
:0401cc00a204000089
:020000040000fa
:0401d000a204000085
:020000040000fa
:0401d400a204000081
:020000040000fa
:0401d800a20400007d
:020000040000fa
:0401dc00a204000079
:020000040000fa
:0401e000a204000075
:020000040000fa
:0401e400a204000071
:020000040000fa
:0401e800a20400006d
:020000040000fa
:0401ec00a204000069
:020000040000fa
:0401f000a204000065
:020000040000fa
:0401f400a204000061
:020000040000fa
:0401f800a20400005d
:020000040000fa
:0401fc00a204000059
:020000040000fa
:04020000a204000054
:020000040000fa
:04020400a204000050
:020000040000fa
:04020800a20400004c
:020000040000fa
:04020c00a204000048
:020000040000fa
:04021000a204000044
:020000040000fa
:04021400a204000040
:020000040000fa
:04021800a20400003c
:020000040000fa
:04021c00a204000038
:020000040000fa
:04022000a204000034
:020000040000fa
:04022400a204000030
:020000040000fa
:04022800a20400002c
:020000040000fa
:04022c00a204000028
:020000040000fa
:04023000a204000024
:020000040000fa
:04023400a204000020
:020000040000fa
:04023800a20400001c
:020000040000fa
:04023c00a204000018
:020000040000fa
:04024000a204000014
:020000040000fa
:04024400a204000010
:020000040000fa
:04024800a20400000c
:020000040000fa
:04024c00a204000008
:020000040000fa
:04025000a204000004
:020000040000fa
:04025400a204000000
:020000040000fa
:04025800a2040000fc
:020000040000fa
:04025c00a2040000f8
:020000040000fa
:04026000a2040000f4
:020000040000fa
:04026400a2040000f0
:020000040000fa
:04026800a2040000ec
:020000040000fa
:04026c00a2040000e8
:020000040000fa
:04027000a2040000e4
:020000040000fa
:04027400a2040000e0
:020000040000fa
:04027800a2040000dc
:020000040000fa
:04027c00a2040000d8
:020000040000fa
:04028000a2040000d4
:020000040000fa
:10040000af1521000eff24000e018800000000003f
:10041000000020000000e000020032000001200087
:100420002002880014000700480107000000e000d7
:1004300003003a00e02b23000100200002003700f7
:100440000000200001002000810f70000100320038
:100450000f000700000020000000e0000200320052
:100460000000020000000000ea1702000000000087
:100470000040da000000fe00402020000000e00004
:1004800002003200002020009001880000000600d9
:10049000a1028800800478000000eb001f003700f4
:1004a000e284440054a0b4009905ba00e2844400f8
:1004b00054a0b4009906ba00e284440054a0b400e9
:1004c0000006eb00476fde00fd07b200ae018800ba
:1004d000636ce10003003a000ad801000000eb0061
:1004e0000e003700606ce10008003a00004deb00a0
:1004f0000a05e800020039003420ec000af0a000f0
:100500008b05e900f9ff3e00040037006168e10057
:10051000010032000086eb000b00070019c7ba008b
:100520000e04e0001905ba0003003a000a00e000da
:10053000dbff3a0000000600fe07b200ae028800b2
:100540008a047800f5ff37000cd0a300e20f4d00bd
:100550001c00390089027800354dba000a05e80010
:10056000020039003420ec000af0a0008b05e900fd
:100570000f003200254dba000a05e80002003900dc
:100580003420ec000af0a0008b05e90008003200de
:100590000c00e0000600320015cdba000a05e800a4
:1005a000020039003420ec000af0a0008b05e900bd
:1005b0008984e80054a0b4000b00e000e2ff3a0098
:1005c000000006009902ba00055d78008b05e9007d
:1005d000f7ff3200c82ade00055d78008b05e900d0
:1005e000f3ff32000c00e000f1ff320019ddba0029
:1005f000eeff3700ee30040000000000a6310400da
:10060000000000005c330400000000005e320400c3
:100610000000000080080400000000000e34040008
:10062000000000003600f800809fbe00829fbe00e0
:10063000849fbe00869fbe000000fa00c028a9006b
:100640000000eb00961807000080fa004f03be0080
:100650004f02be004f01be004f00be003600f90041
:10066000004006003600f800809fbe00829fbe005a
:10067000849fbe00869fbe000000fa008d18070010
:10068000c048a90010002000851807000080fa006b
:100690004f03be004f02be004f01be004f00be0020
:1006a0003600f900004006003600f800809fbe00ca
:1006b000829fbe00849fbe00869fbe000000fa009d
:1006c000c068a90020002000751807000080fa000b
:1006d0004f03be004f02be004f01be004f00be00e0
:1006e0003600f900004006003600f800809fbe008a
:1006f000829fbe00849fbe00869fbe000000fa005d
:10070000c088a90030002000651807000080fa00aa
:100710004f03be004f02be004f01be004f00be009f
:100720003600f900004006003600f800809fbe0049
:10073000829fbe00849fbe00869fbe000000fa001c
:10074000c0a8a90040002000551807000080fa004a
:100750004f03be004f02be004f01be004f00be005f
:100760003600f900004006003600f800809fbe0009
:10077000829fbe00849fbe00869fbe000000fa00dc
:10078000c608a90070002000451807000080fa0084
:100790004f03be004f02be004f01be004f00be001f
:1007a0003600f900004006003600f800809fbe00c9
:1007b000829fbe00849fbe00869fbe000000fa009c
:1007c0002146800000022000008060000000e00060
:1007d00003003200c4a8a9009000200030180700d0
:1007e00020468000700060000000e000030032003e
:1007f000c488a900a000200029180700ffff3700c7
:100800003600f800809fbe00829fbe00849fbe001d
:10081000869fbe000000fa00c08780000000e00054
:1008200002003200c0878000000001005015210046
:10083000104078008040e800501521000148780001
:100840004015210011c0b300014878000068a900dc
:100850000080fa004f03be004f02be004f01be00f1
:100860004f00be003600f900004006003600f800d8
:10087000809fbe00829fbe00849fbe00869fbe00f8
:100880000000fa00d08780000000e0000200320083
:10089000d087800000000100701521001040780012
:1008a0008040e800701521000148780060152100a3
:1008b00011c0b3000148780000e8a9000080fa00e8
:1008c0004f03be004f02be004f01be004f00be00ee
:1008d0003600f900004006003600f800809fbe0098
:1008e000829fbe00849fbe00869fbe000000fa006b
:1008f000f08780000000e00002003200f0878000f6
:100900000000010090152100104078008040e800b0
:1009100090152100014878008015210011c0b30016
:10092000014878000108a9000080fa004f03be00ca
:100930004f02be004f01be004f00be003600f9005e
:10094000004006000040da000000fe000000050044
:100950006011b80000003700889fbe008a9fbe006b
:1009600000827000040271000482710026003200cf
:100970000004be000200be006011b8006b09200038
:10098000950220000182cf000a0039000541b10024
:100990000082cf00070039000541b1000982cf0075
:1009a000040039000541b1000882cf000100390080
:1009b0000541b10005425200120032000a003b001e
:1009c00082817100610164008100d1000080d30048
:1009d0008984d3000884d3008b05e8000442e80032
:1009e000f7ff3a00070037000804440089844c00f0
:1009f00000004800818048008b05e9000442e900be
:100a0000f9ff3a00030007004f05be004f04be0087
:100a10000000060081002000618055000b003d00b1
:100a20000b00200061fe2f000100e1001d003400da
:100a300082817100610164008904d1000884d300bf
:100a40000000e800faff3a00710020006100640035
:100a500003007000020060000900320061044400dd
:100a6000e0844c000988a500050032008b05e800f1
:100a70006808e10002003a008904d1000884d3002c
:100a8000f20f20000258e10005003d00c75ddd00c7
:100a9000f907b200898075000800780000000600a0
:0c0aa0000bf827008b0078000000050018
:020000040000fa
:100aac0001000000200000003f0000005e0000007c
:100abc007d0000009c000000bb000000da0000007c
:100acc00f900000018010000370100005601000079
:100adc007501000094010000b3010000d201000078
:100aec00f1010000100200002f0200004e02000075
:100afc006d0200008c020000ab020000ca02000074
:100b0c00e902000008030000270300004603000070
:100b1c006503000084030000a3030000c20300006f
:100b2c00e1030000000400001f0400003e0400006c
:100b3c005d0400007c0400009b040000ba0400006b
:100b4c00d9040000f8040000170500003605000069
:100b5c00550500007405000093050000b205000067
:100b6c00d1050000f00500000f0600002e06000065
:100b7c004d0600006c0600008b060000aa06000063
:100b8c00c9060000e8060000070700002607000061
:100b9c00450700006407000083070000a20700005f
:100bac00c1070000e0070000ff0700001e0800005e
:100bbc003d0800005c0800007b0800009a0800005b
:100bcc00b9080000d8080000f7080000160900005a
:100bdc003509000054090000730900009209000057
:100bec00b1090000d0090000ef0900000e0a000056
:100bfc002d0a00004c0a00006b0a00008a0a000053
:100c0c00a90a0000c80a0000e70a0000060b000051
:100c1c00250b0000440b0000630b0000820b00004e
:100c2c00a10b0000c00b0000df0b0000fe0b00004e
:100c3c001d0c00003c0c00005b0c00007a0c00004a
:100c4c00990c0000b80c0000d70c0000f60c00004a
:100c5c00150d0000340d0000530d0000720d000046
:100c6c00910d0000b00d0000cf0d0000ee0d000046
:100c7c000d0e00002c0e00004b0e00006a0e000042
:100c8c00890e0000a80e0000c70e0000e60e000042
:100c9c00050f0000240f0000430f0000620f00003e
:100cac00810f0000a00f0000810f0000620f0000f8
:100cbc00430f0000240f0000050f0000e60e00009b
:100ccc00c70e0000a80e0000890e00006a0e00007e
:100cdc004b0e00002c0e00000d0e0000ee0d00005f
:100cec00cf0d0000b00d0000910d0000720d000042
:100cfc00530d0000340d0000150d0000f60c000023
:100d0c00d70c0000b80c0000990c00007a0c000005
:100d1c005b0c00003c0c00001d0c0000fe0b0000e6
:100d2c00df0b0000c00b0000a10b0000820b0000c9
:100d3c00630b0000440b0000250b0000060b0000a9
:100d4c00e70a0000c80a0000a90a00008a0a00008d
:100d5c006b0a00004c0a00002d0a00000e0a00006d
:100d6c00ef090000d0090000b10900009209000051
:100d7c007309000054090000350900001609000031
:100d8c00f7080000d8080000b90800009a08000015
:100d9c007b0800005c0800003d0800001e080000f5
:100dac00ff070000e0070000c1070000a2070000d9
:100dbc0083070000640700004507000026070000b9
:100dcc0007070000e8060000c9060000aa0600009c
:100ddc008b0600006c0600004d0600002e0600007d
:100dec000f060000f0050000d1050000b205000060
:100dfc009305000074050000550500003605000041
:100e0c0017050000f8040000d9040000ba04000023
:100e1c009b0400007c0400005d0400003e04000004
:100e2c001f04000000040000e1030000c2030000e6
:100e3c00a3030000840300006503000046030000c8
:100e4c002703000008030000e9020000ca020000aa
:100e5c00ab0200008c0200006d0200004e0200008c
:100e6c002f02000010020000f1010000d20100006e
:100e7c00b301000094010000750100005601000050
:100e8c003701000018010000f9000000da00000032
:100e9c00bb0000009c0000007d0000005e00000014
:080eac003f00000020000000df
:020000040000fa
:100eb4000000fa0001eca8000080fa00000006001f
:100ec4000400fa00000f7800110798001e00780053
:100ed400e20f500007003200e30f50000800320018
:100ee400e10f50000a003a009e0090003161880032
:100ef400080037009e00900031628800050037002a
:100f04009e0090003163880000000000010037005b
:100f1400000000000080fa00000006000000fa0053
:100f240021e3a8000080fa00000006000000fa0097
:100f340021e3a9000080fa00000006000000fa0086
:100f44002023a8000080fa00000006000000fa0038
:100f54002023a9000080fa00000006000200fa0025
:100f6400000f78001e007800e10f50000d003200e1
:100f7400e10f500005003900e20f50000f0032006d
:100f8400e30f5000130032001600370041198000af
:100f940000fe2f00008060000010a00040198800af
:100fa400100037004119800000fe2f00008060000f
:100fb4006000b300401988000a003700411980001e
:100fc40000fe2f0000806000e001b300401988009b
:100fd4000400370040198000f001b3004019880074
:100fe400000000000080fa00000006000400fa007f
:100ff400100798001e009000e30f500003003e000d
:1010040001188000010f7800010037000000000083
:101014001e0078000080fa00000006000400fa00b8
:1010240010079800001980000040780061406000bb
:101034000080fb0000f0a7000000ea000000ea00c6
:101044004f00de00004f78001e4078000080fa0058
:10105400000006000800fa002007980031079800f5
:101064006000b800008fbe00f4150700008fbe00ba
:1010740000000000f11507003e015000ae81580049
:101084002e009000be009000800f5100818f590007
:10109400f8ff39000080fa00000006000800fa009a
:1010a40030079800202e2e00000f7800100020003a
:1010b400100798009e0090003e0090008088b900c0
:1010c4009e00780000017800110009008280d80099
:1010d4000000e900200798000621ef00ae00900010
:1010e40061088800000028008008880000e8a90042
:1010f40020e8a8000080fa00000006000000fa00c2
:1011040000d0bf000004e00004003200d08680005c
:101114008000780010c0b300e91007000080fa00d6
:10112400000006000000fa000080fa00000006003b
:101134000000fa00b2d0bf000080fb00e20f5000b4
:1011440018003200e20f500005003c000000e000ef
:101154000a003200e10f50000e0032006400370034
:10116400e40f500023003200e40f5000110035005a
:10117400e50f5000590032005d00370067ff07009b
:101184001000200075ff070010c0b300b2f0b700d4
:101194005700370069ff070020c0b300b2f0b70062
:1011a4005300370069ff070030c0b300b2f0b70046
:1011b4004f0037001000200098ff07000004e000f3
:1011c4000300320040c0b300b2f0b700480037005b
:1011d400a08580000000e800a0858800a08580002c
:1011e400e20f50004100360050c0b300b2f0b70027
:1011f4003f003700100020007cff0700608188005a
:1012040061818000501f2000808f50002f003e001d
:10121400608180000000e0002c003200b085800076
:101224000000e800b0858800b0858000e20f50001f
:1012340027003600b630ef000370ef000430ef00f3
:10124400c10d210091407800d0c2b30080cf50007e
:1012540003003a000040eb00ca0407000f00370007
:10126400c10d210091407800c0c3b30080cf50006d
:1012740003003a000040eb003e040700070037007b
:10128400c10d210091407800b0c4b30080cf50005c
:1012940002003a000040eb00b20307000070ef00c8
:1012a4007f1007008000eb001000200004ff0700ff
:1012b4008000eb002000200001ff07008000eb000d
:1012c40030002000fefe070001003700b630ef00ba
:1012d40050c0b300b2f0b7000500370013ff070099
:1012e400b270ef00000000000100370000000000b1
:1012f4000080fa00000006000000fa00acd0bf0035
:101304000080fb00e20f500018003200e20f500092
:1013140005003c000000e0000a003200e10f50002c
:101324000e00320061003700e40f50002300320049
:10133400e40f500011003500e50f50005600320054
:101344005a003700f5fe07000000eb0003ff07001a
:1013540010c0b300acf0b70054003700f7fe07002c
:1013640020c0b300acf0b70050003700f7fe070010
:1013740030c0b300acf0b7004c0037000000eb0005
:1013840026ff07000004e0000300320040c0b30061
:10139400acf0b70045003700708580000000e8001d
:1013a4007085880070858000e20f50003e00360092
:1013b40050c0b300acf0b7003c0037000000eb00b5
:1013c4000aff0700808188008181800000042000da
:1013d400808f50002c003600808580000000e800db
:1013e4008085880080858000e20f50002700360049
:1013f400b030ef000370ef000430ef00c10d2100a6
:1014040091407800d0c2b30080cf500003003a006e
:101414000040eb005b0407000f003700c10d210002
:1014240091407800c0c3b30080cf500003003a005d
:101434000040eb00cf03070007003700c10d210077
:1014440091407800b0c4b30080cf500002003a004d
:101454000040eb00430307000070ef00101007008a
:101464008000eb001000200095fe07008000eb00d8
:101474002000200092fe07008000eb0030002000d6
:101484008ffe070001003700b030ef0050c0b300fa
:10149400acf0b70005003700a4fe0700ac70ef0005
:1014a4000000000001003700000000000080fa0086
:1014b400000006000000fa00881f780000002200e7
:1014c40001102000131307007080880081808800b9
:1014d40050052000a10a20009a12070070808000a5
:1014e40081808000c612070012f0b70030808000af
:1014f4008000eb006088880071888800408080004c
:101504008000eb00808888009188880050808000eb
:101514008000eb00a0888800b1888800608080008b
:101524008000eb00c0888800d18888008288800011
:1015340093888000608880007188800076808000b5
:10154400878080000202be000001be000600be00cb
:10155400b912070012f0b70012d0bf000084fb00dc
:10156400c2888000d3888000a0888000b188800071
:10157400748080008580800064034200e0834a0018
:101584000202be000001be000600be00aa1207004f
:101594000080fb000000640000f0a7000000ea00e7
:1015a4000000ea004f00de000040780012f0b700af
:1015b400691207004f0478000080fa00000006005a
:1015c4000000fa000000220001102000d1120700e0
:1015d4007080880081808800708080008180800015
:1015e4007a120700e0888800f18888007080800003
:1015f4008180800062004000e08048007312070090
:1016040000898800118988007080800081808000b2
:1016140064004000e08048006c12070020898800c4
:1016240031898800708080008180800066004000dd
:10163400e0804800651207004089880051898800cd
:101644000080fa00000006000000fa0030002000cc
:101654003080880030002000408088004000200056
:1016640050808800b0868000d0868800e51207008c
:101674005f140700001407008000eb001000200036
:101684000ffe07008000eb00200020000cfe070086
:101694008000eb003000200009fe070004fe070074
:1016a400008820002b130700321307000000eb0012
:1016b4005b0f0700207180004300de006140600082
:1016c4000004a200614060000080fb006100600033
:1016d4004300dd00217180000130a1000100700091
:1016e40020718800c0868000f012b000fc12070050
:1016f4000040eb001a0f0700007d200001002000cd
:1017040054fe0700146ea800650f0700012ea80000
:101714000080fa00000006000000fa00c200070082
:10172400ae0e070000102100104078000004e00015
:101734000d003200001021008040eb0001487800c9
:10174400a230ef00308080000000e8003080880084
:101754003180800030062000808f50000200360067
:101764001000200030808800341407002085880091
:101774003185880022858000338580004085800083
:101784005185800000015100818159001000200022
:1017940001002000800f5100818f59001000360095
:1017a400208580003185800040858800518588002f
:1017b4000040eb00ef020700108580000000e80005
:1017c400108588001185800000712200808f5000f0
:1017d40003003600a230ef001370ef0035ff07005e
:1017e4000080fa00000006000000fa008e000700e6
:1017f4004080800064000700780e0700301021004c
:10180400104078000004e0000d0032003010210088
:101814008040eb00014878009830ef004080800061
:101824000000e800408088004180800030062000ed
:10183400808f500002003600100020004080880095
:10184400fe130700d0848800e1848800d2848000dd
:10185400e3848000f0848000018580000001510051
:10186400818159001000200001002000800f5100e8
:10187400818f59000e003600d0848000e1848000fe
:10188400f084880001858800c08480000000e8009e
:10189400c0848800c184800000712200808f5000c1
:1018a400030036009830ef001470ef0001ff0700ca
:1018b4000080fa00000006000000fa005a00070049
:1018c4005080800030000700440e070060102100a3
:1018d400104078000004e0000d0032006010210088
:1018e4008040eb00014878008e30ef00508080008b
:1018f4000000e800508088005180800030062000fd
:10190400808f5000020036001000200050808800b4
:10191400ca13070080848800918488008284800030
:1019240093848000a0848000b18480000001510071
:10193400818159001000200001002000800f510017
:10194400818f59000e0036008084800091848000cd
:10195400a0848800b1848800708480000000e800be
:10196400708488007184800000712200808f500090
:10197400030036008e30ef001570ef00cdfe070037
:101984000080fa00000006000200fa00000f780050
:10199400aa130700208488003184880022848000f0
:1019a4003384800040848000518480000001510011
:1019b40081815900c012200001002000800f5100d5
:1019c400818f590016003600208480003184800005
:1019d40040848800518488008cd0bf000080fb00c4
:1019e4000000a20000f0a7000000ea000000ea00e6
:1019f4004f00de00004078008cf0b7008cd0bf00b0
:101a04000004e0000300320040c6b300540e070097
:101a1400030037001e00780000407800500e0700d5
:101a24000080fa00000006000000fa00831307009b
:101a3400e0838800f1838800e2838000f3838000e0
:101a440000848000118480000001510081815900cc
:101a5400000a200001002000800f5100818f5900ee
:101a640074003600e0838000f183800000848800e5
:101a74001184880010708000640060000000e000a1
:101a84001b00320020102100104078008040e80044
:101a94002010210001487800201021001040780017
:101aa400e24f500003003a000010210011c0b300bf
:101ab40001487800201021009040780040c6b3000f
:101ac40080cf500010003a001010210011c0b30064
:101ad40001487800001021008040eb0001487800a4
:101ae4002010210081c6b3000148780006003700a9
:101af400201021008040eb000148780000102100f4
:101b04008040eb000148780010708000680060009d
:101b14000000e0001b00320050102100104078004b
:101b24008040e80050102100014878005010210046
:101b340010407800e24f500003003a0030102100ba
:101b440011c0b30001487800501021009040780083
:101b540040c6b30080cf500010003a00401021006e
:101b640011c0b30001487800301021008040eb0020
:101b7400014878005010210081c6b3000148780064
:101b840006003700501021008040eb000148780027
:101b9400301021008040eb00014878001170800073
:101ba40000102000008060000000e0001b003200f4
:101bb40080102100104078008040e800801021004f
:101bc400014878008010210010407800e24f500056
:101bd40003003a006010210011c0b30001487800ee
:101be400801021009040780040c6b30080cf5000a0
:101bf40010003a007010210011c0b30001487800b1
:101c0400601021008040eb00014878008010210022
:101c140081c6b30001487800060037008010210017
:101c24008040eb0001487800601021008040eb0008
:101c3400014878000080fa00000006000000fa0065
:101c440000102100104078000004e0002000320061
:101c5400001021008040eb000148780003d0bf0051
:101c64000080fb000000a20000f0a7000000ea00d2
:101c74000000ea004f00de000040780003f0b700e7
:101c840003d0bf000004e00011003200144ea8008d
:101c94006e0007000070ef0010002000e00d070048
:101ca40080b52100b0868800a0be2000c0868800d0
:101cb400b0868000d08688000170ef000270ef00cb
:101cc4003080800020808800d0c2b300dcf0b700f0
:101cd40030102100104078000004e00020003200a1
:101ce400301021008040eb000148780003d0bf0091
:101cf4000080fb000000a20000f0a7000000ea0042
:101d04000000ea004f00de000040780003f0b70056
:101d140003d0bf000004e00011003200144ea800fc
:101d24004a0007000070ef0010002000bc0d0700ff
:101d340080b52100b086880080892000c086880094
:101d4400b0868000d08688000170ef000270ef003a
:101d54004080800020808800c0c3b300dcf0b7005e
:101d640060102100104078000004e00020003200e0
:101d7400601021008040eb000148780003d0bf00d0
:101d84000080fb000000a20000f0a7000000ea00b1
:101d94000000ea004f00de000040780003f0b700c6
:101da40003d0bf000004e00011003200144ea8006c
:101db400260007000070ef0010002000980d0700b7
:101dc40080b52100b0868800806b2000c086880022
:101dd400b0868000d08688000170ef000270ef00aa
:101de4005080800020808800b0c4b300dcf0b700cd
:101df40010102100104078000004e00003003200bd
:101e0400101021008040eb000148780040102100b0
:101e1400104078000004e00003003200401021006c
:101e24008040eb00014878007010210010407800d9
:101e34000004e00003003200701021008040eb0039
:101e4400014878000080fa00000006000000fa0053
:101e54007a120700d0808800e1808800d08080005a
:101e6400e1808000f0808800018188000080fa0011
:101e7400000006000200fa00004f78006f1207000d
:101e8400d0808800e1808800d2808000e3808000d8
:101e9400f08080000181800000015100818159009f
:101ea400f0a52e0001002000800f5100818f590001
:101eb4000e003600d0808000e1808000f080880031
:101ec40001818800208080000000e90020808800d3
:101ed40003d0bf000004e000040032002080800032
:101ee4000000e00001003a000370ef000080fa00f7
:101ef400000006000000fa00b80c0700cafe070044
:101f0400020007000080fa00000006000200fa0048
:101f14000000eb00000f780048ff070020808000dd
:101f240000407800d3ff0700441207002083880094
:101f340031838800228380003383800040838000c3
:101f44005183800000015100818159003006200036
:101f540001002000800f5100818f590005003e00d0
:101f64002083800031838000e00f5000e08f580010
:101f74003a003a0020838000318380004083880047
:101f840051838800dcfc07009070800062006000d0
:101f94000000e00021003200608380000000e800bf
:101fa4006083880060838000e40f50001c003600ca
:101fb4006c30ef000370ef000430ef00c10d21001e
:101fc40091407800d0c2b30080cf500003003a00a3
:101fd4000040eb006b01070011003700c10d210028
:101fe40091407800c0c3b30080cf500003003a0092
:101ff4000040eb00df00070009003700c10d21009d
:1020040091407800b0c4b30080cf500004003a007f
:102014000040eb0053000700010037006c30ef0074
:1020240003d0bf000004e0000c00320020718000e7
:102034004300de00614060000004a20061406000d3
:102044000080fb00610060004300dd00217180001e
:102054000130a100010070002071880003d0bf008e
:102064000004a2000004e0001f003200c10d2100a2
:1020740091407800d0c2b30080cf500003003a00f2
:102084000040eb003f0107000f003700c10d2100a5
:1020940091407800c0c3b30080cf500003003a00e1
:1020a4000040eb00b300070007003700c10d21001a
:1020b40091407800b0c4b30080cf500002003a00d1
:1020c4000040eb00270007006ed0bf000004a20010
:1020d4000004e000210032000040eb00a00c0700e7
:1020e400246ea8001d00370003d0bf000004e000e8
:1020f4001a003200c10d210091407800d0c2b30013
:1021040080cf500003003a0010c0b3001d01070047
:102114000f003700c10d210091407800c0c3b30007
:1021240080cf500003003a0010c0b30091000700b4
:1021340007003700c10d210091407800b0c4b300fe
:1021440080cf500002003a0010c0b3000500070021
:102154002080800000407800810c07000080fa0095
:10216400000006000200fa00004f7800b3110700d7
:10217400a0828800b1828800a2828000b38280009d
:10218400c0828000d1828000800f5100818f59006d
:1021940005003a00a0828000b1828000e00f500068
:1021a400e08f580071003a00a0828000b182800064
:1021b400c0828800d18288001e407800e14f500020
:1021c4003a003a0010c0b30000f0b70001d0bf00dd
:1021d4000004a2000004e0002f003200022cef00f3
:1021e400c105210091407800c0c2b30080cf5000e7
:1021f4000b003e00f08280000000e800f0828800be
:10220400f0828000f80f5000100036005e30ef00be
:102214005cd0bf000040e8005cf0b7000b00370062
:10222400f08280000000e800f0828800f1828000e3
:10223400a0042000808f5000040036005e30ef00c0
:102244005cd0bf000040e8005cf0b7005cd0bf0089
:102254003f010700d0868800c10521009140780025
:10226400a0c4b30080cf500037003600b0c4b30020
:102274005cf0b70010c0b30001f0b7000270ef00cb
:102284005cd0bf0032010700f0868800f086800031
:10229400d08688002c003700b0c4b3002c0107009e
:1022a400d08688000270ef00270037001e407800b7
:1022b4000004e00024003a00f08280000000e800fe
:1022c400f0828800f0828000f80f5000070036008a
:1022d4005e30ef005cd0bf000040e9005cf0b70066
:1022e4005cd0bf001a010700d08688005cd0bf0014
:1022f400ea4f500014003e005c70ef006030ef00c5
:102304005e30ef00a0be2000d08688000170ef0090
:102314000070ef000270ef000370ef00600c070024
:102324008000eb0010002000e5fa07008000eb00bd
:1023340020002000e2fa07008000eb0030002000bb
:10234400dffa0700144ea90011838000d0868000b4
:10235400808f500005003200d086800010838800f2
:10236400d0868000f012b000dd0f07000080fa0074
:10237400000006000200fa00004f78002f11070049
:10238400208288003182880022828000338280008b
:102394004082800051828000800f5100818f59005b
:1023a40005003a002082800031828000e00f500056
:1023b400e08f580071003a00208280003182800052
:1023c40040828800518288001e407800e14f50000e
:1023d4003a003a0010c0b30000f0b70001d0bf00cb
:1023e4000004a2000004e0002f003200022cef00e1
:1023f400c104210091407800c0c2b30080cf5000d6
:102404000b003e00708280000000e80070828800ab
:1024140070828000f80f5000100036004e30ef003c
:102424004cd0bf000040e8004cf0b7000b00370070
:10243400708280000000e800708288007182800051
:10244400a0042000808f5000040036004e30ef00be
:102454004cd0bf000040e8004cf0b7004cd0bf00a7
:10246400bb000700d0868800c10421009140780099
:10247400b0c3b30080cf500037003600c0c3b300f0
:102484004cf0b70010c0b30001f0b7000270ef00c9
:102494004cd0bf00ae000700f0868800f0868000b4
:1024a400d08688002c003700c0c3b300a800070002
:1024b400d08688000270ef00270037001e407800a5
:1024c4000004e00024003a00708280000000e8006c
:1024d4007082880070828000f80f50000700360078
:1024e4004e30ef004cd0bf000040e9004cf0b70084
:1024f4004cd0bf0096000700d08688004cd0bf00a7
:10250400ea4f500014003e004c70ef005030ef00d2
:102514004e30ef00a0be2000d08688000170ef008e
:102524000070ef000270ef000370ef00dc0b070097
:102534008000eb001000200061fa07008000eb002f
:10254400200020005efa07008000eb00300020002d
:102554005bfa0700144ea90091828000d0868000a7
:10256400808f500005003200d08680009082880061
:10257400d0868000f012b000590f07000080fa00e6
:10258400000006000200fa00004f7800ab100700bc
:10259400a0818800b1818800a2818000b38180007d
:1025a400c0818000d1818000800f5100818f59004b
:1025b40005003a00a0818000b1818000e00f500046
:1025c400e08f580060003a00a0818000b181800053
:1025d400c0818800d18188001e407800e14f5000fe
:1025e40029003a0010c0b30000f0b70001d0bf00ca
:1025f4000004a2000004e0001e003200022cef00e0
:10260400e08180000000e800e0818800e081800033
:10261400f80f5000040036003c30ef003ed0bf00fd
:102624000040e8003ef0b7003ed0bf00480007007d
:10263400d0868800e103210091407800c0c2b30035
:1026440080cf500037003600d0c2b3003ef0b70050
:1026540010c0b30001f0b7000270ef003ed0bf001d
:102664003b000700f0868800f0868000d086880052
:102674002c003700d0c2b30035000700d086880094
:102684000270ef00270037001e4078000004e000cd
:1026940024003a00e08180000000e800e081880026
:1026a400e0818000f80f5000070036003c30ef0056
:1026b4003ed0bf000040e9003ef0b7003ed0bf006e
:1026c40023000700d08688003ed0bf00ea4f5000a8
:1026d40014003e003e70ef004030ef003c30ef004d
:1026e400a0be2000d08688000170ef000070ef00cb
:1026f4000270ef000370ef00690b07008000eb002d
:1027040010002000eef907008000eb0020002000fc
:10271400ebf907008000eb0030002000e8f9070027
:10272400144ea90011828000d0868000808f500052
:1027340005003200d086800010828800d086800098
:10274400f012b000e60e07000080fa000000060058
:102754000200fa00004f78001e407800e14f50005c
:1027640003003e0000c3250090818800e701370084
:102774001e407800e24f500003003a008084250098
:1027840090818800e10137001e407800e34f50003b
:1027940003003a000046250090818800db013700e1
:1027a4001e407800e44f500003003a0080072500e3
:1027b40090818800d50137001e407800e54f500015
:1027c40003003a0000c9240090818800cf0137003b
:1027d4001e407800e64f500003003a00808a24002f
:1027e40090818800c90137001e407800e74f5000ef
:1027f40003003a00001a240090818800c3013700c6
:102804001e407800e84f500003003a00006b23009c
:1028140090818800bd0137001e407800e94f5000c8
:1028240003003a00400d230090818800b70137006f
:102834001e407800ea4f500003003a0000a3220033
:1028440090818800b10137001e407800eb4f5000a2
:1028540003003a000071220090818800ab01370028
:102864001e407800ec4f500003003a0080322200f2
:1028740090818800a50137001e407800ed4f50007c
:1028840003003a0040132200908188009f01370022
:102894001e407800ee4f500003003a0000f421007f
:1028a40090818800990137001e407800ef4f500056
:1028b40003003a00c0d421009081880093013700be
:1028c4001e407800f04f500003003a0080b521000c
:1028d400908188008d0137001e407800f14f500030
:1028e40003003a0040962100908188008701370058
:1028f4001e407800f24f500003003a00808321000c
:1029040090818800810137001e407800f34f500009
:1029140003003a00c0702100908188007b013700d9
:102924001e407800f44f500003003a00005e21007e
:1029340090818800750137001e407800f54f5000e3
:1029440003003a0000452100908188006f013700a0
:102954001e407800f64f500003003a0080382100f2
:1029640090818800690137001e407800f74f5000bd
:1029740003003a00002c2100908188006301370095
:102984001e407800f84f500003003a00801f2100d9
:10299400908188005d0137001e407800f94f500097
:1029a40003003a00c00c21009081880057013700d1
:1029b4001e407800fa4f500003003a004005210001
:1029c40090818800510137001e407800fb4f500071
:1029d40003003a0000fa2000908188004b01370080
:1029e4001e407800fc4f500003003a00c0f3200062
:1029f40090818800450137001e407800fd4f50004b
:102a040003003a0040e72000908188003f0137002e
:102a14001e407800fe4f500003003a00c0da200048
:102a240090818800390137001e407800ff4f500024
:102a340003003a00a0d720009081880033013700ba
:102a440000c2b3009e40780080cf500003003a00db
:102a540060d12000908188002c01370010c2b3009f
:102a64009e40780080cf500003003a0020cb200025
:102a7400908188002501370020c2b3009e40780071
:102a840080cf500003003a00e0c420009081880009
:102a94001e01370030c2b3009e40780080cf500042
:102aa40003003a00a0be200090818800170137007f
:102ab40040c2b3009e40780080cf500003003a002b
:102ac40060b82000908188001001370050c2b30024
:102ad4009e40780080cf500003003a0020b22000ce
:102ae400908188000901370060c2b3009e407800dd
:102af40080cf500003003a00e0ab200090818800b2
:102b04000201370070c2b3009e40780080cf5000ad
:102b140003003a00c0a8200090818800fb00370021
:102b240080c2b3009e40780080cf500003003a007a
:102b3400a0a5200090818800f400370090c2b30063
:102b44009e40780080cf500003003a00609f200030
:102b540090818800ed003700a0c2b3009e40780049
:102b640080cf500003003a00009b20009081880031
:102b7400e6003700b0c2b3009e40780080cf50001a
:102b840003003a008098200090818800df0037001d
:102b9400c0c2b3009e40780080cf500003003a00ca
:102ba400c094200090818800d8003700d0c2b300c0
:102bb4009e40780080cf500003003a00c08f200070
:102bc40090818800d1003700e0c2b3009e407800b5
:102bd40080cf500003003a00a08c20009081880030
:102be400ca003700f0c2b3009e40780080cf500086
:102bf40003003a008089200090818800c3003700d8
:102c040000c3b3009e40780080cf500003003a0018
:102c14006086200090818800bc00370010c3b30098
:102c24009e40780080cf500003003a00408320008b
:102c340090818800b500370020c3b3009e4078001f
:102c440080cf500003003a0020802000908188004b
:102c5400ae00370030c3b3009e40780080cf5000f0
:102c640003003a00007d200090818800a70037000f
:102c740040c3b3009e40780080cf500003003a0068
:102c8400e079200090818800a000370050c3b30091
:102c94009e40780080cf500003003a00a0782000c6
:102ca400908188009900370060c3b3009e4078008b
:102cb40080cf500003003a00c07620009081880045
:102cc4009200370070c3b3009e40780080cf50005c
:102cd40003003a0000732000908188008b003700c5
:102ce40080c3b3009e40780080cf500003003a00b8
:102cf40080702000908188008400370090c3b30066
:102d04009e40780080cf500003003a00606d2000a0
:102d1400908188007d003700a0c3b3009e407800f6
:102d240080cf500003003a00206c2000908188007e
:102d340076003700b0c3b3009e40780080cf5000c7
:102d440003003a00406a2000908188006f00370039
:102d5400c0c3b3009e40780080cf500003003a0007
:102d6400206720009081880068003700d0c3b3003a
:102d74009e40780080cf500003003a00e0652000b8
:102d84009081880061003700e0c3b3009e40780062
:102d940080cf500003003a00006420009081880036
:102da4005a003700f0c3b3009e40780080cf500033
:102db40003003a00c062200090818800530037006d
:102dc40000c4b3009e40780080cf500003003a0056
:102dd400e0602000908188004c00370010c4b300ec
:102de4009e40780080cf500003003a00c05d200070
:102df400908188004500370020c4b3009e407800cd
:102e040080cf500003003a00805c2000908188004d
:102e14003e00370030c4b3009e40780080cf50009d
:102e240003003a00a05a2000908188003700370040
:102e340040c4b3009e40780080cf500003003a00a5
:102e440060592000908188003000370050c4b300de
:102e54009e40780080cf500003003a00c058200004
:102e6400908188002900370060c4b3009e40780038
:102e740080cf500003003a00e05620009081880083
:102e84002200370070c4b3009e40780080cf500009
:102e940003003a0060542000908188001b00370032
:102ea40080c4b3009e40780080cf500003003a00f5
:102eb40080522000908188001400370090c4b30031
:102ec4009e40780080cf500003003a00405120001b
:102ed400908188000d003700a0c4b3009e407800a4
:102ee40080cf500003003a000050200090818800f9
:102ef40006003700a0c4b3009e40780080cf500085
:102f040002003600204e20009081880091818000cc
:102f1400104e2000808f500002003c00204e200004
:102f240090818800908180000080fa0000000600f3
:020000040000fa
:102f34000000fa0000002300203a88004827ef0030
:102f44004e27ef00f0012000303a88006027ef00a0
:102f54006227ef006427ef006627ef006a27ef007f
:102f64006c27ef001200200080072000a109200038
:102f740033742000804978008149780082497800c0
:102f8400120020006004200071052000237420003a
:102f94008049780081497800824978000000000067
:102fa400103a8000610060000000e000fcff3a007d
:102fb40000000000113a8000000220000080600040
:102fc4000000e000fbff32000080fa000000060071
:020000040000fa
:102fd4000000fa00dd0d07009bf90700c5fb0700a0
:042fe400feff3700b5
:020000040000fa
:1030000000000000000000000000000000000000c0
:1030100000000000000000000000000000000000b0
:1030200000000000000000000000000000000000a0
:103030000000000000000000000000000000000090
:020000040000fa
:020000040000fa
:105000000000fa0014eea800150ea800152ea80046
:1050100024cea80024eea800250ea800252ea90065
:105020000080fa00000006000000fa0014eea9005b
:10503000150ea800152ea80024cea90024eea90064
:10504000250ea900252ea9000080fa000000060008
:105050000000fa0014eea800150ea800152ea900f5
:1050600024cea80024eea800250ea900252ea80015
:105070000080fa00000006000000fa0014eea8000c
:10508000150ea800152ea80024cea80024eea90015
:10509000250ea900252ea8000080fa0000000600b9
:1050a0000000fa0014eea900150ea800152ea800a5
:1050b00024cea90024eea900250ea800252ea800c4
:1050c0000080fa00000006000000fa0014eea800bc
:1050d000150ea900152ea80024cea80024eea900c4
:1050e000250ea800252ea8000080fa00000006006a
:1050f0000000fa0014eea800150ea900152ea80055
:1051000024cea80024eea800250ea800252ea80075
:105110000080fa00000006000000fa0014eea8006b
:10512000150ea800152ea80024cea90024eea90073
:10513000250ea900252ea9000080fa000000060017
:105140000000fa0014eea800150ea800152ea80005
:1051500024cea80024eea800250ea800252ea80025
:105160000080fa00000006000000fa0014eea8001b
:10517000150ea800152ea80024cea80024eea90024
:10518000250ea800252ea8000080fa0000000600c9
:105190000000fa0014eea900150ea900152ea900b2
:1051a00024cea90024eea900250ea900252ea900d1
:1051b0000080fa00000006000000fa0014eea900ca
:1051c000150ea900152ea90024cea90024eea900d1
:1051d000250ea900252ea8000080fa000000060078
:1051e0000200fa0010878000218780003087880045
:1051f00041878800ead0bf000004e00008003200c8
:1052000004eea900054ea90004eea800054ea90071
:105210000015210010407800ebf0b70006003700c1
:1052200004eea900054ea900054ea80010152100a6
:1052300010407800ebf0b700201521009040780076
:1052400040c6b30080cf500002003a00d0ff0700f4
:105250002e003700201521009040780080ccb3004c
:1052600080cf500002003a00d3ff0700270037002c
:10527000ebd0bf000080fb00cf80de00920020005a
:1052800003002000820f5000838f58001f003e0053
:1052900000060100090037000a0037000b00370044
:1052a0000c0037000d0037000e0037000f003700ec
:1052b00010003700110037001200370050ff0700c0
:1052c0001200370058ff07001000370060ff07008a
:1052d0000e00370068ff07000c00370070ff070062
:1052e0000a00370078ff07000800370080ff07003a
:1052f0000600370088ff07000400370090ff070012
:105300000200370098ff070000000000ead0bf004d
:105310000080fb000000a20000f0a7000000ea00ef
:105320000000ea004f00de0000407800eaf0b7001d
:1053300097ff07000000eb00000f78000000eb0073
:10534000000f7800010037001e0fe8003006200033
:105350009e007800808f5000fbff34000080fa0030
:10536000000006000400fa002047980020152100e4
:10537000ae409000014878002e4090008080fb00f5
:10538000d0cc2c000008b8004308de008040780034
:1053900000152100014878002e4090000081fb009c
:1053a000d0cc2c000010b8004308de00ea00b900a1
:1053b000000051008040780010152100014878005d
:1053c0000080fa00000006000400fa00000f7800d8
:1053d000110798001e007800e20f5000070032000d
:1053e000e30f500008003200e10f50000a003a00bd
:1053f0009e00900031618800080037009e009000f8
:1054000031628800050037009e00900031638800fb
:105410000000000001003700000000000080fa00da
:10542000000006000200fa00000f78009e007800dd
:10543000c18588001e0078000000e00005003200f1
:1054400010c0b300c0f0b700c170ef00c270ef0031
:1054500003003700c070ef00c170ef00c270ef00b2
:10546000c430ef0010c0b300f2f0b700c670ef0018
:10547000c830ef0010c0b300f3f0b700ca70ef00ff
:10548000cc30ef0010c0b300f4f0b70080a72000cc
:10549000e085880080a72000f08588000080fa0061
:1054a000000006000000fa00ce70ef00cf70ef00a1
:1054b000d070ef00d170ef00d270ef000080fa00e2
:1054c000000006001400fa0000579800110f980021
:1054d0001e0890008000eb001ded0700008fbe004d
:1054e000ced0bf000080fb00800040006055280047
:1054f000008040001000780020079800cfd0bf0047
:105500000080fb00800040006055280000804000c3
:105510001000780030079800d0d0bf000080fb005a
:105520008000400060552800008040001000780096
:1055300040079800ae00900051079800be00900010
:1055400061079800ce00900071079800de0090007f
:10555000100020009cff0700ee00900020002000bb
:1055600099ff0700fe0090003000200096ff070022
:10557000ced0bf000040e800cef0b700e10c210023
:105580009140780040c5b30080cf50000200360043
:1055900010c0b300d1f0b700f10c210091407800a9
:1055a00040c5b30080cf50000200360010c0b300e9
:1055b000d2f0b700d1d0bf000004e00003003200f9
:1055c000cfd0bf000040e800cff0b700d2d0bf007e
:1055d0000004e00003003200d0d0bf000040e8002b
:1055e000d0f0b7000080fa00000006000200fa00c8
:1055f000004f7800f2d0bf000004e0000d00320040
:10560000208680008002b0002086880021868000ed
:10561000f0f92000808f50000f00360000fa2000c3
:105620002086880010c0b300c6f0b700f270ef000b
:1056300009003700208680008002b10020868800a3
:10564000208680000000e00003003a00c430ef0034
:1056500010c0b300f2f0b700208680008000780010
:105660001000200058ff07000080fa00000006002c
:105670000200fa00004f7800f3d0bf000004e00001
:105680000d003200408680008002b0004086880015
:1056900041868000f0f92000808f50000f00360016
:1056a00000fa20004086880010c0b300caf0b7009e
:1056b000f370ef0009003700408680008002b100df
:1056c00040868800408680000000e00003003a0029
:1056d000c830ef0010c0b300f3f0b7004086800080
:1056e000800078002000200037ff07000080fa00cb
:1056f000000006000200fa00004f7800f4d0bf005e
:105700000004e0000b003200608680008002b000e0
:105710006086880061868000f0f92000808f50004c
:105720000d00360000fa200060868800f470ef005b
:1057300009003700608680008002b1006086880022
:10574000608680000000e00003003a00cc30ef00eb
:1057500010c0b300f4f0b7006086800080007800cd
:105760003000200018ff07000080fa00000006004b
:105770000000fa00ffff37000000fa00ffff3700cb
:105780002600fa00881f7800008021000110200008
:1057900061020700008fbe0050052000a10a200012
:1057a000e90107001e0078009e0090001502070026
:1057b000404798004e4090000004a2000004e00022
:1057c00001003200eaff070030232200110120000f
:1057d00030079800410798006056250041042000da
:1057e0005007980061079800c0bc2b00a10a200058
:1057f00070079800010f9800f0ef2e00d10d2000e7
:10580000100f9800210f98005e019000ee019000ab
:105810003e009000ce0090000202be000001be00db
:105820001e0078009e009000040207004047980088
:105830004e4090000084fb001e099000ae099000cd
:105840007e0090008e08900044002000050020009b
:105850003e034200ae834a000202be000001be00c9
:105860000600be00f50107000080fb000000640098
:1058700000f0a7000000ea000000ea004f00de0090
:10588000404798004e4090000004a2000004e00051
:1058900001003200b6ff0700b00107001e007800cb
:1058a0009e009000ca010700300f9800410f980039
:1058b00022002000030020003e004100ae8049008d
:1058c000c3010700500f9800610f980044002000aa
:1058d000050020003e004200ae804a00bc010700e7
:1058e000700f98000117980062002000030020004c
:1058f0003e004100ae804900b50107001017980036
:10590000211798003e019000ce0190003e089000c3
:10591000ce089000800f5100818f590015003a0089
:105920005e019000ee0190005e089000ee0890008d
:10593000800f5100818f59000e003a007e019000c7
:105940008e0990007e0890008e109000800f51000c
:10595000818f590007003a001e099000ae0990009f
:105960001e109000ae109000800f5100818f5900e2
:105970000100320080ff07004f0478000080fa0029
:10598000000006000e00fa00008021000110200037
:10599000e10107002007980031079800500520001a
:1059a000a10a2000680107002e009000be009000b0
:1059b00094010700004f98000e4890000004a200d8
:1059c0000004e0000100320069ff07006000b80039
:1059d000008fbe00170037002400200005002000c3
:1059e0003e014200ae814a002e009000be009000b1
:1059f0003e024000ae8248000400be000202be002b
:105a00001e0178009e0190008c010700004f980055
:105a10000e4890000004a2000004e00001003200e3
:105a200053ff070042002000030020001e0f41002a
:105a30005e974900f07f2000010020001e017800e1
:105a40009e019000800f5100818f5900e2ff3600c7
:105a5000420107006000b800008fbe00120037004e
:105a60002e009000be0090003e024000ae82480032
:105a70000400be0056010700500798006107980017
:105a80005e009000ee009000be0f5000ae8f5800f8
:105a90000100320038ff0700220020000300200030
:105aa0001e0f41005e974900f07f2000010020009a
:105ab0001e0178009e019000800f5100818f5900d7
:105ac000e7ff36000080fa00000006000000fa0040
:105ad0002bff0700abff07000080fa000000060064
:105ae0000000fa00022cef00042cef00062cef005f
:105af0000a2cef001a2cef001e2cef0000282000cb
:105b00000061880000282000006288000028200032
:105b100000638800800a2c00e3c1200011322400b9
:105b2000d2bc2a00820978008109780010618800bf
:105b3000800a2c00e3c1200011322400d2bc2a00cc
:105b4000820978008109780010628800800a2c00a0
:105b5000e3c1200011322400d2bc2a00820978005f
:105b6000810978001063880010002000e3c1200044
:105b700011322400d2bc2a00820978008109780001
:105b80002061880090402000e3c1200011322400f1
:105b9000d2bc2a008209780081097800206288003e
:105ba00090c12000e3c1200011322400d2bc2a00a1
:105bb00082097800810978002063880010002000a5
:105bc0003061880010002000306288001000200042
:105bd0003063880000fa20004061880000fa20004d
:105be0004062880000fa2000406388002a2cef0001
:105bf0004a2cef006a2cef002c2cef004c2cef000d
:105c00006c2cef00322cef00522cef00722cef00c6
:105c1000342cef00542cef00742cef003a2cef00e2
:105c20005a2cef007a2cef003c2cef005c2cef009c
:105c30007c2cef003e2cef005e2cef007e2cef0062
:105c4000002cef000080fa00000006000000fa00bf
:105c50000080fa00000006000000fa0031408000d9
:105c600000202000008060000000e0000200320000
:105c7000f6ff07000728a9000080fa0000000600d0
:105c80000000fa000080fa00000006000000fa00a0
:105c90003140800000202000008060000000e00013
:105ca00002003200f6ff07000bc8a9000080fa00ce
:105cb000000006000000fa000080fa000000060064
:105cc0000000fa00314080000020200000806000c9
:105cd0000000e00002003200f6ff07000be8a90018
:105ce0000080fa00000006000000fa000080fa00c0
:105cf000000006000000fa00314080000020200073
:105d0000008060000000e00002003200f6ff0700a3
:105d10000c08a9000080fa00000006000000fa004c
:105d2000003a80000080fa00000006000200fa003d
:105d3000faff0700000f78001e007800240007001b
:105d40000004e0000200320000002800710007009b
:105d50001e0078002a0007000004e0000200320064
:105d6000000024006b0007001e00780032000700ce
:105d70000004e0000200320000202000650007005f
:105d80001e0078003a0007000004e0000200320024
:105d9000000820005f0007001e0078004200070096
:105da0000004e00002003200000420005900070057
:105db0001e0078004a0007000004e00002003200e4
:105dc00000012000530007000080fa0000000600d8
:105dd0000400fa00100798000040eb00004f780024
:105de0001e0090000000e00002003d0010c0b30063
:105df000004f78001e4078000080fa000000060086
:105e00000400fa00100798000040eb00004f7800f3
:105e10009e00900000002400008060000000e00070
:105e20000200320010c0b300004f78001e4078001e
:105e30000080fa00000006000400fa001007980035
:105e40000040eb00004f78009e00900000202000f2
:105e5000008060000000e0000200320010c0b300cb
:105e6000004f78001e4078000080fa000000060015
:105e70000400fa00100798000040eb00004f780083
:105e80009e00900000082000008060000000e000fc
:105e90000200320010c0b300004f78001e407800ae
:105ea0000080fa00000006000400fa0010079800c5
:105eb0000040eb00004f78009e009000000420009e
:105ec000008060000000e0000200320010c0b3005b
:105ed000004f78001e4078000080fa0000000600a5
:105ee0000400fa00100798000040eb00004f780013
:105ef0001e009000700060000000e0000200320010
:105f000010c0b300004f78001e4078000080fa00f7
:105f1000000006000200fa00000f78009e80ea00f0
:105f2000003a800000806000003a88000080fa009b
:105f3000000006000000fa004027ef000080fa0091
:045f40000000060057
:020000040000fa
:105f44000000fe00c2142100001978000109780045
:105f5400000006000000fe000000eb008000eb00e3
:105f6400f8ff07002e27ef00000006000000fe00e7
:105f74000000fe00801f7800811f7800821f7800d7
:105f8400c114210012468000c3e8a9003100780042
:105f940070398800110078007039880029e7a8005a
:105fa400000000000000000029e7af00feff3700fa
:105fb40002f0a700c3e8a8004f017800cf007800e2
:105fc4004f007800000006000000fe00a2028000de
:105fd400a10288009080ba001000ba00a2028800d2
:105fe400000006000000fe00a2028000a10288005a
:105ff4001000ba00a2028800000006000000fe00a3
:10600400f27f20000001610008003a003200240001
:10601400423988005039880061398800bc2f020059
:10602400000000001000200029a7af00000020009d
:10603400000006000000fe0029e7af00feff370065
:106044000000a700130037000010a700110037005c
:1060540061398800503988001000240040398800d4
:10606400a0028000a10f2000a102880001002000ee
:106074008208bb008398bb008408bb008598bb00e2
:10608400bc2f020000000000a002880010002000c5
:1060940029a7af0000002000000006000000fe0059
:1060a40029e7af00feff37000000a7001400370007
:1060b4000010a700120037006139880050398800a9
:1060c400a10280001000240040398800a00f2000a5
:1060d400a0028800000020000208bb00f20f20008c
:1060e4000298bb000308bb000298bb00bc2f02004f
:1060f40000000000a10288001000200029a7af00c2
:106104000000200000000600f27f20000000610073
:106114000000060002802f0000006100f2ff2f0043
:0861240081006100000006008b
:020000040000fa
:10612c000000fa000021ef00106c27001008880016
:10613c000000280020088800c08780000000e000d4
:10614c0002003a00e00e2300240007000068a900ba
:10615c002068a800401521008040eb000148780021
:10616c000080fa00000006000200fa00000f780020
:10617c009e00780011088800401521008040eb003b
:10618c00014878000080fa00000006000000fa00c8
:10619c00100880000080fa00000006000200fa00df
:1061ac00000f78009e00780001088800401521003f
:1061bc008040eb00014878000080fa0000000600e7
:1061cc000000fa00000880000080fa0000000600c1
:1061dc000000fa000080fa00000006000200fa003d
:1061ec00000f78002068a9009e007800c187880005
:1061fc002068a8000080fa00000006000000fa00e9
:10620c00401521008040eb00014878002068a80070
:10621c0005e1a8000080fa00000006000000fa006a
:10622c0005e1a9002068a9000080fa000000060022
:10623c000200fa0040152100104f78001e40780033
:10624c000004e00003003200401521008040eb0008
:10625c00014878001e4078000080fa00000006001b
:10626c000000fa0050152100104078000080fb005f
:10627c000080fa00000006000000fa005015210012
:10628c008040eb00014878000080fa000000060016
:10629c000000fa000621ef00f012200060088800d0
:1062ac000000280080088800d08780000000e000f3
:1062bc0002003a00601a23002400070000e8a9003d
:1062cc0020e8a800601521008040eb000148780010
:1062dc000080fa00000006000200fa00000f7800af
:1062ec009e00780061088800601521008040eb005a
:1062fc00014878000080fa00000006000000fa0057
:10630c00600880000080fa00000006000200fa001d
:10631c00000f78009e00780031088800601521007d
:10632c008040eb00014878000080fa000000060075
:10633c000000fa00300880000080fa00000006001f
:10634c000000fa000080fa00000006000200fa00cb
:10635c00000f780020e8a9009e007800d187880003
:10636c0020e8a8000080fa00000006000000fa00f7
:10637c00601521008040eb000148780020e8a8005f
:10638c0011e1a8000080fa00000006000000fa00ed
:10639c0011e1a90020e8a9000080fa000000060025
:1063ac000200fa0060152100104f78001e407800a2
:1063bc000004e00003003200601521008040eb0077
:1063cc00014878001e4078000080fa0000000600aa
:1063dc000000fa0070152100104078000080fb00ce
:1063ec000080fa00000006000000fa007015210081
:1063fc008040eb00014878000080fa0000000600a5
:10640c000000fa000a21ef00007f2e0070088800bf
:10641c000003280090088800f08780000000e0004e
:10642c0002003a00e0252300240007000108a9001f
:10643c002108a800801521008040eb00014878005d
:10644c000080fa00000006000200fa00000f78003d
:10645c009e00780071088800801521008040eb00b8
:10646c00014878000080fa00000006000000fa00e5
:10647c00700880000080fa00000006000200fa009c
:10648c00000f78009e0078005108880080152100cc
:10649c008040eb00014878000080fa000000060004
:1064ac000000fa00500880000080fa00000006008e
:1064bc000000fa000080fa00000006000200fa005a
:1064cc00000f78002108a9009e007800f187880051
:1064dc002108a8000080fa00000006000000fa0065
:1064ec00801521008040eb00014878002108a800ad
:1064fc0013e1a8000080fa00000006000000fa007a
:10650c0013e1a9002108a9000080fa000000060090
:10651c000200fa0080152100104f78001e40780010
:10652c000004e00003003200801521008040eb00e5
:10653c00014878001e4078000080fa000000060038
:10654c000000fa0090152100104078000080fb003c
:10655c000080fa00000006000000fa0090152100ef
:10656c008040eb00014878000080fa000000060033
:020000040000fa
:10657c004c1100000400000082000000ffffff002f
:10658c00ff0000002c110000200000008000000023
:10659c00f61000000200000082000000ffff000067
:1065ac00541100000200000080000000f8100000f0
:1065bc0002000000800000005611000002000000e4
:1065cc0080000000fa1000000200000080000000b3
:1065dc00fc100000020000008000000058110000b8
:1065ec000200000080000000fe100000020000000d
:1065fc0080000000001100002c0000008000000052
:10660c00d61000000c000000820000001e000a00e2
:10661c00001e00002d0010002701000000100000db
:10662c00b800000080000000b81000001e00000040
:10663c0080000000f2100000040000008200000046
:10664c000101010000000000ec1000000600000039
:10665c0080000000501100000400000080000000c9
:10666c00e21000000a0000008000000000000000a2
:020000040000fa
:10667c000000fa0040002800001988002223ef00d7
:10668c0090102000201988002823ef002e23ef0003
:10669c003023ef003223ef002623ef00c035230018
:1066ac00050007000080fa00000006000000fa0058
:1066bc000080fa00000006000200fa00000f7800cb
:1066cc001e007800e08788000080fa0000000600b9
:1066dc000000fa00014080000000220000806000f1
:1066ec000000e00006003200e08780000000e000bf
:1066fc0002003200e08780000000010001a8a90020
:10670c000080fa00000006000200fa00000f78007a
:10671c0021028000200f2000008060001e0070000d
:10672c00200288000080fa00000006000000fa0039
:10673c00c3e8a80000000000000000000080fa0080
:10674c00000006000000fa000c0007003f000700e4
:10675c00f5f10700c6ff070029ff0700ddfc070065
:10676c00cbfe07006efe0700f0ff070000022000c2
:10677c00e5ff07000080fa00000006000000fa00a8
:10678c00042eef00142eef00242eef00f031200029
:10679c000070880030072000807088007003200093
:1067ac00007188000c2eef001c2eef002c2eef0039
:1067bc000a2eef001a2eef002a2eef00062eef0005
:1067cc00162eef00262eef0030012000707088008e
:1067dc0010002000f07088003000200070718800dc
:1067ec000080fa00000006000000fa00e00e210014
:1067fc0060878800e040230078fe07000080fa00e4
:10680c00000006000000fa000080fa0000000600fc
:10681c000000fa00708780008187800061004000d2
:10682c00e080480070878800818788000080fa002b
:10683c00000006000000fa006087800090009000c5
:10684c00100078000080fa00000006000000fa003a
:10685c002142800080ff2f00008060000000a0001b
:10686c002042880011428000f0ff28000080600068
:10687c0000c0a0001042880001428000f0ff2800f8
:10688c000080600000c0a000004288000080fa0078
:10689c00000006000200fa00000f78009e0078004d
:1068ac00b1878800ffff37000000fa00c0122100fa
:1068bc008007780040142100000188000080fa0055
:0468cc0000000600c2
:020000040000fa
:020000040002f8
:04afe000ceff0000a0
:020000040000fa
:020000040002f8
:04afe400ffff00006b
:020000040000fa
:020000040002f8
:04afe8007fff0000e7
:020000040000fa
:020000040002f8
:04afec007bff0000e7
:020000040000fa
:020000040002f8
:04aff00078ff0000e6
:020000040000fa
:020000040002f8
:04aff400ffffff005c
:00000001FF
