:020000040000fa
:080000000002040000000000f2
:020000040000fa
:0400080012030000df
:020000040000fa
:04000c005403000099
:020000040000fa
:04001000b403000035
:020000040000fa
:0400140032030000b3
:020000040000fa
:04001800740300006d
:020000040000fa
:04001c009403000049
:020000040000fa
:04002000d403000005
:020000040000fa
:04002400a204000032
:020000040000fa
:04002800a20400002e
:020000040000fa
:04002c00a20400002a
:020000040000fa
:04003000a204000026
:020000040000fa
:0400340000040000c4
:020000040000fa
:04003800a20400001e
:020000040000fa
:04003c00a20400001a
:020000040000fa
:04004000a204000016
:020000040000fa
:04004400360400007e
:020000040000fa
:040048006c04000044
:020000040000fa
:04004c00a20400000a
:020000040000fa
:04005000a204000006
:020000040000fa
:04005400a204000002
:020000040000fa
:04005800a2040000fe
:020000040000fa
:04005c00a2040000fa
:020000040000fa
:04006000a2040000f6
:020000040000fa
:04006400a2040000f2
:020000040000fa
:04006800a2040000ee
:020000040000fa
:04006c00a2040000ea
:020000040000fa
:04007000a2040000e6
:020000040000fa
:04007400a2040000e2
:020000040000fa
:04007800a2040000de
:020000040000fa
:04007c00a2040000da
:020000040000fa
:04008000a2040000d6
:020000040000fa
:04008400a2040000d2
:020000040000fa
:04008800a2040000ce
:020000040000fa
:04008c00a2040000ca
:020000040000fa
:04009000a2040000c6
:020000040000fa
:04009400a2040000c2
:020000040000fa
:04009800a2040000be
:020000040000fa
:04009c00a2040000ba
:020000040000fa
:0400a000a2040000b6
:020000040000fa
:0400a400a2040000b2
:020000040000fa
:0400a800a2040000ae
:020000040000fa
:0400ac00a2040000aa
:020000040000fa
:0400b000a2040000a6
:020000040000fa
:0400b400a2040000a2
:020000040000fa
:0400b800a20400009e
:020000040000fa
:0400bc00a20400009a
:020000040000fa
:0400c000a204000096
:020000040000fa
:0400c400a204000092
:020000040000fa
:0400c800a20400008e
:020000040000fa
:0400cc00a20400008a
:020000040000fa
:0400d000a204000086
:020000040000fa
:0400d400a204000082
:020000040000fa
:0400d800a20400007e
:020000040000fa
:0400dc00a20400007a
:020000040000fa
:0400e000a204000076
:020000040000fa
:0400e400a204000072
:020000040000fa
:0400e800a20400006e
:020000040000fa
:0400ec00a20400006a
:020000040000fa
:0400f000a204000066
:020000040000fa
:0400f400a204000062
:020000040000fa
:0400f800a20400005e
:020000040000fa
:0400fc00a20400005a
:020000040000fa
:04010000a204000055
:020000040000fa
:04010400a204000051
:020000040000fa
:04010800a20400004d
:020000040000fa
:04010c00a204000049
:020000040000fa
:04011000a204000045
:020000040000fa
:04011400a204000041
:020000040000fa
:04011800a20400003d
:020000040000fa
:04011c00a204000039
:020000040000fa
:04012000a204000035
:020000040000fa
:04012400a204000031
:020000040000fa
:04012800a20400002d
:020000040000fa
:04012c00a204000029
:020000040000fa
:04013000a204000025
:020000040000fa
:04013400a204000021
:020000040000fa
:04013800a20400001d
:020000040000fa
:04013c00a204000019
:020000040000fa
:04014000a204000015
:020000040000fa
:04014400a204000011
:020000040000fa
:04014800a20400000d
:020000040000fa
:04014c00a204000009
:020000040000fa
:04015000a204000005
:020000040000fa
:04015400a204000001
:020000040000fa
:04015800a2040000fd
:020000040000fa
:04015c00a2040000f9
:020000040000fa
:04016000a2040000f5
:020000040000fa
:04016400a2040000f1
:020000040000fa
:04016800a2040000ed
:020000040000fa
:04016c00a2040000e9
:020000040000fa
:04017000a2040000e5
:020000040000fa
:04017400a2040000e1
:020000040000fa
:04017800a2040000dd
:020000040000fa
:04017c00a2040000d9
:020000040000fa
:04018000a2040000d5
:020000040000fa
:04018400a2040000d1
:020000040000fa
:04018800a2040000cd
:020000040000fa
:04018c00a2040000c9
:020000040000fa
:04019000a2040000c5
:020000040000fa
:04019400a2040000c1
:020000040000fa
:04019800a2040000bd
:020000040000fa
:04019c00a2040000b9
:020000040000fa
:0401a000a2040000b5
:020000040000fa
:0401a400a2040000b1
:020000040000fa
:0401a800a2040000ad
:020000040000fa
:0401ac00a2040000a9
:020000040000fa
:0401b000a2040000a5
:020000040000fa
:0401b400a2040000a1
:020000040000fa
:0401b800a20400009d
:020000040000fa
:0401bc00a204000099
:020000040000fa
:0401c000a204000095
:020000040000fa
:0401c400a204000091
:020000040000fa
:0401c800a20400008d
:020000040000fa
:0401cc00a204000089
:020000040000fa
:0401d000a204000085
:020000040000fa
:0401d400a204000081
:020000040000fa
:0401d800a20400007d
:020000040000fa
:0401dc00a204000079
:020000040000fa
:0401e000a204000075
:020000040000fa
:0401e400a204000071
:020000040000fa
:0401e800a20400006d
:020000040000fa
:0401ec00a204000069
:020000040000fa
:0401f000a204000065
:020000040000fa
:0401f400a204000061
:020000040000fa
:0401f800a20400005d
:020000040000fa
:0401fc00a204000059
:020000040000fa
:04020000a204000054
:020000040000fa
:04020400a204000050
:020000040000fa
:04020800a20400004c
:020000040000fa
:04020c00a204000048
:020000040000fa
:04021000a204000044
:020000040000fa
:04021400a204000040
:020000040000fa
:04021800a20400003c
:020000040000fa
:04021c00a204000038
:020000040000fa
:04022000a204000034
:020000040000fa
:04022400a204000030
:020000040000fa
:04022800a20400002c
:020000040000fa
:04022c00a204000028
:020000040000fa
:04023000a204000024
:020000040000fa
:04023400a204000020
:020000040000fa
:04023800a20400001c
:020000040000fa
:04023c00a204000018
:020000040000fa
:04024000a204000014
:020000040000fa
:04024400a204000010
:020000040000fa
:04024800a20400000c
:020000040000fa
:04024c00a204000008
:020000040000fa
:04025000a204000004
:020000040000fa
:04025400a204000000
:020000040000fa
:04025800a2040000fc
:020000040000fa
:04025c00a2040000f8
:020000040000fa
:04026000a2040000f4
:020000040000fa
:04026400a2040000f0
:020000040000fa
:04026800a2040000ec
:020000040000fa
:04026c00a2040000e8
:020000040000fa
:04027000a2040000e4
:020000040000fa
:04027400a2040000e0
:020000040000fa
:04027800a2040000dc
:020000040000fa
:04027c00a2040000d8
:020000040000fa
:04028000a2040000d4
:020000040000fa
:10040000cf1521000eff24000e018800000000001f
:10041000000020000000e000020032000001200087
:100420002002880014000700480107000000e000d7
:1004300003003a00e02b23000100200002003700f7
:100440000000200001002000810f70000100320038
:100450000f000700000020000000e0000200320052
:100460000000020000000000b8340200000000009c
:100470000040da000000fe00402020000000e00004
:1004800002003200002020009001880000000600d9
:10049000a1028800800478000000eb001f003700f4
:1004a000e284440054a0b4009905ba00e2844400f8
:1004b00054a0b4009906ba00e284440054a0b400e9
:1004c0000006eb00476fde00fd07b200ae018800ba
:1004d000636ce10003003a000ad801000000eb0061
:1004e0000e003700606ce10008003a00004deb00a0
:1004f0000a05e800020039003420ec000af0a000f0
:100500008b05e900f9ff3e00040037006168e10057
:10051000010032000086eb000b00070019c7ba008b
:100520000e04e0001905ba0003003a000a00e000da
:10053000dbff3a0000000600fe07b200ae028800b2
:100540008a047800f5ff37000cd0a300e20f4d00bd
:100550001c00390089027800354dba000a05e80010
:10056000020039003420ec000af0a0008b05e900fd
:100570000f003200254dba000a05e80002003900dc
:100580003420ec000af0a0008b05e90008003200de
:100590000c00e0000600320015cdba000a05e800a4
:1005a000020039003420ec000af0a0008b05e900bd
:1005b0008984e80054a0b4000b00e000e2ff3a0098
:1005c000000006009902ba00055d78008b05e9007d
:1005d000f7ff3200c82ade00055d78008b05e900d0
:1005e000f3ff32000c00e000f1ff320019ddba0029
:1005f000eeff3700ee30040000000000a6310400da
:1006000000000000ac330400000000005e32040073
:100610000000000080080400000000005e340400b8
:10062000000000003600f800809fbe00829fbe00e0
:10063000849fbe00869fbe000000fa00c028a9006b
:100640000000eb00be1807000080fa004f03be0058
:100650004f02be004f01be004f00be003600f90041
:10066000004006003600f800809fbe00829fbe005a
:10067000849fbe00869fbe000000fa00b5180700e8
:10068000c048a90010002000ad1807000080fa0043
:100690004f03be004f02be004f01be004f00be0020
:1006a0003600f900004006003600f800809fbe00ca
:1006b000829fbe00849fbe00869fbe000000fa009d
:1006c000c068a900200020009d1807000080fa00e3
:1006d0004f03be004f02be004f01be004f00be00e0
:1006e0003600f900004006003600f800809fbe008a
:1006f000829fbe00849fbe00869fbe000000fa005d
:10070000c088a900300020008d1807000080fa0082
:100710004f03be004f02be004f01be004f00be009f
:100720003600f900004006003600f800809fbe0049
:10073000829fbe00849fbe00869fbe000000fa001c
:10074000c0a8a900400020007d1807000080fa0022
:100750004f03be004f02be004f01be004f00be005f
:100760003600f900004006003600f800809fbe0009
:10077000829fbe00849fbe00869fbe000000fa00dc
:10078000c608a900700020006d1807000080fa005c
:100790004f03be004f02be004f01be004f00be001f
:1007a0003600f900004006003600f800809fbe00c9
:1007b000829fbe00849fbe00869fbe000000fa009c
:1007c0002146800000022000008060000000e00060
:1007d00003003200c4a8a9009000200058180700a8
:1007e00020468000700060000000e000030032003e
:1007f000c488a900a000200051180700ffff37009f
:100800003600f800809fbe00829fbe00849fbe001d
:10081000869fbe000000fa00d08780000000e00044
:1008200002003200d0878000000001007015210016
:10083000104078008040e8007015210001487800e1
:100840006015210011c0b300014878000068a900bc
:100850000080fa004f03be004f02be004f01be00f1
:100860004f00be003600f900004006003600f800d8
:10087000809fbe00829fbe00849fbe00869fbe00f8
:100880000000fa00e08780000000e0000200320073
:10089000e0878000000001009015210010407800e2
:1008a0008040e80090152100014878008015210063
:1008b00011c0b3000148780000e8a9000080fa00e8
:1008c0004f03be004f02be004f01be004f00be00ee
:1008d0003600f900004006003600f800809fbe0098
:1008e000829fbe00849fbe00869fbe000000fa006b
:1008f000008880000000e0000200320000888000d4
:1009000000000100b0152100104078008040e80090
:10091000b015210001487800a015210011c0b300d6
:10092000014878000108a9000080fa004f03be00ca
:100930004f02be004f01be004f00be003600f9005e
:10094000004006000040da000000fe000000050044
:100950006011b80000003700889fbe008a9fbe006b
:1009600000827000040271000482710026003200cf
:100970000004be000200be006011b8006b09200038
:10098000950220000182cf000a0039000541b10024
:100990000082cf00070039000541b1000982cf0075
:1009a000040039000541b1000882cf000100390080
:1009b0000541b10005425200120032000a003b001e
:1009c00082817100610164008100d1000080d30048
:1009d0008984d3000884d3008b05e8000442e80032
:1009e000f7ff3a00070037000804440089844c00f0
:1009f00000004800818048008b05e9000442e900be
:100a0000f9ff3a00030007004f05be004f04be0087
:100a10000000060081002000618055000b003d00b1
:100a20000b00200061fe2f000100e1001d003400da
:100a300082817100610164008904d1000884d300bf
:100a40000000e800faff3a00710020006100640035
:100a500003007000020060000900320061044400dd
:100a6000e0844c000988a500050032008b05e800f1
:100a70006808e10002003a008904d1000884d3002c
:100a8000f20f20000258e10005003d00c75ddd00c7
:100a9000f907b200898075000800780000000600a0
:0c0aa0000bf827008b0078000000050018
:020000040000fa
:100aac0001000000200000003f0000005e0000007c
:100abc007d0000009c000000bb000000da0000007c
:100acc00f900000018010000370100005601000079
:100adc007501000094010000b3010000d201000078
:100aec00f1010000100200002f0200004e02000075
:100afc006d0200008c020000ab020000ca02000074
:100b0c00e902000008030000270300004603000070
:100b1c006503000084030000a3030000c20300006f
:100b2c00e1030000000400001f0400003e0400006c
:100b3c005d0400007c0400009b040000ba0400006b
:100b4c00d9040000f8040000170500003605000069
:100b5c00550500007405000093050000b205000067
:100b6c00d1050000f00500000f0600002e06000065
:100b7c004d0600006c0600008b060000aa06000063
:100b8c00c9060000e8060000070700002607000061
:100b9c00450700006407000083070000a20700005f
:100bac00c1070000e0070000ff0700001e0800005e
:100bbc003d0800005c0800007b0800009a0800005b
:100bcc00b9080000d8080000f7080000160900005a
:100bdc003509000054090000730900009209000057
:100bec00b1090000d0090000ef0900000e0a000056
:100bfc002d0a00004c0a00006b0a00008a0a000053
:100c0c00a90a0000c80a0000e70a0000060b000051
:100c1c00250b0000440b0000630b0000820b00004e
:100c2c00a10b0000c00b0000df0b0000fe0b00004e
:100c3c001d0c00003c0c00005b0c00007a0c00004a
:100c4c00990c0000b80c0000d70c0000f60c00004a
:100c5c00150d0000340d0000530d0000720d000046
:100c6c00910d0000b00d0000cf0d0000ee0d000046
:100c7c000d0e00002c0e00004b0e00006a0e000042
:100c8c00890e0000a80e0000c70e0000e60e000042
:100c9c00050f0000240f0000430f0000620f00003e
:100cac00810f0000a00f0000810f0000620f0000f8
:100cbc00430f0000240f0000050f0000e60e00009b
:100ccc00c70e0000a80e0000890e00006a0e00007e
:100cdc004b0e00002c0e00000d0e0000ee0d00005f
:100cec00cf0d0000b00d0000910d0000720d000042
:100cfc00530d0000340d0000150d0000f60c000023
:100d0c00d70c0000b80c0000990c00007a0c000005
:100d1c005b0c00003c0c00001d0c0000fe0b0000e6
:100d2c00df0b0000c00b0000a10b0000820b0000c9
:100d3c00630b0000440b0000250b0000060b0000a9
:100d4c00e70a0000c80a0000a90a00008a0a00008d
:100d5c006b0a00004c0a00002d0a00000e0a00006d
:100d6c00ef090000d0090000b10900009209000051
:100d7c007309000054090000350900001609000031
:100d8c00f7080000d8080000b90800009a08000015
:100d9c007b0800005c0800003d0800001e080000f5
:100dac00ff070000e0070000c1070000a2070000d9
:100dbc0083070000640700004507000026070000b9
:100dcc0007070000e8060000c9060000aa0600009c
:100ddc008b0600006c0600004d0600002e0600007d
:100dec000f060000f0050000d1050000b205000060
:100dfc009305000074050000550500003605000041
:100e0c0017050000f8040000d9040000ba04000023
:100e1c009b0400007c0400005d0400003e04000004
:100e2c001f04000000040000e1030000c2030000e6
:100e3c00a3030000840300006503000046030000c8
:100e4c002703000008030000e9020000ca020000aa
:100e5c00ab0200008c0200006d0200004e0200008c
:100e6c002f02000010020000f1010000d20100006e
:100e7c00b301000094010000750100005601000050
:100e8c003701000018010000f9000000da00000032
:100e9c00bb0000009c0000007d0000005e00000014
:080eac003f00000020000000df
:020000040000fa
:100eb4000000fa0001eca8000080fa00000006001f
:100ec4000400fa00000f7800110798001e00780053
:100ed400e20f500007003200e30f50000800320018
:100ee400e10f50000a003a009e0090003161880032
:100ef400080037009e00900031628800050037002a
:100f04009e0090003163880000000000010037005b
:100f1400000000000080fa00000006000000fa0053
:100f240021e3a8000080fa00000006000000fa0097
:100f340021e3a9000080fa00000006000000fa0086
:100f44002023a8000080fa00000006000000fa0038
:100f54002023a9000080fa00000006000200fa0025
:100f6400000f78001e007800e10f50000d003200e1
:100f7400e10f500005003900e20f50000f0032006d
:100f8400e30f5000130032001600370041198000af
:100f940000fe2f00008060000010a00040198800af
:100fa400100037004119800000fe2f00008060000f
:100fb4006000b300401988000a003700411980001e
:100fc40000fe2f0000806000e001b300401988009b
:100fd4000400370040198000f001b3004019880074
:100fe400000000000080fa00000006000400fa007f
:100ff400100798001e009000e30f500003003e000d
:1010040001188000010f7800010037000000000083
:101014001e0078000080fa00000006000400fa00b8
:1010240010079800001980000040780061406000bb
:101034000080fb0000f0a7000000ea000000ea00c6
:101044004f00de00004f78001e4078000080fa0058
:10105400000006000800fa002007980031079800f5
:101064006000b800008fbe001c160700008fbe0091
:1010740000000000191607003e015000ae81580020
:101084002e009000be009000800f5100818f590007
:10109400f8ff39000080fa00000006000800fa009a
:1010a40030079800202e2e00000f7800100020003a
:1010b400100798009e0090003e0090008088b900c0
:1010c4009e00780000017800110009008280d80099
:1010d4000000e900200798000621ef00ae00900010
:1010e40061088800000028008008880000e8a90042
:1010f40020e8a8000080fa00000006000000fa00c2
:1011040000d0bf000004e00004003200e08680004c
:101114008000780010c0b300e91007000080fa00d6
:10112400000006000000fa000080fa00000006003b
:101134000000fa00b4d0bf000080fb00e20f5000b2
:1011440018003200e20f500005003c000000e000ef
:101154000a003200e10f50000e0032006400370034
:10116400e40f500023003200e40f5000110035005a
:10117400e50f5000590032005d00370067ff07009b
:101184001000200075ff070010c0b300b4f0b700d2
:101194005700370069ff070020c0b300b4f0b70060
:1011a4005300370069ff070030c0b300b4f0b70044
:1011b4004f0037001000200098ff07000004e000f3
:1011c4000300320040c0b300b4f0b7004800370059
:1011d400b08580000000e800b0858800b0858000fc
:1011e400e20f50004100360050c0b300b4f0b70025
:1011f4003f003700100020007cff0700608188005a
:1012040061818000501f2000808f50002f003e001d
:10121400608180000000e0002c003200c085800066
:101224000000e800c0858800c0858000e20f5000ff
:1012340027003600b830ef000370ef000430ef00f1
:10124400e10d210091407800d0c2b30080cf50005e
:1012540003003a000040eb00fb0407000f003700d6
:10126400e10d210091407800c0c3b30080cf50004d
:1012740003003a000040eb006f040700070037004a
:10128400e10d210091407800b0c4b30080cf50003c
:1012940002003a000040eb00e30307000070ef0097
:1012a4007f1007008000eb001000200004ff0700ff
:1012b4008000eb002000200001ff07008000eb000d
:1012c40030002000fefe070001003700b830ef00b8
:1012d40050c0b300b4f0b7000500370013ff070097
:1012e400b470ef00000000000100370000000000af
:1012f4000080fa00000006000000fa00aed0bf0033
:101304000080fb00e20f500018003200e20f500092
:1013140005003c000000e0000a003200e10f50002c
:101324000e00320061003700e40f50002300320049
:10133400e40f500011003500e50f50005600320054
:101344005a003700f5fe07000000eb0003ff07001a
:1013540010c0b300aef0b70054003700f7fe07002a
:1013640020c0b300aef0b70050003700f7fe07000e
:1013740030c0b300aef0b7004c0037000000eb0003
:1013840026ff07000004e0000300320040c0b30061
:10139400aef0b70045003700808580000000e8000b
:1013a4008085880080858000e20f50003e00360072
:1013b40050c0b300aef0b7003c0037000000eb00b3
:1013c4000aff0700808188008181800000042000da
:1013d400808f50002c003600908580000000e800cb
:1013e4009085880090858000e20f50002700360029
:1013f400b230ef000370ef000430ef00e10d210084
:1014040091407800d0c2b30080cf500003003a006e
:101414000040eb008c0407000f003700e10d2100b1
:1014240091407800c0c3b30080cf500003003a005d
:101434000040eb000004070007003700e10d210025
:1014440091407800b0c4b30080cf500002003a004d
:101454000040eb00740307000070ef001010070059
:101464008000eb001000200095fe07008000eb00d8
:101474002000200092fe07008000eb0030002000d6
:101484008ffe070001003700b230ef0050c0b300f8
:10149400aef0b70005003700a4fe0700ae70ef0001
:1014a4000000000001003700000000000080fa0086
:1014b400000006000000fa00881f780000002200e7
:1014c40001102000131307007080880081808800b9
:1014d40050052000a10a20009a12070070808000a5
:1014e40081808000c612070012f0b70030808000af
:1014f4008000eb007088880081888800408080002c
:101504008000eb0090888800a188880050808000cb
:101514008000eb00b0888800c1888800608080006b
:101524008000eb00d0888800e188880092888000e1
:10153400a388800070888000818880007680800085
:10154400878080000202be000001be000600be00cb
:10155400b912070012f0b70012d0bf000084fb00dc
:10156400d2888000e3888000b0888000c188800031
:10157400748080008580800064034200e0834a0018
:101584000202be000001be000600be00aa1207004f
:101594000080fb000000640000f0a7000000ea00e7
:1015a4000000ea004f00de000040780012f0b700af
:1015b400691207004f0478000080fa00000006005a
:1015c4000000fa000000220001102000d1120700e0
:1015d4007080880081808800708080008180800015
:1015e4007a120700f08888000189880070808000e2
:1015f4008180800062004000e08048007312070090
:101604001089880021898800708080008180800092
:1016140064004000e08048006c12070030898800b4
:1016240041898800708080008180800066004000cd
:10163400e0804800651207005089880061898800ad
:101644000080fa00000006000000fa0030002000cc
:101654003080880030002000408088004000200056
:1016640050808800c0868000e0868800e51207006c
:1016740087140700281407008000eb0010002000e6
:101684000ffe07008000eb00200020000cfe070086
:101694008000eb003000200009fe070004fe070074
:1016a400008820002b130700321307000000eb0012
:1016b4005b0f0700207180004300de006140600082
:1016c4000004a200614060000080fb006100600033
:1016d4004300dd00217180000130a1000100700091
:1016e40020718800d0868000f012b000fc12070040
:1016f4000040eb001a0f0700007d200001002000cd
:1017040054fe0700146ea800650f0700012ea80000
:101714000500370010c0b300cb03070090818000a0
:101724000000e80090818800918180005009200029
:10173400808f5000f7ff36000040eb00c203070023
:101744000080fa00000006000000fa00c200070052
:10175400a20e070020102100104078000004e000d1
:101764000d003200201021008040eb000148780079
:10177400a430ef00308080000000e8003080880052
:101784003180800030062000808f50000200360037
:101794001000200030808800501407003085880035
:1017a4004185880032858000438580005085800013
:1017b40061858000000151008181590010002000e2
:1017c40001002000800f5100818f59001000360065
:1017d40030858000418580005085880061858800bf
:1017e4000040eb0014030700208580000000e8009f
:1017f400208588002185800000712200808f5000a0
:1018040003003600a430ef001370ef0029ff070037
:101814000080fa00000006000000fa008e000700b5
:1018240040808000640007006c0e07005010210007
:10183400104078000004e0000d0032005010210038
:101844008040eb00014878009a30ef00408080002f
:101854000000e800408088004180800030062000bd
:10186400808f500002003600100020004080880065
:101874001a140700e0848800f1848800e284800060
:10188400f3848000008580001185800000015100f0
:10189400818159001000200001002000800f5100b8
:1018a400818f59000e003600e0848000f1848000ae
:1018b4000085880011858800d08480000000e8003d
:1018c400d0848800d184800000712200808f500071
:1018d400030036009a30ef001470ef00f5fe0700a5
:1018e4000080fa00000006000000fa005a00070019
:1018f4005080800030000700380e0700801021005f
:10190400104078000004e0000d0032008010210037
:101914008040eb00014878009030ef005080800058
:101924000000e800508088005180800030062000cc
:10193400808f500002003600100020005080880084
:10194400e613070090848800a184880092848000b4
:10195400a3848000b0848000c18480000001510011
:10196400818159001000200001002000800f5100e7
:10197400818f59000e00360090848000a18480007d
:10198400b0848800c1848800808480000000e8005e
:10199400808488008184800000712200808f500040
:1019a400030036009030ef001570ef00c1fe070011
:1019b4000080fa00000006000200fa00000f780020
:1019c400c613070030848800418488003284800074
:1019d40043848000508480006184800000015100b1
:1019e40081815900c012200001002000800f5100a5
:1019f400818f5900160036003084800041848000b5
:101a040050848800618488008ed0bf000080fb0071
:101a14000000a20000f0a7000000ea000000ea00b5
:101a24004f00de00004078008ef0b7008ed0bf007b
:101a34000004e0000300320040c6b300480e070073
:101a4400030037001e00780000407800440e0700b1
:101a54000080fa00000006000000fa009f1307004f
:101a6400f083880001848800f2838000038480006e
:101a7400108480002184800000015100818159007c
:101a8400000a200001002000800f5100818f5900be
:101a940074003600f0838000018480001084880084
:101aa4002184880010708000640060000000e00061
:101ab4001b00320040102100104078008040e800f4
:101ac40040102100014878004010210010407800a7
:101ad400e24f500003003a002010210011c0b3006f
:101ae40001487800401021009040780040c6b300bf
:101af40080cf500010003a003010210011c0b30014
:101b040001487800201021008040eb000148780053
:101b14004010210081c6b300014878000600370058
:101b2400401021008040eb00014878002010210083
:101b34008040eb000148780010708000680060006d
:101b44000000e0001b0032007010210010407800fb
:101b54008040e800701021000148780070102100d6
:101b640010407800e24f500003003a00501021006a
:101b740011c0b30001487800701021009040780033
:101b840040c6b30080cf500010003a00601021001e
:101b940011c0b30001487800501021008040eb00d0
:101ba400014878007010210081c6b3000148780014
:101bb40006003700701021008040eb0001487800d7
:101bc400501021008040eb00014878001170800023
:101bd40000102000008060000000e0001b003200c4
:101be400a0102100104078008040e800a0102100df
:101bf40001487800a010210010407800e24f500006
:101c040003003a008010210011c0b300014878009d
:101c1400a01021009040780040c6b30080cf50004f
:101c240010003a009010210011c0b3000148780060
:101c3400801021008040eb0001487800a0102100b2
:101c440081c6b3000148780006003700a0102100c7
:101c54008040eb0001487800801021008040eb00b8
:101c6400014878000080fa00000006000000fa0035
:101c740020102100104078000004e0002000320011
:101c8400201021008040eb000148780003d0bf0001
:101c94000080fb000000a20000f0a7000000ea00a2
:101ca4000000ea004f00de000040780003f0b700b7
:101cb40003d0bf000004e00011003200144ea8005d
:101cc4006e0007000070ef0010002000d40d070024
:101cd40080b52100c0868800a0be2000d086880080
:101ce400c0868000e08688000170ef000270ef007b
:101cf4003080800020808800d0c2b300def0b700be
:101d040050102100104078000004e0002000320050
:101d1400501021008040eb000148780003d0bf0040
:101d24000080fb000000a20000f0a7000000ea0011
:101d34000000ea004f00de000040780003f0b70026
:101d440003d0bf000004e00011003200144ea800cc
:101d54004a0007000070ef0010002000b00d0700db
:101d640080b52100c086880080892000d086880044
:101d7400c0868000e08688000170ef000270ef00ea
:101d84004080800020808800c0c3b300def0b7002c
:101d940080102100104078000004e0002000320090
:101da400801021008040eb000148780003d0bf0080
:101db4000080fb000000a20000f0a7000000ea0081
:101dc4000000ea004f00de000040780003f0b70096
:101dd40003d0bf000004e00011003200144ea8003c
:101de400260007000070ef00100020008c0d070093
:101df40080b52100c0868800806b2000d0868800d2
:101e0400c0868000e08688000170ef000270ef0059
:101e14005080800020808800b0c4b300def0b7009a
:101e240030102100104078000004e000030032006c
:101e3400301021008040eb00014878006010210040
:101e4400104078000004e00003003200601021001c
:101e54008040eb0001487800901021001040780089
:101e64000004e00003003200901021008040eb00e9
:101e7400014878000080fa00000006000000fa0023
:101e840096120700d0808800e1808800d08080000e
:101e9400e1808000f0808800018188000080fa00e1
:101ea400000006000200fa00004f78008b120700c1
:101eb400d0808800e1808800d2808000e3808000a8
:101ec400f08080000181800000015100818159006f
:101ed400f0a52e0001002000800f5100818f5900d1
:101ee4000e003600d0808000e1808000f080880001
:101ef40001818800208080000000e90020808800a3
:101f040003d0bf000004e000040032002080800001
:101f14000000e00001003a000370ef000080fa00c6
:101f2400000006000000fa00ac0c0700cafe07001f
:101f3400020007000080fa00000006000200fa0018
:101f44000000eb00000f780048ff070020808000ad
:101f540000407800d3ff0700601207003083880038
:101f64004183880032838000438380005083800053
:101f740061838000000151008181590030062000f6
:101f840001002000800f5100818f590005003e00a0
:101f94003083800041838000e00f5000e08f5800c0
:101fa4005f003a00308380004183800050838800c2
:101fb40061838800d0fc070090708000620060009c
:101fc4000000e00021003200708380000000e8007f
:101fd4007083880070838000e40f50001c0036007a
:101fe4006e30ef000370ef000430ef00e10d2100cc
:101ff40091407800d0c2b30080cf500003003a0073
:102004000040eb009001070011003700e10d2100b2
:1020140091407800c0c3b30080cf500003003a0061
:102024000040eb000401070009003700e10d210026
:1020340091407800b0c4b30080cf500004003a004f
:102044000040eb0078000700010037006e30ef001d
:102054001170800000202000008060000000e0007b
:102064001f003a0010c0b30070f0b7007230ef00e8
:102074000370ef00a08380000000e800a0838800c4
:10208400a0838000e20f5000080036007430ef0097
:1020940076d0bf000004e000020032007670ef004a
:1020a4000200370010c0b30076f0b70076d0bf004e
:1020b4000004e000050032000040eb00a80c07001b
:1020c400460c0700246ea8000600370040c6b30083
:1020d400a30c0700410c0700246ea900010037007f
:1020e4007070ef0003d0bf000004e0000c00320069
:1020f400207180004300de00614060000004a20003
:10210400614060000080fb00610060004300dd006e
:10211400217180000130a10001007000207188004d
:1021240003d0bf000004a2000004e0001f0032003e
:10213400e10d210091407800d0c2b30080cf50005f
:1021440003003a000040eb003f0107000f00370096
:10215400e10d210091407800c0c3b30080cf50004e
:1021640003003a000040eb00b3000700070037000b
:10217400e10d210091407800b0c4b30080cf50003d
:1021840002003a000040eb002700070070d0bf00b7
:102194000004a2000004e000210032000040eb0033
:1021a4006f0c0700246ea8001d00370003d0bf0089
:1021b4000004e0001a003200e10d21009140780093
:1021c400d0c2b30080cf500003003a0010c0b30067
:1021d4001d0107000f003700e10d21009140780038
:1021e400c0c3b30080cf500003003a0010c0b30056
:1021f4009100070007003700e10d210091407800ad
:10220400b0c4b30080cf500002003a0010c0b30045
:10221400050007002080800000407800500c070073
:102224000080fa00000006000200fa00004f780067
:10223400aa110700b0828800c1828800b28280009f
:10224400c3828000d0828000e1828000800f510030
:10225400818f590005003a00b0828000c18280005d
:10226400e00f5000e08f580071003a00b082800007
:10227400c1828000d0828800e18288001e407800fc
:10228400e14f50003a003a0010c0b30000f0b7002c
:1022940001d0bf000004a2000004e0002f003200bf
:1022a400022cef00e105210091407800c0c2b30088
:1022b40080cf50000b003e00008380000000e80047
:1022c4000083880000838000f80f5000100036005f
:1022d4006030ef005ed0bf000040e8005ef0b70061
:1022e4000b003700008380000000e80000838800b2
:1022f40001838000a0042000808f50000400360079
:102304006030ef005ed0bf000040e8005ef0b70030
:102314005ed0bf003f010700e0868800e105210090
:1023240091407800a0c4b30080cf5000370036003d
:10233400b0c4b3005ef0b70010c0b30001f0b70042
:102344000270ef005ed0bf003201070000878800f2
:1023540000878000e08688002c003700b0c4b300fa
:102364002c010700e08688000270ef002700370088
:102374001e4078000004e00024003a00008380003e
:102384000000e8000083880000838000f80f5000fc
:10239400070036006030ef005ed0bf000040e90067
:1023a4005ef0b7005ed0bf001a010700e086880027
:1023b4005ed0bf00ea4f500014003e005e70ef0094
:1023c4006230ef006030ef00a0be2000e08688009d
:1023d4000170ef000070ef000270ef000370ef0077
:1023e4002f0c07008000eb0010002000b4fa070057
:1023f4008000eb0020002000b1fa07008000eb0011
:1024040030002000aefa0700144ea900218380009a
:10241400e0868000808f500005003200e086800056
:1024240020838800e0868000f012b000ac0f070023
:102434000080fa00000006000200fa00004f780055
:102444002611070030828800418288003282800091
:10245400438280005082800061828000800f51009e
:10246400818f590005003a0030828000418280004b
:10247400e00f5000e08f580071003a003082800075
:102484004182800050828800618288001e4078006a
:10249400e14f50003a003a0010c0b30000f0b7001a
:1024a40001d0bf000004a2000004e0002f003200ad
:1024b400022cef00e104210091407800c0c2b30077
:1024c40080cf50000b003e00808280000000e800b6
:1024d4008082880080828000f80f5000100036004f
:1024e4005030ef004ed0bf000040e8004ef0b7007f
:1024f4000b003700808280000000e80080828800a2
:1025040081828000a0042000808f500004003600e7
:102514005030ef004ed0bf000040e8004ef0b7004e
:102524004ed0bf00bb000700e0868800e104210014
:1025340091407800b0c3b30080cf5000370036001c
:10254400c0c3b3004ef0b70010c0b30001f0b70031
:102554000270ef004ed0bf00ae0007000087880075
:1025640000878000e08688002c003700c0c3b300d9
:10257400a8000700e08688000270ef0027003700fb
:102584001e4078000004e00024003a0080828000ad
:102594000000e8008082880080828000f80f5000ec
:1025a400070036005030ef004ed0bf000040e90075
:1025b4004ef0b7004ed0bf0096000700e0868800ba
:1025c4004ed0bf00ea4f500014003e004e70ef00a2
:1025d4005230ef005030ef00a0be2000e0868800ab
:1025e4000170ef000070ef000270ef000370ef0065
:1025f400ab0b07008000eb001000200030fa07004e
:102604008000eb00200020002dfa07008000eb0082
:10261400300020002afa0700144ea900a18280008d
:10262400e0868000808f500005003200e086800044
:10263400a0828800e0868000f012b000280f070016
:102644000080fa00000006000200fa00004f780043
:10265400a2100700b0818800c1818800b281800087
:10266400c3818000d0818000e1818000800f51000f
:10267400818f590005003a00b0818000c18180003b
:10268400e00f5000e08f580060003a00b0818000f5
:10269400c1818000d0818800e18188001e407800db
:1026a400e14f500029003a0010c0b30000f0b70019
:1026b40001d0bf000004a2000004e0001e003200ac
:1026c400022cef00f08180000000e800f081880017
:1026d400f0818000f80f5000040036003e30ef0017
:1026e40040d0bf000040e80040f0b70040d0bf0039
:1026f40048000700e086880001042100914078002a
:10270400c0c2b30080cf500037003600d0c2b3003f
:1027140040f0b70010c0b30001f0b7000270ef0042
:1027240040d0bf003b00070000878800008780007e
:10273400e08688002c003700d0c2b30035000700c3
:10274400e08688000270ef00270037001e40780002
:102754000004e00024003a00f08180000000e8005a
:10276400f0818800f0818000f80f500007003600e7
:102774003e30ef0040d0bf000040e90040f0b70019
:1027840040d0bf0023000700e086880040d0bf008f
:10279400ea4f500014003e004070ef004230ef005a
:1027a4003e30ef00a0be2000e08688000170ef00fc
:1027b4000070ef000270ef000370ef00380b0700a9
:1027c4008000eb0010002000bdf907008000eb0042
:1027d40020002000baf907008000eb003000200040
:1027e400b7f90700144ea90021828000e08680001a
:1027f400808f500005003200e0868000208288002f
:10280400e0868000f012b000b50e07000080fa00e8
:10281400000006000200fa00004f78001e40780015
:10282400e14f500003003e0000c32500a081880052
:10283400e70137001e407800e24f500003003a00e1
:1028440080842500a0818800e10137001e407800c3
:10285400e34f500003003a0000462500a0818800a1
:10286400db0137001e407800e44f500003003a00bb
:1028740080072500a0818800d50137001e4078001c
:10288400e54f500003003a0000c92400a0818800ed
:10289400cf0137001e407800e64f500003003a0095
:1028a400808a2400a0818800c90137001e40780076
:1028b400e74f500003003a00001a2400a08188006a
:1028c400c30137001e407800e84f500003003a006f
:1028d400006b2300a0818800bd0137001e407800f2
:1028e400e94f500003003a00400d2300a081880006
:1028f400b70137001e407800ea4f500003003a0049
:1029040000a32200a0818800b10137001e40780096
:10291400eb4f500003003a0000712200a0818800b0
:10292400ab0137001e407800ec4f500003003a0022
:1029340080322200a0818800a50137001e40780063
:10294400ed4f500003003a0040132200a08188009c
:102954009f0137001e407800ee4f500003003a00fc
:1029640000f42100a0818800990137001e407800fe
:10297400ef4f500003003a00c0d42100a08188002a
:10298400930137001e407800f04f500003003a00d6
:1029940080b52100a08188008d0137001e40780099
:1029a400f14f500003003a0040962100a0818800b6
:1029b400870137001e407800f24f500003003a00b0
:1029c40080832100a0818800810137001e407800a7
:1029d400f34f500003003a00c0702100a08188002a
:1029e4007b0137001e407800f44f500003003a008a
:1029f400005e2100a0818800750137001e40780028
:102a0400f54f500003003a0000452100a0818800e2
:102a14006f0137001e407800f64f500003003a0063
:102a240080382100a0818800690137001e407800a9
:102a3400f74f500003003a00002c2100a0818800c9
:102a4400630137001e407800f84f500003003a003d
:102a5400801f2100a08188005d0137001e4078009e
:102a6400f94f500003003a00c00c2100a0818800f7
:102a7400570137001e407800fa4f500003003a0017
:102a840040052100a0818800510137001e407800d4
:102a9400fb4f500003003a0000fa2000a081880098
:102aa4004b0137001e407800fc4f500003003a00f1
:102ab400c0f32000a0818800450137001e40780043
:102ac400fd4f500003003a0040e72000a081880039
:102ad4003f0137001e407800fe4f500003003a00cb
:102ae400c0da2000a0818800390137001e40780038
:102af400ff4f500003003a00a0d72000a0818800b7
:102b04003301370000c2b3009e40780080cf5000ec
:102b140003003a0060d12000a08188002c01370016
:102b240010c2b3009e40780080cf500003003a00ea
:102b340020cb2000a08188002501370020c2b300eb
:102b44009e40780080cf500003003a00e0c420008b
:102b5400a08188001e01370030c2b3009e40780077
:102b640080cf500003003a00a0be2000a08188005e
:102b74001701370040c2b3009e40780080cf500058
:102b840003003a0060b82000a081880010013700db
:102b940050c2b3009e40780080cf500003003a003a
:102ba40020b22000a08188000901370060c2b30070
:102bb4009e40780080cf500003003a00e0ab200034
:102bc400a08188000201370070c2b3009e407800e3
:102bd40080cf500003003a00c0a82000a0818800e4
:102be400fb00370080c2b3009e40780080cf5000c5
:102bf40003003a00a0a52000a0818800f40037005b
:102c040090c2b3009e40780080cf500003003a0089
:102c1400609f2000a0818800ed003700a0c2b300af
:102c24009e40780080cf500003003a00009b2000b3
:102c3400a0818800e6003700b0c2b3009e4078004f
:102c440080cf500003003a0080982000a0818800c3
:102c5400df003700c0c2b3009e40780080cf500030
:102c640003003a00c0942000a0818800d8003700f7
:102c7400d0c2b3009e40780080cf500003003a00d9
:102c8400c08f2000a0818800d1003700e0c2b300cb
:102c94009e40780080cf500003003a00a08c2000b2
:102ca400a0818800ca003700f0c2b3009e407800bb
:102cb40080cf500003003a0080892000a081880062
:102cc400c300370000c3b3009e40780080cf50009b
:102cd40003003a0060862000a0818800bc00370011
:102ce40010c3b3009e40780080cf500003003a0028
:102cf40040832000a0818800b500370020c3b300c2
:102d04009e40780080cf500003003a0020802000cd
:102d1400a0818800ae00370030c3b3009e40780025
:102d240080cf500003003a00007d2000a08188007d
:102d3400a700370040c3b3009e40780080cf500006
:102d440003003a00e0792000a0818800a000370049
:102d540050c3b3009e40780080cf500003003a0077
:102d6400a0782000a08188009900370060c3b300d8
:102d74009e40780080cf500003003a00c0762000c7
:102d8400a08188009200370070c3b3009e40780091
:102d940080cf500003003a0000732000a081880017
:102da4008b00370080c3b3009e40780080cf500072
:102db40003003a0080702000a0818800840037005e
:102dc40090c3b3009e40780080cf500003003a00c7
:102dd400606d2000a08188007d003700a0c3b3008f
:102de4009e40780080cf500003003a00206c200001
:102df400a081880076003700b0c3b3009e407800fd
:102e040080cf500003003a00406a2000a08188006f
:102e14006f003700c0c3b3009e40780080cf5000dd
:102e240003003a0020672000a08188006800370072
:102e3400d0c3b3009e40780080cf500003003a0016
:102e4400e0652000a081880061003700e0c3b30082
:102e54009e40780080cf500003003a0000642000b8
:102e6400a08188005a003700f0c3b3009e40780068
:102e740080cf500003003a00c0622000a081880087
:102e84005300370000c4b3009e40780080cf500048
:102e940003003a00e0602000a08188004c00370065
:102ea40010c4b3009e40780080cf500003003a0065
:102eb400c05d2000a08188004500370020c4b30015
:102ec4009e40780080cf500003003a00805c2000d0
:102ed400a08188003e00370030c4b3009e407800d3
:102ee40080cf500003003a00a05a2000a08188003f
:102ef4003700370040c4b3009e40780080cf5000b4
:102f040003003a0060592000a08188003000370097
:102f140050c4b3009e40780080cf500003003a00b4
:102f2400c0582000a08188002900370060c4b30085
:102f34009e40780080cf500003003a00e056200005
:102f4400a08188002200370070c4b3009e4078003e
:102f540080cf500003003a0060542000a081880014
:102f64001b00370080c4b3009e40780080cf50001f
:102f740003003a0080522000a0818800140037002a
:102f840090c4b3009e40780080cf500003003a0004
:102f940040512000a08188000d003700a0c4b30078
:102fa4009e40780080cf500003003a00005020007b
:102fb400a081880006003700a0c4b3009e407800ba
:102fc40080cf500002003600204e2000a0818800ef
:102fd400a1818000104e2000808f500002003c0030
:102fe400204e2000a0818800a08180000080fa008b
:042ff40000000600d3
:020000040000fa
:1030000000000000000000000000000000000000c0
:1030100000000000000000000000000000000000b0
:1030200000000000000000000000000000000000a0
:103030000000000000000000000000000000000090
:020000040000fa
:020000040000fa
:105000000000fa0014eea800150ea800152ea80046
:1050100024cea80024eea800250ea800252ea90065
:105020000080fa00000006000000fa0014eea9005b
:10503000150ea800152ea80024cea90024eea90064
:10504000250ea900252ea9000080fa000000060008
:105050000000fa0014eea800150ea800152ea900f5
:1050600024cea80024eea800250ea900252ea80015
:105070000080fa00000006000000fa0014eea8000c
:10508000150ea800152ea80024cea80024eea90015
:10509000250ea900252ea8000080fa0000000600b9
:1050a0000000fa0014eea900150ea800152ea800a5
:1050b00024cea90024eea900250ea800252ea800c4
:1050c0000080fa00000006000000fa0014eea800bc
:1050d000150ea900152ea80024cea80024eea900c4
:1050e000250ea800252ea8000080fa00000006006a
:1050f0000000fa0014eea800150ea900152ea80055
:1051000024cea80024eea800250ea800252ea80075
:105110000080fa00000006000000fa0014eea8006b
:10512000150ea800152ea80024cea90024eea90073
:10513000250ea900252ea9000080fa000000060017
:105140000000fa0014eea800150ea800152ea80005
:1051500024cea80024eea800250ea800252ea80025
:105160000080fa00000006000000fa0014eea8001b
:10517000150ea800152ea80024cea80024eea90024
:10518000250ea800252ea8000080fa0000000600c9
:105190000000fa0014eea900150ea900152ea900b2
:1051a00024cea90024eea900250ea900252ea900d1
:1051b0000080fa00000006000000fa0014eea900ca
:1051c000150ea900152ea90024cea90024eea900d1
:1051d000250ea900252ea8000080fa000000060078
:1051e0000200fa0020878000318780004087880015
:1051f00051878800ecd0bf000004e00008003200b6
:1052000004eea900054ea90004eea800054ea90071
:105210002015210010407800edf0b700060037009f
:1052200004eea900054ea900054ea8003015210086
:1052300010407800edf0b700401521009040780054
:1052400040c6b30080cf500002003a00d0ff0700f4
:105250002e003700401521009040780080ccb3002c
:1052600080cf500002003a00d3ff0700270037002c
:10527000edd0bf000080fb00cf80de009200200058
:1052800003002000820f5000838f58001f003e0053
:1052900000060100090037000a0037000b00370044
:1052a0000c0037000d0037000e0037000f003700ec
:1052b00010003700110037001200370050ff0700c0
:1052c0001200370058ff07001000370060ff07008a
:1052d0000e00370068ff07000c00370070ff070062
:1052e0000a00370078ff07000800370080ff07003a
:1052f0000600370088ff07000400370090ff070012
:105300000200370098ff070000000000ecd0bf004b
:105310000080fb000000a20000f0a7000000ea00ef
:105320000000ea004f00de0000407800ecf0b7001b
:1053300097ff07000000eb00000f78000000eb0073
:10534000000f7800010037001e0fe8003006200033
:105350009e007800808f5000fbff34000080fa0030
:10536000000006000400fa002047980040152100c4
:10537000ae409000014878002e4090008080fb00f5
:10538000d0cc2c000008b8004308de008040780034
:1053900020152100014878002e4090000081fb007c
:1053a000d0cc2c000010b8004308de00ea00b900a1
:1053b000000051008040780030152100014878003d
:1053c0000080fa00000006000400fa00000f7800d8
:1053d000110798001e007800e20f5000070032000d
:1053e000e30f500008003200e10f50000a003a00bd
:1053f0009e00900031618800080037009e009000f8
:1054000031628800050037009e00900031638800fb
:105410000000000001003700000000000080fa00da
:10542000000006000200fa00000f78009e007800dd
:10543000d18588001e0078000000e00005003200e1
:1054400010c0b300c2f0b700c370ef00c470ef002b
:1054500003003700c270ef00c370ef00c470ef00ac
:10546000c630ef0010c0b300f4f0b700c870ef0012
:10547000ca30ef0010c0b300f5f0b700cc70ef00f9
:10548000ce30ef0010c0b300f6f0b70080a72000c8
:10549000f085880080a72000008688000080fa0040
:1054a000000006000000fa00d070ef00d170ef009d
:1054b000d270ef00d370ef00d470ef000080fa00dc
:1054c000000006001400fa0000579800110f980021
:1054d0001e0890008000eb001ded0700008fbe004d
:1054e000d0d0bf000080fb00800040006055280045
:1054f000008040001000780020079800d1d0bf0045
:105500000080fb00800040006055280000804000c3
:105510001000780030079800d2d0bf000080fb0058
:105520008000400060552800008040001000780096
:1055300040079800ae00900051079800be00900010
:1055400061079800ce00900071079800de0090007f
:10555000100020009cff0700ee00900020002000bb
:1055600099ff0700fe0090003000200096ff070022
:10557000d0d0bf000040e800d0f0b700010d2100fe
:105580009140780040c5b30080cf50000200360043
:1055900010c0b300d3f0b700110d21009140780086
:1055a00040c5b30080cf50000200360010c0b300e9
:1055b000d4f0b700d3d0bf000004e00003003200f5
:1055c000d1d0bf000040e800d1f0b700d4d0bf0078
:1055d0000004e00003003200d2d0bf000040e80029
:1055e000d2f0b7000080fa00000006000200fa00c6
:1055f000004f7800f4d0bf000004e0000d0032003e
:10560000308680008002b0003086880031868000bd
:10561000f0f92000808f50000f00360000fa2000c3
:105620003086880010c0b300c8f0b700f470ef00f7
:1056300009003700308680008002b1003086880083
:10564000308680000000e00003003a00c630ef0022
:1056500010c0b300f4f0b7003086800080007800fe
:105660001000200058ff07000080fa00000006002c
:105670000200fa00004f7800f5d0bf000004e000ff
:105680000d003200508680008002b00050868800f5
:1056900051868000f0f92000808f50000f00360006
:1056a00000fa20005086880010c0b300ccf0b7008c
:1056b000f570ef0009003700508680008002b100cd
:1056c00050868800508680000000e00003003a0009
:1056d000ca30ef0010c0b300f5f0b700508680006c
:1056e000800078002000200037ff07000080fa00cb
:1056f000000006000200fa00004f7800f6d0bf005c
:105700000004e0000b003200708680008002b000d0
:105710007086880071868000f0f92000808f50002c
:105720000d00360000fa200070868800f670ef0049
:1057300009003700708680008002b1007086880002
:10574000708680000000e00003003a00ce30ef00d9
:1057500010c0b300f6f0b7007086800080007800bb
:105760003000200018ff07000080fa00000006004b
:105770000000fa00ffff37000000fa00ffff3700cb
:105780002600fa00881f7800008021000110200008
:1057900061020700008fbe0050052000a10a200012
:1057a000e90107001e0078009e0090001502070026
:1057b000404798004e4090000004a2000004e00022
:1057c00001003200eaff070030232200110120000f
:1057d00030079800410798006056250041042000da
:1057e0005007980061079800c0bc2b00a10a200058
:1057f00070079800010f9800f0ef2e00d10d2000e7
:10580000100f9800210f98005e019000ee019000ab
:105810003e009000ce0090000202be000001be00db
:105820001e0078009e009000040207004047980088
:105830004e4090000084fb001e099000ae099000cd
:105840007e0090008e08900044002000050020009b
:105850003e034200ae834a000202be000001be00c9
:105860000600be00f50107000080fb000000640098
:1058700000f0a7000000ea000000ea004f00de0090
:10588000404798004e4090000004a2000004e00051
:1058900001003200b6ff0700b00107001e007800cb
:1058a0009e009000ca010700300f9800410f980039
:1058b00022002000030020003e004100ae8049008d
:1058c000c3010700500f9800610f980044002000aa
:1058d000050020003e004200ae804a00bc010700e7
:1058e000700f98000117980062002000030020004c
:1058f0003e004100ae804900b50107001017980036
:10590000211798003e019000ce0190003e089000c3
:10591000ce089000800f5100818f590015003a0089
:105920005e019000ee0190005e089000ee0890008d
:10593000800f5100818f59000e003a007e019000c7
:105940008e0990007e0890008e109000800f51000c
:10595000818f590007003a001e099000ae0990009f
:105960001e109000ae109000800f5100818f5900e2
:105970000100320080ff07004f0478000080fa0029
:10598000000006000e00fa00008021000110200037
:10599000e10107002007980031079800500520001a
:1059a000a10a2000680107002e009000be009000b0
:1059b00094010700004f98000e4890000004a200d8
:1059c0000004e0000100320069ff07006000b80039
:1059d000008fbe00170037002400200005002000c3
:1059e0003e014200ae814a002e009000be009000b1
:1059f0003e024000ae8248000400be000202be002b
:105a00001e0178009e0190008c010700004f980055
:105a10000e4890000004a2000004e00001003200e3
:105a200053ff070042002000030020001e0f41002a
:105a30005e974900f07f2000010020001e017800e1
:105a40009e019000800f5100818f5900e2ff3600c7
:105a5000420107006000b800008fbe00120037004e
:105a60002e009000be0090003e024000ae82480032
:105a70000400be0056010700500798006107980017
:105a80005e009000ee009000be0f5000ae8f5800f8
:105a90000100320038ff0700220020000300200030
:105aa0001e0f41005e974900f07f2000010020009a
:105ab0001e0178009e019000800f5100818f5900d7
:105ac000e7ff36000080fa00000006000000fa0040
:105ad0002bff0700abff07000080fa000000060064
:105ae0000000fa00022cef00042cef00062cef005f
:105af0000a2cef001a2cef001e2cef0000282000cb
:105b00000061880000282000006288000028200032
:105b100000638800800a2c00e3c1200011322400b9
:105b2000d2bc2a00820978008109780010618800bf
:105b3000800a2c00e3c1200011322400d2bc2a00cc
:105b4000820978008109780010628800800a2c00a0
:105b5000e3c1200011322400d2bc2a00820978005f
:105b6000810978001063880010002000e3c1200044
:105b700011322400d2bc2a00820978008109780001
:105b80002061880090402000e3c1200011322400f1
:105b9000d2bc2a008209780081097800206288003e
:105ba00090c12000e3c1200011322400d2bc2a00a1
:105bb00082097800810978002063880010002000a5
:105bc0003061880010002000306288001000200042
:105bd0003063880000fa20004061880000fa20004d
:105be0004062880000fa2000406388002a2cef0001
:105bf0004a2cef006a2cef002c2cef004c2cef000d
:105c00006c2cef00322cef00522cef00722cef00c6
:105c1000342cef00542cef00742cef003a2cef00e2
:105c20005a2cef007a2cef003c2cef005c2cef009c
:105c30007c2cef003e2cef005e2cef007e2cef0062
:105c4000002cef000080fa00000006000000fa00bf
:105c50000080fa00000006000000fa0031408000d9
:105c600000202000008060000000e0000200320000
:105c7000f6ff07000728a9000080fa0000000600d0
:105c80000000fa000080fa00000006000000fa00a0
:105c90003140800000202000008060000000e00013
:105ca00002003200f6ff07000bc8a9000080fa00ce
:105cb000000006000000fa000080fa000000060064
:105cc0000000fa00314080000020200000806000c9
:105cd0000000e00002003200f6ff07000be8a90018
:105ce0000080fa00000006000000fa000080fa00c0
:105cf000000006000000fa00314080000020200073
:105d0000008060000000e00002003200f6ff0700a3
:105d10000c08a9000080fa00000006000000fa004c
:105d2000003a80000080fa00000006000200fa003d
:105d3000faff0700000f78001e007800240007001b
:105d40000004e0000200320000002800710007009b
:105d50001e0078002a0007000004e0000200320064
:105d6000000024006b0007001e00780032000700ce
:105d70000004e0000200320000202000650007005f
:105d80001e0078003a0007000004e0000200320024
:105d9000000820005f0007001e0078004200070096
:105da0000004e00002003200000420005900070057
:105db0001e0078004a0007000004e00002003200e4
:105dc00000012000530007000080fa0000000600d8
:105dd0000400fa00100798000040eb00004f780024
:105de0001e0090000000e00002003d0010c0b30063
:105df000004f78001e4078000080fa000000060086
:105e00000400fa00100798000040eb00004f7800f3
:105e10009e00900000002400008060000000e00070
:105e20000200320010c0b300004f78001e4078001e
:105e30000080fa00000006000400fa001007980035
:105e40000040eb00004f78009e00900000202000f2
:105e5000008060000000e0000200320010c0b300cb
:105e6000004f78001e4078000080fa000000060015
:105e70000400fa00100798000040eb00004f780083
:105e80009e00900000082000008060000000e000fc
:105e90000200320010c0b300004f78001e407800ae
:105ea0000080fa00000006000400fa0010079800c5
:105eb0000040eb00004f78009e009000000420009e
:105ec000008060000000e0000200320010c0b3005b
:105ed000004f78001e4078000080fa0000000600a5
:105ee0000400fa00100798000040eb00004f780013
:105ef0001e009000700060000000e0000200320010
:105f000010c0b300004f78001e4078000080fa00f7
:105f1000000006000200fa00000f78009e80ea00f0
:105f2000003a800000806000003a88000080fa009b
:105f3000000006000000fa004027ef000080fa0091
:045f40000000060057
:020000040000fa
:105f44000000fe00e2142100001978000109780025
:105f5400000006000000fe000000eb008000eb00e3
:105f6400f8ff07002e27ef00000006000000fe00e7
:105f74000000fe00801f7800811f7800821f7800d7
:105f8400e114210012468000c3e8a9003100780022
:105f940070398800110078007039880029e7a8005a
:105fa400000000000000000029e7af00feff3700fa
:105fb40002f0a700c3e8a8004f017800cf007800e2
:105fc4004f007800000006000000fe00a2028000de
:105fd400a10288009080ba001000ba00a2028800d2
:105fe400000006000000fe00a2028000a10288005a
:105ff4001000ba00a2028800000006000000fe00a3
:10600400f27f20000001610008003a003200240001
:10601400423988005039880061398800bc2f020059
:10602400000000001000200029a7af00000020009d
:10603400000006000000fe0029e7af00feff370065
:106044000000a700130037000010a700110037005c
:1060540061398800503988001000240040398800d4
:10606400a0028000a10f2000a102880001002000ee
:106074008208bb008398bb008408bb008598bb00e2
:10608400bc2f020000000000a002880010002000c5
:1060940029a7af0000002000000006000000fe0059
:1060a40029e7af00feff37000000a7001400370007
:1060b4000010a700120037006139880050398800a9
:1060c400a10280001000240040398800a00f2000a5
:1060d400a0028800000020000208bb00f20f20008c
:1060e4000298bb000308bb000298bb00bc2f02004f
:1060f40000000000a10288001000200029a7af00c2
:106104000000200000000600f27f20000000610073
:106114000000060002802f0000006100f2ff2f0043
:0861240081006100000006008b
:020000040000fa
:10612c000000fa000021ef00106c27001008880016
:10613c000000280020088800d08780000000e000c4
:10614c0002003a00e00e2300240007000068a900ba
:10615c002068a800601521008040eb000148780001
:10616c000080fa00000006000200fa00000f780020
:10617c009e00780011088800601521008040eb001b
:10618c00014878000080fa00000006000000fa00c8
:10619c00100880000080fa00000006000200fa00df
:1061ac00000f78009e00780001088800601521001f
:1061bc008040eb00014878000080fa0000000600e7
:1061cc000000fa00000880000080fa0000000600c1
:1061dc000000fa000080fa00000006000200fa003d
:1061ec00000f78002068a9009e007800d1878800f5
:1061fc002068a8000080fa00000006000000fa00e9
:10620c00601521008040eb00014878002068a80050
:10621c0005e1a8000080fa00000006000000fa006a
:10622c0005e1a9002068a9000080fa000000060022
:10623c000200fa0060152100104f78001e40780013
:10624c000004e00003003200601521008040eb00e8
:10625c00014878001e4078000080fa00000006001b
:10626c000000fa0070152100104078000080fb003f
:10627c000080fa00000006000000fa0070152100f2
:10628c008040eb00014878000080fa000000060016
:10629c000000fa000621ef00f012200060088800d0
:1062ac000000280080088800e08780000000e000e3
:1062bc0002003a00601a23002400070000e8a9003d
:1062cc0020e8a800801521008040eb0001487800f0
:1062dc000080fa00000006000200fa00000f7800af
:1062ec009e00780061088800801521008040eb003a
:1062fc00014878000080fa00000006000000fa0057
:10630c00600880000080fa00000006000200fa001d
:10631c00000f78009e00780031088800801521005d
:10632c008040eb00014878000080fa000000060075
:10633c000000fa00300880000080fa00000006001f
:10634c000000fa000080fa00000006000200fa00cb
:10635c00000f780020e8a9009e007800e1878800f3
:10636c0020e8a8000080fa00000006000000fa00f7
:10637c00801521008040eb000148780020e8a8003f
:10638c0011e1a8000080fa00000006000000fa00ed
:10639c0011e1a90020e8a9000080fa000000060025
:1063ac000200fa0080152100104f78001e40780082
:1063bc000004e00003003200801521008040eb0057
:1063cc00014878001e4078000080fa0000000600aa
:1063dc000000fa0090152100104078000080fb00ae
:1063ec000080fa00000006000000fa009015210061
:1063fc008040eb00014878000080fa0000000600a5
:10640c000000fa000a21ef00007f2e0070088800bf
:10641c000003280090088800008880000000e0003d
:10642c0002003a00e0252300240007000108a9001f
:10643c002108a800a01521008040eb00014878003d
:10644c000080fa00000006000200fa00000f78003d
:10645c009e00780071088800a01521008040eb0098
:10646c00014878000080fa00000006000000fa00e5
:10647c00700880000080fa00000006000200fa009c
:10648c00000f78009e00780051088800a0152100ac
:10649c008040eb00014878000080fa000000060004
:1064ac000000fa00500880000080fa00000006008e
:1064bc000000fa000080fa00000006000200fa005a
:1064cc00000f78002108a9009e0078000188880040
:1064dc002108a8000080fa00000006000000fa0065
:1064ec00a01521008040eb00014878002108a8008d
:1064fc0013e1a8000080fa00000006000000fa007a
:10650c0013e1a9002108a9000080fa000000060090
:10651c000200fa00a0152100104f78001e407800f0
:10652c000004e00003003200a01521008040eb00c5
:10653c00014878001e4078000080fa000000060038
:10654c000000fa00b0152100104078000080fb001c
:10655c000080fa00000006000000fa00b0152100cf
:10656c008040eb00014878000080fa000000060033
:020000040000fa
:10657c004e1100000400000082000000ffffff002d
:10658c00ff0000002e110000200000008000000021
:10659c00f81000000200000082000000ffff000065
:1065ac00561100000200000080000000fa100000ec
:1065bc0002000000800000005811000002000000e2
:1065cc0080000000fc1000000200000080000000b1
:1065dc00fe10000002000000800000005a110000b4
:1065ec00020000008000000000110000020000000a
:1065fc0080000000021100002c0000008000000050
:10660c00d81000000c000000820000001e000a00e0
:10661c00001e00002d0010002701000000100000db
:10662c00ba00000080000000ba1000001e0000003c
:10663c0080000000f4100000040000008200000044
:10664c000101010000000000ee1000000600000037
:10665c0080000000521100000400000080000000c7
:10666c00e41000000a0000008000000000000000a0
:020000040000fa
:10667c000000fa0000002300203a88004827ef00b1
:10668c004e27ef00f0012000303a88006027ef0021
:10669c006227ef006427ef006627ef006a27ef0000
:1066ac006c27ef001200200080072000a1092000b9
:1066bc003374200080497800814978008249780041
:1066cc0012002000600420007105200023742000bb
:1066dc0080497800814978008249780000000000e8
:1066ec00103a8000610060000000e000fcff3a00fe
:1066fc0000000000113a80000002200000806000c1
:10670c000000e000fbff32000080fa0000000600f1
:10671c000000fa0040002800001988002223ef0036
:10672c0090102000201988002823ef002e23ef0062
:10673c003023ef003223ef002623ef00c03a230072
:10674c00050007000080fa00000006000000fa00b7
:10675c000080fa00000006000200fa00000f78002a
:10676c001e007800f08788000080fa000000060008
:10677c000000fa0001408000000022000080600050
:10678c000000e00006003200f08780000000e0000e
:10679c0002003200f08780000000010001a8a9006f
:1067ac000080fa00000006000200fa00000f7800da
:1067bc0021028000200f2000008060001e0070006d
:1067cc00200288000080fa00000006000000fa0099
:1067dc00c3e8a80000000000000000000080fa00e0
:1067ec00000006000000fa000c0007003f00070044
:1067fc009fff0700c6ff070001ff0700b5fc07005d
:10680c00a3fe070046fe0700f0ff07000002200071
:10681c00e5ff07000080fa00000006000000fa0007
:10682c00042eef00142eef00242eef00f031200088
:10683c0000708800300720008070880070032000f2
:10684c00007188000c2eef001c2eef002c2eef0098
:10685c000a2eef001a2eef002a2eef00062eef0064
:10686c00162eef00262eef003001200070708800ed
:10687c0010002000f070880030002000707188003b
:10688c000080fa00000006000000fa00000f210052
:10689c0070878800e045230050fe07000080fa0056
:1068ac00000006000000fa000080fa00000006005c
:1068bc000000fa0080878000918780006100400012
:1068cc00e080480080878800918788000080fa006b
:1068dc00000006000000fa00708780009000900015
:1068ec00100078000080fa00000006000000fa009a
:1068fc002142800080ff2f00008060000000a0007b
:10690c002042880011428000f0ff280000806000c7
:10691c0000c0a0001042880001428000f0ff280057
:10692c000080600000c0a000004288000080fa00d7
:10693c00000006000200fa00000f78009e007800ac
:10694c00c1878800ffff37000000fa00e012210029
:10695c008007780060142100000188000080fa0094
:10696c00000006000000fa009eff070034eb070051
:08697c006aed0700feff370081
:020000040000fa
:020000040002f8
:04afe000ceff0000a0
:020000040000fa
:020000040002f8
:04afe400ffff00006b
:020000040000fa
:020000040002f8
:04afe8007fff0000e7
:020000040000fa
:020000040002f8
:04afec007bff0000e7
:020000040000fa
:020000040002f8
:04aff00078ff0000e6
:020000040000fa
:020000040002f8
:04aff400ffffff005c
:00000001FF
