:020000040000fa
:080000000002040000000000f2
:020000040000fa
:0400080012030000df
:020000040000fa
:04000c005403000099
:020000040000fa
:04001000b403000035
:020000040000fa
:0400140032030000b3
:020000040000fa
:04001800740300006d
:020000040000fa
:04001c009403000049
:020000040000fa
:04002000d403000005
:020000040000fa
:04002400a204000032
:020000040000fa
:04002800a20400002e
:020000040000fa
:04002c00a20400002a
:020000040000fa
:04003000a204000026
:020000040000fa
:0400340000040000c4
:020000040000fa
:04003800a20400001e
:020000040000fa
:04003c00a20400001a
:020000040000fa
:04004000a204000016
:020000040000fa
:04004400360400007e
:020000040000fa
:040048006c04000044
:020000040000fa
:04004c00a20400000a
:020000040000fa
:04005000a204000006
:020000040000fa
:04005400a204000002
:020000040000fa
:04005800a2040000fe
:020000040000fa
:04005c00a2040000fa
:020000040000fa
:04006000a2040000f6
:020000040000fa
:04006400a2040000f2
:020000040000fa
:04006800a2040000ee
:020000040000fa
:04006c00a2040000ea
:020000040000fa
:04007000a2040000e6
:020000040000fa
:04007400a2040000e2
:020000040000fa
:04007800a2040000de
:020000040000fa
:04007c00a2040000da
:020000040000fa
:04008000a2040000d6
:020000040000fa
:04008400a2040000d2
:020000040000fa
:04008800a2040000ce
:020000040000fa
:04008c00a2040000ca
:020000040000fa
:04009000a2040000c6
:020000040000fa
:04009400a2040000c2
:020000040000fa
:04009800a2040000be
:020000040000fa
:04009c00a2040000ba
:020000040000fa
:0400a000a2040000b6
:020000040000fa
:0400a400a2040000b2
:020000040000fa
:0400a800a2040000ae
:020000040000fa
:0400ac00a2040000aa
:020000040000fa
:0400b000a2040000a6
:020000040000fa
:0400b400a2040000a2
:020000040000fa
:0400b800a20400009e
:020000040000fa
:0400bc00a20400009a
:020000040000fa
:0400c000a204000096
:020000040000fa
:0400c400a204000092
:020000040000fa
:0400c800a20400008e
:020000040000fa
:0400cc00a20400008a
:020000040000fa
:0400d000a204000086
:020000040000fa
:0400d400a204000082
:020000040000fa
:0400d800a20400007e
:020000040000fa
:0400dc00a20400007a
:020000040000fa
:0400e000a204000076
:020000040000fa
:0400e400a204000072
:020000040000fa
:0400e800a20400006e
:020000040000fa
:0400ec00a20400006a
:020000040000fa
:0400f000a204000066
:020000040000fa
:0400f400a204000062
:020000040000fa
:0400f800a20400005e
:020000040000fa
:0400fc00a20400005a
:020000040000fa
:04010000a204000055
:020000040000fa
:04010400a204000051
:020000040000fa
:04010800a20400004d
:020000040000fa
:04010c00a204000049
:020000040000fa
:04011000a204000045
:020000040000fa
:04011400a204000041
:020000040000fa
:04011800a20400003d
:020000040000fa
:04011c00a204000039
:020000040000fa
:04012000a204000035
:020000040000fa
:04012400a204000031
:020000040000fa
:04012800a20400002d
:020000040000fa
:04012c00a204000029
:020000040000fa
:04013000a204000025
:020000040000fa
:04013400a204000021
:020000040000fa
:04013800a20400001d
:020000040000fa
:04013c00a204000019
:020000040000fa
:04014000a204000015
:020000040000fa
:04014400a204000011
:020000040000fa
:04014800a20400000d
:020000040000fa
:04014c00a204000009
:020000040000fa
:04015000a204000005
:020000040000fa
:04015400a204000001
:020000040000fa
:04015800a2040000fd
:020000040000fa
:04015c00a2040000f9
:020000040000fa
:04016000a2040000f5
:020000040000fa
:04016400a2040000f1
:020000040000fa
:04016800a2040000ed
:020000040000fa
:04016c00a2040000e9
:020000040000fa
:04017000a2040000e5
:020000040000fa
:04017400a2040000e1
:020000040000fa
:04017800a2040000dd
:020000040000fa
:04017c00a2040000d9
:020000040000fa
:04018000a2040000d5
:020000040000fa
:04018400a2040000d1
:020000040000fa
:04018800a2040000cd
:020000040000fa
:04018c00a2040000c9
:020000040000fa
:04019000a2040000c5
:020000040000fa
:04019400a2040000c1
:020000040000fa
:04019800a2040000bd
:020000040000fa
:04019c00a2040000b9
:020000040000fa
:0401a000a2040000b5
:020000040000fa
:0401a400a2040000b1
:020000040000fa
:0401a800a2040000ad
:020000040000fa
:0401ac00a2040000a9
:020000040000fa
:0401b000a2040000a5
:020000040000fa
:0401b400a2040000a1
:020000040000fa
:0401b800a20400009d
:020000040000fa
:0401bc00a204000099
:020000040000fa
:0401c000a204000095
:020000040000fa
:0401c400a204000091
:020000040000fa
:0401c800a20400008d
:020000040000fa
:0401cc00a204000089
:020000040000fa
:0401d000a204000085
:020000040000fa
:0401d400a204000081
:020000040000fa
:0401d800a20400007d
:020000040000fa
:0401dc00a204000079
:020000040000fa
:0401e000a204000075
:020000040000fa
:0401e400a204000071
:020000040000fa
:0401e800a20400006d
:020000040000fa
:0401ec00a204000069
:020000040000fa
:0401f000a204000065
:020000040000fa
:0401f400a204000061
:020000040000fa
:0401f800a20400005d
:020000040000fa
:0401fc00a204000059
:020000040000fa
:04020000a204000054
:020000040000fa
:04020400a204000050
:020000040000fa
:04020800a20400004c
:020000040000fa
:04020c00a204000048
:020000040000fa
:04021000a204000044
:020000040000fa
:04021400a204000040
:020000040000fa
:04021800a20400003c
:020000040000fa
:04021c00a204000038
:020000040000fa
:04022000a204000034
:020000040000fa
:04022400a204000030
:020000040000fa
:04022800a20400002c
:020000040000fa
:04022c00a204000028
:020000040000fa
:04023000a204000024
:020000040000fa
:04023400a204000020
:020000040000fa
:04023800a20400001c
:020000040000fa
:04023c00a204000018
:020000040000fa
:04024000a204000014
:020000040000fa
:04024400a204000010
:020000040000fa
:04024800a20400000c
:020000040000fa
:04024c00a204000008
:020000040000fa
:04025000a204000004
:020000040000fa
:04025400a204000000
:020000040000fa
:04025800a2040000fc
:020000040000fa
:04025c00a2040000f8
:020000040000fa
:04026000a2040000f4
:020000040000fa
:04026400a2040000f0
:020000040000fa
:04026800a2040000ec
:020000040000fa
:04026c00a2040000e8
:020000040000fa
:04027000a2040000e4
:020000040000fa
:04027400a2040000e0
:020000040000fa
:04027800a2040000dc
:020000040000fa
:04027c00a2040000d8
:020000040000fa
:04028000a2040000d4
:020000040000fa
:10040000ef1521000eff24000e01880000000000ff
:10041000000020000000e000020032000001200087
:100420002002880014000700480107000000e000d7
:1004300003003a00e05423000100200002003700ce
:100440000000200001002000810f70000100320038
:100450000f000700000020000000e0000200320052
:100460000000020000000000003702000000000051
:100470000040da000000fe00402020000000e00004
:1004800002003200002020009001880000000600d9
:10049000a1028800800478000000eb001f003700f4
:1004a000e284440054a0b4009905ba00e2844400f8
:1004b00054a0b4009906ba00e284440054a0b400e9
:1004c0000006eb00476fde00fd07b200ae018800ba
:1004d000636ce10003003a000ad801000000eb0061
:1004e0000e003700606ce10008003a00004deb00a0
:1004f0000a05e800020039003420ec000af0a000f0
:100500008b05e900f9ff3e00040037006168e10057
:10051000010032000086eb000b00070019c7ba008b
:100520000e04e0001905ba0003003a000a00e000da
:10053000dbff3a0000000600fe07b200ae028800b2
:100540008a047800f5ff37000cd0a300e20f4d00bd
:100550001c00390089027800354dba000a05e80010
:10056000020039003420ec000af0a0008b05e900fd
:100570000f003200254dba000a05e80002003900dc
:100580003420ec000af0a0008b05e90008003200de
:100590000c00e0000600320015cdba000a05e800a4
:1005a000020039003420ec000af0a0008b05e900bd
:1005b0008984e80054a0b4000b00e000e2ff3a0098
:1005c000000006009902ba00055d78008b05e9007d
:1005d000f7ff3200c82ade00055d78008b05e900d0
:1005e000f3ff32000c00e000f1ff320019ddba0029
:1005f000eeff37007e3304000000000036340400b4
:1006000000000000f435040000000000ee34040097
:10061000000000008008040000000000a63604006e
:10062000000000003600f800809fbe00829fbe00e0
:10063000849fbe00869fbe000000fa00c028a9006b
:100640000000eb00e21907000080fa004f03be0033
:100650004f02be004f01be004f00be003600f90041
:10066000004006003600f800809fbe00829fbe005a
:10067000849fbe00869fbe000000fa00d9190700c3
:10068000c048a90010002000d11907000080fa001e
:100690004f03be004f02be004f01be004f00be0020
:1006a0003600f900004006003600f800809fbe00ca
:1006b000829fbe00849fbe00869fbe000000fa009d
:1006c000c068a90020002000c11907000080fa00be
:1006d0004f03be004f02be004f01be004f00be00e0
:1006e0003600f900004006003600f800809fbe008a
:1006f000829fbe00849fbe00869fbe000000fa005d
:10070000c088a90030002000b11907000080fa005d
:100710004f03be004f02be004f01be004f00be009f
:100720003600f900004006003600f800809fbe0049
:10073000829fbe00849fbe00869fbe000000fa001c
:10074000c0a8a90040002000a11907000080fa00fd
:100750004f03be004f02be004f01be004f00be005f
:100760003600f900004006003600f800809fbe0009
:10077000829fbe00849fbe00869fbe000000fa00dc
:10078000c608a90070002000911907000080fa0037
:100790004f03be004f02be004f01be004f00be001f
:1007a0003600f900004006003600f800809fbe00c9
:1007b000829fbe00849fbe00869fbe000000fa009c
:1007c0002146800000022000008060000000e00060
:1007d00003003200c4a8a900900020007c19070083
:1007e00020468000700060000000e000030032003e
:1007f000c488a900a000200075190700ffff37007a
:100800003600f800809fbe00829fbe00849fbe001d
:10081000869fbe000000fa00e08780000000e00034
:1008200002003200e08780000000010090152100e6
:10083000104078008040e8009015210001487800c1
:100840008015210011c0b300014878000068a9009c
:100850000080fa004f03be004f02be004f01be00f1
:100860004f00be003600f900004006003600f800d8
:10087000809fbe00829fbe00849fbe00869fbe00f8
:100880000000fa00f08780000000e0000200320063
:10089000f087800000000100b015210010407800b2
:1008a0008040e800b015210001487800a015210023
:1008b00011c0b3000148780000e8a9000080fa00e8
:1008c0004f03be004f02be004f01be004f00be00ee
:1008d0003600f900004006003600f800809fbe0098
:1008e000829fbe00849fbe00869fbe000000fa006b
:1008f000108880000000e0000200320010888000b4
:1009000000000100d0152100104078008040e80070
:10091000d015210001487800c015210011c0b30096
:10092000014878000108a9000080fa004f03be00ca
:100930004f02be004f01be004f00be003600f9005e
:10094000004006000040da000000fe000000050044
:100950006011b80000003700889fbe008a9fbe006b
:1009600000827000040271000482710026003200cf
:100970000004be000200be006011b8006b09200038
:10098000950220000182cf000a0039000541b10024
:100990000082cf00070039000541b1000982cf0075
:1009a000040039000541b1000882cf000100390080
:1009b0000541b10005425200120032000a003b001e
:1009c00082817100610164008100d1000080d30048
:1009d0008984d3000884d3008b05e8000442e80032
:1009e000f7ff3a00070037000804440089844c00f0
:1009f00000004800818048008b05e9000442e900be
:100a0000f9ff3a00030007004f05be004f04be0087
:100a10000000060081002000618055000b003d00b1
:100a20000b00200061fe2f000100e1001d003400da
:100a300082817100610164008904d1000884d300bf
:100a40000000e800faff3a00710020006100640035
:100a500003007000020060000900320061044400dd
:100a6000e0844c000988a500050032008b05e800f1
:100a70006808e10002003a008904d1000884d3002c
:100a8000f20f20000258e10005003d00c75ddd00c7
:100a9000f907b200898075000800780000000600a0
:0c0aa0000bf827008b0078000000050018
:020000040000fa
:100aac0001000000200000003f0000005e0000007c
:100abc007d0000009c000000bb000000da0000007c
:100acc00f900000018010000370100005601000079
:100adc007501000094010000b3010000d201000078
:100aec00f1010000100200002f0200004e02000075
:100afc006d0200008c020000ab020000ca02000074
:100b0c00e902000008030000270300004603000070
:100b1c006503000084030000a3030000c20300006f
:100b2c00e1030000000400001f0400003e0400006c
:100b3c005d0400007c0400009b040000ba0400006b
:100b4c00d9040000f8040000170500003605000069
:100b5c00550500007405000093050000b205000067
:100b6c00d1050000f00500000f0600002e06000065
:100b7c004d0600006c0600008b060000aa06000063
:100b8c00c9060000e8060000070700002607000061
:100b9c00450700006407000083070000a20700005f
:100bac00c1070000e0070000ff0700001e0800005e
:100bbc003d0800005c0800007b0800009a0800005b
:100bcc00b9080000d8080000f7080000160900005a
:100bdc003509000054090000730900009209000057
:100bec00b1090000d0090000ef0900000e0a000056
:100bfc002d0a00004c0a00006b0a00008a0a000053
:100c0c00a90a0000c80a0000e70a0000060b000051
:100c1c00250b0000440b0000630b0000820b00004e
:100c2c00a10b0000c00b0000df0b0000fe0b00004e
:100c3c001d0c00003c0c00005b0c00007a0c00004a
:100c4c00990c0000b80c0000d70c0000f60c00004a
:100c5c00150d0000340d0000530d0000720d000046
:100c6c00910d0000b00d0000cf0d0000ee0d000046
:100c7c000d0e00002c0e00004b0e00006a0e000042
:100c8c00890e0000a80e0000c70e0000e60e000042
:100c9c00050f0000240f0000430f0000620f00003e
:100cac00810f0000a00f0000810f0000620f0000f8
:100cbc00430f0000240f0000050f0000e60e00009b
:100ccc00c70e0000a80e0000890e00006a0e00007e
:100cdc004b0e00002c0e00000d0e0000ee0d00005f
:100cec00cf0d0000b00d0000910d0000720d000042
:100cfc00530d0000340d0000150d0000f60c000023
:100d0c00d70c0000b80c0000990c00007a0c000005
:100d1c005b0c00003c0c00001d0c0000fe0b0000e6
:100d2c00df0b0000c00b0000a10b0000820b0000c9
:100d3c00630b0000440b0000250b0000060b0000a9
:100d4c00e70a0000c80a0000a90a00008a0a00008d
:100d5c006b0a00004c0a00002d0a00000e0a00006d
:100d6c00ef090000d0090000b10900009209000051
:100d7c007309000054090000350900001609000031
:100d8c00f7080000d8080000b90800009a08000015
:100d9c007b0800005c0800003d0800001e080000f5
:100dac00ff070000e0070000c1070000a2070000d9
:100dbc0083070000640700004507000026070000b9
:100dcc0007070000e8060000c9060000aa0600009c
:100ddc008b0600006c0600004d0600002e0600007d
:100dec000f060000f0050000d1050000b205000060
:100dfc009305000074050000550500003605000041
:100e0c0017050000f8040000d9040000ba04000023
:100e1c009b0400007c0400005d0400003e04000004
:100e2c001f04000000040000e1030000c2030000e6
:100e3c00a3030000840300006503000046030000c8
:100e4c002703000008030000e9020000ca020000aa
:100e5c00ab0200008c0200006d0200004e0200008c
:100e6c002f02000010020000f1010000d20100006e
:100e7c00b301000094010000750100005601000050
:100e8c003701000018010000f9000000da00000032
:100e9c00bb0000009c0000007d0000005e00000014
:080eac003f00000020000000df
:020000040000fa
:100eb4000000fa0001eca8000080fa00000006001f
:100ec4000400fa00000f7800110798001e00780053
:100ed400e20f500007003200e30f50000800320018
:100ee400e10f50000a003a009e0090003161880032
:100ef400080037009e00900031628800050037002a
:100f04009e0090003163880000000000010037005b
:100f1400000000000080fa00000006000000fa0053
:100f240021e3a8000080fa00000006000000fa0097
:100f340021e3a9000080fa00000006000000fa0086
:100f44002023a8000080fa00000006000000fa0038
:100f54002023a9000080fa00000006000200fa0025
:100f6400000f78001e007800e10f50000d003200e1
:100f7400e10f500005003900e20f50000f0032006d
:100f8400e30f5000130032001600370041198000af
:100f940000fe2f00008060000010a00040198800af
:100fa400100037004119800000fe2f00008060000f
:100fb4006000b300401988000a003700411980001e
:100fc40000fe2f0000806000e001b300401988009b
:100fd4000400370040198000f001b3004019880074
:100fe400000000000080fa00000006000400fa007f
:100ff400100798001e009000e30f500003003e000d
:1010040001188000010f7800010037000000000083
:101014001e0078000080fa00000006000400fa00b8
:1010240010079800001980000040780061406000bb
:101034000080fb0000f0a7000000ea000000ea00c6
:101044004f00de00004f78001e4078000080fa0058
:10105400000006000800fa002007980031079800f5
:101064006000b800008fbe0040170700008fbe006c
:10107400000000003d1707003e015000ae815800fb
:101084002e009000be009000800f5100818f590007
:10109400f8ff39000080fa00000006000800fa009a
:1010a40030079800202e2e00000f7800100020003a
:1010b400100798009e0090003e0090008088b900c0
:1010c4009e00780000017800110009008280d80099
:1010d4000000e900200798000621ef00ae00900010
:1010e40061088800000028008008880000e8a90042
:1010f40020e8a8000080fa00000006000000fa00c2
:1011040000d0bf000004e00004003200a08680008c
:101114008000780010c0b300080a07000080fa00bd
:10112400000006000000fa000080fa00000006003b
:101134000000fa00acd0bf000080fb00e20f5000ba
:1011440018003200e20f500005003c000000e000ef
:101154000a003200e10f50000e0032006400370034
:10116400e40f500023003200e40f5000110035005a
:10117400e50f5000590032005d00370067ff07009b
:101184001000200075ff070010c0b300acf0b700da
:101194005700370069ff070020c0b300acf0b70068
:1011a4005300370069ff070030c0b300acf0b7004c
:1011b4004f0037001000200098ff07000004e000f3
:1011c4000300320040c0b300acf0b7004800370061
:1011d400708580000000e8007085880070858000bc
:1011e400e20f50004100360050c0b300acf0b7002d
:1011f4003f003700100020007cff0700608188005a
:1012040061818000501f2000808f50002f003e001d
:10121400608180000000e0002c00320080858000a6
:101224000000e8008085880080858000e20f50007f
:1012340027003600b030ef000370ef000430ef00f9
:10124400610d210091407800d0c2b30080cf5000de
:1012540003003a000040eb00b20507000f0037001e
:10126400610d210091407800c0c3b30080cf5000cd
:1012740003003a000040eb00cd04070007003700ec
:10128400610d210091407800b0c4b30080cf5000bc
:1012940002003a000040eb00e80307000070ef0092
:1012a4009e0907008000eb001000200004ff0700e7
:1012b4008000eb002000200001ff07008000eb000d
:1012c40030002000fefe070001003700b030ef00c0
:1012d40050c0b300acf0b7000500370013ff07009f
:1012e400ac70ef00000000000100370000000000b7
:1012f4000080fa00000006000000fa00a6d0bf003b
:101304000080fb00e20f500018003200e20f500092
:1013140005003c000000e0000a003200e10f50002c
:101324000e0032006d003700e40f5000230032003d
:10133400e40f500011003500e50f50006200320048
:1013440066003700f5fe07000000eb0003ff07000e
:1013540010c0b300a6f0b70060003700f7fe070026
:1013640020c0b300a6f0b7005c003700f7fe07000a
:1013740030c0b300a6f0b700580037000000eb00ff
:1013840026ff07000004e0000300320040c0b30061
:10139400a6f0b70051003700408580000000e80047
:1013a4004085880040858000e20f50004a003600e6
:1013b40050c0b300a6f0b700480037000000eb00af
:1013c4000aff0700808188008181800000042000da
:1013d400808f500038003600508580000000e800ff
:1013e4005085880050858000e20f5000330036009d
:1013f400aa30ef000370ef000430ef0000f4210086
:101404004061880000f421004062880000f421005b
:1014140040638800610d210091407800d0c2b30080
:1014240080cf500003003a000040eb003d05070068
:101434000f003700610d210091407800c0c3b30054
:1014440080cf500003003a000040eb00580407002e
:1014540007003700610d210091407800b0c4b3004b
:1014640080cf500002003a000040eb0073030700f5
:1014740000f421004061880000f4210040628800eb
:1014840000f42100406388000070ef002309070086
:101494008000eb001000200089fe07008000eb00b4
:1014a4002000200086fe07008000eb0030002000b2
:1014b40083fe070001003700aa30ef0050c0b300dc
:1014c400a6f0b7000500370098fe0700a670ef00ed
:1014d4000000000001003700000000000080fa0056
:1014e400000006000000fa00881f78000080220037
:1014f400011020004f14070070808800818088004c
:1015040050052000a10a2000d61307007080800037
:10151400818080000214070012f0b7003080800040
:101524008000eb00808888009188880040808000db
:101534008000eb00a0888800b1888800508080007b
:101544008000eb00c0888800d1888800608080001b
:101554008000eb00e0888800f1888800a288800081
:10156400b388800080888000918880007680800025
:10157400878080000202be000001be000600be009b
:10158400f513070012f0b70012d0bf000084fb006f
:10159400e2888000f3888000c0888000d1888000c1
:1015a400748080008580800064034200e0834a00e8
:1015b4000202be000001be000600be00e6130700e2
:1015c4000080fb000000640000f0a7000000ea00b7
:1015d4000000ea004f00de000040780012f0b7007f
:1015e400a51307004f0478000080fa0000000600ed
:1015f4000000fa0000802200011020000d140700f2
:1016040070808800818088007080800081808000e4
:10161400b613070000898800118988007080800053
:101624008180800062004000e0804800af13070022
:101634002089880031898800708080008180800042
:1016440064004000e0804800a81307004089880037
:10165400518988007080800081808000660040008d
:10166400e0804800a1130700608988007189880020
:101674000080fa00000006000000fa00300020009c
:101684003080880030002000408088004000200026
:101694005080880080868000a0868800211407007e
:1016a4009f150700401507008000eb001000200084
:1016b40003fe07008000eb002000200000fe07006e
:1016c4008000eb0030002000fdfd0700f8fd07005e
:1016d40000882000671407006e1407000000eb0068
:1016e4006e080700207180004300de006140600046
:1016f4000004a200614060000080fb006100600003
:101704004300dd00217180000130a1000100700060
:101714002071880090868000f012b0003814070011
:101724000040eb002d080700007d20000100200090
:1017340048fe0700146ea80078080700012ea800d0
:101744000080fa00000006000000fa00c200070052
:10175400c107070040102100104078000004e00099
:101764000d003200401021008040eb000148780059
:101774009c30ef00308080000000e800308088005a
:101784003180800030062000808f50000200360037
:10179400100020003080880074150700f084880051
:1017a40001858800f2848000038580001085800014
:1017b4002185800000015100818159001000200022
:1017c40001002000800f5100818f59001000360065
:1017d400f0848000018580001085880021858800c0
:1017e4000040eb0072030700e08480000000e80082
:1017f400e0848800e184800000712200808f500022
:10180400030036009c30ef001370ef0035ff070033
:101814000080fa00000006000000fa008e000700b5
:1018240040808000640007008b07070070102100cf
:10183400104078000004e0000d0032007010210018
:101844008040eb00014878009230ef004080800037
:101854000000e800408088004180800030062000bd
:10186400808f500002003600100020004080880065
:101874003e150700a0848800b1848800a2848000fb
:10188400b3848000c0848000d184800000015100b2
:10189400818159001000200001002000800f5100b8
:1018a400818f59000e003600a0848000b18480002e
:1018b400c0848800d1848800908480000000e800ff
:1018c400908488009184800000712200808f5000f1
:1018d400030036009230ef001470ef0001ff0700a0
:1018e4000080fa00000006000000fa005a00070019
:1018f400508080003000070057070700a010210027
:10190400104078000004e0000d003200a010210017
:101914008040eb00014878008830ef005080800060
:101924000000e800508088005180800030062000cc
:10193400808f500002003600100020005080880084
:101944000a1507005084880061848800528480004e
:1019540063848000708480008184800000015100d1
:10196400818159001000200001002000800f5100e7
:10197400818f59000e0036005084800061848000fd
:101984007084880081848800408480000000e8001e
:10199400408488004184800000712200808f5000c0
:1019a400030036008830ef001570ef00cdfe07000d
:1019b4000080fa00000006000200fa00000f780020
:1019c400ea140700f083880001848800f283800011
:1019d4000384800010848000218480000001510071
:1019e40081815900c012200001002000800f5100a5
:1019f400818f590016003600f08380000184800036
:101a0400108488002184880086d0bf000080fb00f9
:101a14000000a20000f0a7000000ea000000ea00b5
:101a24004f00de000040780086f0b70086d0bf008b
:101a34000004e0000300320040c6b300670707005b
:101a4400030037001e007800004078006307070099
:101a54000080fa00000006000000fa00c31407002a
:101a6400b0838800c1838800b2838000c383800070
:101a7400d0838000e18380000001510081815900fe
:101a8400000a200001002000800f5100818f5900be
:101a940074003600b0838000c1838000d083880046
:101aa400e183880010708000640060000000e000a2
:101ab4001b00320060102100104078008040e800d4
:101ac4006010210001487800601021001040780067
:101ad400e24f500003003a004010210011c0b3004f
:101ae40001487800601021009040780040c6b3009f
:101af40080cf500010003a005010210011c0b300f4
:101b040001487800401021008040eb000148780033
:101b14006010210081c6b300014878000600370038
:101b2400601021008040eb00014878004010210043
:101b34008040eb000148780010708000680060006d
:101b44000000e0001b0032009010210010407800db
:101b54008040e80090102100014878009010210096
:101b640010407800e24f500003003a00701021004a
:101b740011c0b30001487800901021009040780013
:101b840040c6b30080cf500010003a0080102100fe
:101b940011c0b30001487800701021008040eb00b0
:101ba400014878009010210081c6b30001487800f4
:101bb40006003700901021008040eb0001487800b7
:101bc400701021008040eb00014878001170800003
:101bd40000102000008060000000e0001b003200c4
:101be400c0102100104078008040e800c01021009f
:101bf40001487800c010210010407800e24f5000e6
:101c040003003a00a010210011c0b300014878007d
:101c1400c01021009040780040c6b30080cf50002f
:101c240010003a00b010210011c0b3000148780040
:101c3400a01021008040eb0001487800c010210072
:101c440081c6b3000148780006003700c0102100a7
:101c54008040eb0001487800a01021008040eb0098
:101c6400014878000080fa00000006000000fa0035
:101c740040102100104078000004e00020003200f1
:101c8400401021008040eb000148780003d0bf00e1
:101c94000080fb000000a20000f0a7000000ea00a2
:101ca4000000ea004f00de000040780003f0b700b7
:101cb40003d0bf000004e00011003200144ea8005d
:101cc4006e0007000070ef0010002000f30607000c
:101cd40080b5210080868800a0be20009086880000
:101ce40080868000a08688000170ef000270ef00fb
:101cf4003080800020808800d0c2b300d6f0b700c6
:101d040070102100104078000004e0002000320030
:101d1400701021008040eb000148780003d0bf0020
:101d24000080fb000000a20000f0a7000000ea0011
:101d34000000ea004f00de000040780003f0b70026
:101d440003d0bf000004e00011003200144ea800cc
:101d54004a0007000070ef0010002000cf060700c3
:101d640080b52100808688008089200090868800c4
:101d740080868000a08688000170ef000270ef006a
:101d84004080800020808800c0c3b300d6f0b70034
:101d9400a0102100104078000004e0002000320070
:101da400a01021008040eb000148780003d0bf0060
:101db4000080fb000000a20000f0a7000000ea0081
:101dc4000000ea004f00de000040780003f0b70096
:101dd40003d0bf000004e00011003200144ea8003c
:101de400260007000070ef0010002000ab0607007b
:101df40080b5210080868800806b20009086880052
:101e040080868000a08688000170ef000270ef00d9
:101e14005080800020808800b0c4b300d6f0b700a2
:101e240050102100104078000004e000030032004c
:101e3400501021008040eb00014878008010210000
:101e4400104078000004e0000300320080102100fc
:101e54008040eb0001487800b01021001040780069
:101e64000004e00003003200b01021008040eb00c9
:101e7400014878000080fa00000006000000fa0023
:101e8400ba130700d0808800e1808800d0808000e9
:101e9400e1808000f0808800018188000080fa00e1
:101ea400000006000200fa00004f7800af1307009c
:101eb400d0808800e1808800d2808000e3808000a8
:101ec400f08080000181800000015100818159006f
:101ed400f0a52e0001002000800f5100818f5900d1
:101ee4000e003600d0808000e1808000f080880001
:101ef40001818800208080000000e90020808800a3
:101f040003d0bf000004e000040032002080800001
:101f14000000e00001003a000370ef000080fa00c6
:101f2400000006000000fa00cb050700cafe070007
:101f3400020007000080fa00000006000200fa0018
:101f44000000eb00000f780048ff070020808000ad
:101f540000407800d3ff070084130700f082880054
:101f640001838800f2828000038380001083800054
:101f74002183800000015100818159003006200036
:101f840001002000800f5100818f590005003e00a0
:101f9400f082800001838000e00f5000e08f580041
:101fa40064003a00f082800001838000108388007e
:101fb40021838800d0fc07009070800062006000dc
:101fc4000000e00021003200308380000000e800bf
:101fd4003083880030838000e40f50001c003600fa
:101fe4006630ef000370ef000430ef00610d210054
:101ff40091407800d0c2b30080cf500003003a0073
:102004000040eb004702070011003700610d21007a
:1020140091407800c0c3b30080cf500003003a0061
:102024000040eb006201070009003700610d210048
:1020340091407800b0c4b30080cf500004003a004f
:102044000040eb007d000700010037006630ef0020
:102054001170800000202000008060000000e0007b
:102064001f00320010c0b30068f0b7006a30ef0000
:102074000370ef00608380000000e8006083880044
:1020840060838000e20f5000080036006c30ef00df
:102094006ed0bf000004e000020032006e70ef005a
:1020a4000200370010c0b3006ef0b7006ed0bf005e
:1020b4000004e000050032000040eb00c705070003
:1020c40065050700246ea8000600370040c6b3006b
:1020d400c205070060050700246ea900010037004f
:1020e4006870ef0018d0bf000004e0000200320066
:1020f4001870ef00fbfc070003d0bf000004e000f1
:102104000c003200207180004300de00614060005a
:102114000004a200614060000080fb0061006000d8
:102124004300dd00217180000130a1000100700036
:102134002071880003d0bf000004a2000004e00066
:102144001f003200610d210091407800d0c2b3001d
:1021540080cf500003003a000040eb00f10107007b
:102164000f003700610d210091407800c0c3b30017
:1021740080cf500003003a000040eb000c01070040
:1021840007003700610d210091407800b0c4b3000e
:1021940080cf500002003a000040eb002700070007
:1021a40068d0bf000004a2000004e0002100320057
:1021b4000040eb0089050700246ea8001d003700cd
:1021c40003d0bf000004e0001a003200610d2100ba
:1021d40091407800d0c2b30080cf500003003a0091
:1021e40010c0b300cf0107000f003700610d2100bc
:1021f40091407800c0c3b30080cf500003003a0080
:1022040010c0b300ea00070007003700610d210089
:1022140091407800b0c4b30080cf500002003a006f
:1022240010c0b30005000700208080000040780043
:102234006a0507000080fa00000006000200fa00a8
:10224400004f7800c91207008082880091828800bc
:102254008282800093828000a0828000b18280000c
:10226400800f5100818f590005003a008082800060
:1022740091828000e00f5000e08f5800ca003a00bd
:102284008082800091828000a0828800b1828800d0
:102294001e407800e14f50006e003a0010c0b300b9
:1022a40000f0b70001d0bf000004a2000004e00069
:1022b40041003200022cef00e2d0bf00fd4f50007d
:1022c40010003e00208780000000e900208788007d
:1022d4002187800000fa2000808f500002003e0019
:1022e40000fa200020878800208780004061880051
:1022f4002087800040628800208780004063880037
:102304000f003700208780000000e9002087880044
:102314002187800000fa2000808f500002003e00d8
:1023240000fa200020878800208780004061880010
:1023340020878000406288002087800040638800f6
:10234400c08280000000e800c0828800c182800052
:1023540040052000808f5000040036005830ef0004
:10236400e2d0bf000040e800e2f0b700e2d0bf00d6
:1023740049020700a0868800210e210091407800c0
:10238400a0c4b30080cf50007e003600b0c4b300b8
:10239400e2f0b70010c0b30001f0b7000270ef0024
:1023a400e2d0bf003c020700c0868800c0868000df
:1023b400a086880073003700e2d0bf00fd4f5000b4
:1023c40010003e00208780000000e900208788007c
:1023d4002187800000fa2000808f500002003e0018
:1023e40000fa200020878800208780004061880050
:1023f4002087800040628800208780004063880036
:102404000f003700208780000000e9002087880043
:102414002187800000fa2000808f500002003e00d7
:1024240000fa20002087880020878000406188000f
:1024340020878000406288002087800040638800f5
:10244400b0c4b30014020700a08688000270ef0035
:102454004c0037001e4078000004e00049003a00b8
:10246400e2d0bf00fd4f500010003e0020878000e6
:10247400401fb0002087880021878000f0f32100ee
:10248400808f50000200360000f42100208788006d
:102494002087800040618800208780004062880097
:1024a40020878000406388000f0037002087800069
:1024b400401fb0002087880021878000f0f32100ae
:1024c400808f50000200360000f42100208788002d
:1024d4002087800040618800208780004062880057
:1024e4002087800040638800c08280000000e800ec
:1024f400c0828800c0828000f80f500007003600b8
:102504005830ef00e2d0bf000040e900e2f0b7002d
:10251400e2d0bf00e0010700a0868800e2d0bf003f
:10252400ea4f500017003e0000f421002087880085
:10253400a0c0b300e2f0b7005a30ef005830ef000b
:10254400a0be2000a08688000170ef000070ef009c
:102554000270ef000370ef00f00407008000eb004e
:102564001000200056fa07008000eb002000200035
:1025740053fa07008000eb003000200050fa0700f7
:10258400144ea900e1828000a0868000808f500054
:1025940005003200a0868000e0828800a0868000ca
:1025a400f012b000961007000080fa000000060048
:1025b4000200fa00004f7800ec1107001082880036
:1025c4002182880012828000238280003082800071
:1025d40041828000800f5100818f590005003a002c
:1025e4001082800021828000e00f5000e08f5800ac
:1025f400ca003a0010828000218280003082880064
:10260400418288001e407800e14f50006e003a007d
:1026140010c0b30000f0b70001d0bf000004a20056
:102624000004e00041003200022cef00ded0bf00c5
:10263400fd4f500010003e00008780000000e900bc
:10264400008788000187800000fa2000808f5000f6
:1026540002003e0000fa2000008788000087800006
:102664004061880000878000406288000087800005
:10267400406388000f003700008780000000e900f5
:10268400008788000187800000fa2000808f5000b6
:1026940002003e0000fa20000087880000878000c6
:1026a40040618800008780004062880000878000c5
:1026b40040638800508280000000e8005082880057
:1026c4005182800040052000808f500004003600b5
:1026d4004a30ef00ded0bf000040e800def0b70073
:1026e400ded0bf006c010700a0868800e10d210048
:1026f40091407800b0c3b30080cf50007e00360014
:10270400c0c3b300def0b70010c0b30001f0b700df
:102714000270ef00ded0bf005f010700c0868800b2
:10272400c0868000a086880073003700ded0bf001a
:10273400fd4f500010003e00008780000000e900bb
:10274400008788000187800000fa2000808f5000f5
:1027540002003e0000fa2000008788000087800005
:102764004061880000878000406288000087800004
:10277400406388000f003700008780000000e900f4
:10278400008788000187800000fa2000808f5000b5
:1027940002003e0000fa20000087880000878000c5
:1027a40040618800008780004062880000878000c4
:1027b40040638800c0c3b30037010700a0868800c7
:1027c4000270ef004c0037001e4078000004e00067
:1027d40049003a00ded0bf00fd4f500010003e001b
:1027e40000878000401fb0000087880001878000b8
:1027f400f0f32100808f50000200360000f4210025
:10280400008788000087800040618800008780007e
:102814004062880000878000406388000f00370012
:1028240000878000401fb000008788000187800077
:10283400f0f32100808f50000200360000f42100e4
:10284400008788000087800040618800008780003e
:1028540040628800008780004063880050828000c6
:102864000000e8005082880050828000f80f500079
:10287400070036004a30ef00ded0bf000040e90018
:10288400def0b700ded0bf0003010700a086880099
:10289400ded0bf00ea4f500017003e0000f42100d4
:1028a40000878800a0c0b300def0b7004c30ef0012
:1028b4004a30ef00a0be2000a08688000170ef001f
:1028c4000070ef000270ef000370ef0013040700c4
:1028d4008000eb001000200079f907008000eb0075
:1028e4002000200076f907008000eb003000200073
:1028f40073f90700144ea90071828000a08680003d
:10290400808f500005003200a0868000708288000d
:10291400a0868000f012b000b90f07000080fa0012
:10292400000006000200fa00004f78000f110700b3
:10293400a0818800b1818800a2818000b3818000d9
:10294400c0818000d1818000800f5100818f5900a7
:1029540005003a00a0818000b1818000e00f5000a2
:10296400e08f5800ca003a00a0818000b181800045
:10297400c0818800d18188001e407800e14f50005a
:102984006e003a0010c0b30000f0b70001d0bf00e1
:102994000004a2000004e00041003200022cef0019
:1029a400dbd0bf00fd4f500010003e00e0868000e9
:1029b4000000e900e0868800e186800000fa20003b
:1029c400808f500002003e0000fa2000e08688005c
:1029d400e086800040618800e086800040628800d4
:1029e400e0868000406388000f003700e0868000a6
:1029f4000000e900e0868800e186800000fa2000fb
:102a0400808f500002003e0000fa2000e08688001b
:102a1400e086800040618800e08680004062880093
:102a2400e086800040638800e08180000000e800c8
:102a3400e0818800e181800040052000808f500003
:102a4400040036003c30ef00dbd0bf000040e8005b
:102a5400dbf0b700dbd0bf008f000700a086880042
:102a6400b10d210091407800c0c2b30080cf500066
:102a74007e003600d0c2b300dbf0b70010c0b30054
:102a840001f0b7000270ef00dbd0bf008200070046
:102a9400c0868800c0868000a08688007300370046
:102aa400dbd0bf00fd4f500010003e00e0868000e8
:102ab4000000e900e0868800e186800000fa20003a
:102ac400808f500002003e0000fa2000e08688005b
:102ad400e086800040618800e086800040628800d3
:102ae400e0868000406388000f003700e0868000a5
:102af4000000e900e0868800e186800000fa2000fa
:102b0400808f500002003e0000fa2000e08688001a
:102b1400e086800040618800e08680004062880092
:102b2400e086800040638800d0c2b3005a000700ea
:102b3400a08688000270ef004c0037001e40780029
:102b44000004e00049003a00dbd0bf00fd4f500014
:102b540010003e00e0868000401fb000e086880040
:102b6400e1868000f0f32100808f500002003600df
:102b740000f42100e0868800e0868000406188003f
:102b8400e086800040628800e08680004063880020
:102b94000f003700e0868000401fb000e086880008
:102ba400e1868000f0f32100808f5000020036009f
:102bb40000f42100e0868800e086800040618800ff
:102bc400e086800040628800e086800040638800e0
:102bd400e08180000000e800e0818800e08180005e
:102be400f80f5000070036003c30ef00dbd0bf0088
:102bf4000040e900dbf0b700dbd0bf00260007008f
:102c0400a0868800dbd0bf00ea4f500017003e00ca
:102c140000f42100e0868800a0c0b300dbf0b70018
:102c24003e30ef003c30ef00a0be2000a0868800bc
:102c34000170ef000070ef000270ef000370ef000e
:102c4400360307008000eb00100020009cf807000a
:102c54008000eb002000200099f807008000eb00c2
:102c64003000200096f80700144ea900018280006d
:102c7400a0868000808f500005003200a08680006e
:102c840000828800a0868000f012b000dc0e0700ed
:102c94000080fa00000006000200fa00004f7800ed
:102ca4001e407800e14f500003003e0000c32500a1
:102cb40090818800e70137001e407800e24f500001
:102cc40003003a008084250090818800e1013700e8
:102cd4001e407800e34f500003003a0000462500f0
:102ce40090818800db0137001e407800e44f5000db
:102cf40003003a008007250090818800d501370041
:102d04001e407800e54f500003003a0000c924003b
:102d140090818800cf0137001e407800e64f5000b4
:102d240003003a00808a240090818800c90137009a
:102d34001e407800e74f500003003a00001a2400b8
:102d440090818800c30137001e407800e84f50008e
:102d540003003a00006b230090818800bd01370016
:102d64001e407800e94f500003003a00400d230054
:102d740090818800b70137001e407800ea4f500068
:102d840003003a0000a3220090818800b1013700bb
:102d94001e407800eb4f500003003a0000712200ff
:102da40090818800ab0137001e407800ec4f500042
:102db40003003a008032220090818800a501370088
:102dc4001e407800ed4f500003003a0040132200eb
:102dd400908188009f0137001e407800ee4f50001c
:102de40003003a0000f42100908188009901370023
:102df4001e407800ef4f500003003a00c0d4210079
:102e040090818800930137001e407800f04f5000f5
:102e140003003a0080b52100908188008d013700bd
:102e24001e407800f14f500003003a004096210004
:102e340090818800870137001e407800f24f5000cf
:102e440003003a00808321009081880081013700cb
:102e54001e407800f34f500003003a00c070210078
:102e6400908188007b0137001e407800f44f5000a9
:102e740003003a00005e210090818800750137004c
:102e84001e407800f54f500003003a000045210031
:102e9400908188006f0137001e407800f64f500083
:102ea40003003a00803821009081880069013700ce
:102eb4001e407800f74f500003003a00002c210018
:102ec40090818800630137001e407800f84f50005d
:102ed40003003a00801f2100908188005d013700c3
:102ee4001e407800f94f500003003a00c00c210046
:102ef40090818800570137001e407800fa4f500037
:102f040003003a00400521009081880051013700f8
:102f14001e407800fb4f500003003a0000fa2000e6
:102f2400908188004b0137001e407800fc4f500010
:102f340003003a00c0f32000908188004501370067
:102f44001e407800fd4f500003003a0040e7200087
:102f5400908188003f0137001e407800fe4f5000ea
:102f640003003a00c0da200090818800390137005c
:102f74001e407800ff4f500003003a00a0d7200005
:102f8400908188003301370000c2b3009e4078006e
:102f940080cf500003003a0060d120009081880067
:102fa4002c01370010c2b3009e40780080cf50003f
:102fb40003003a0020cb20009081880025013700cf
:102fc40020c2b3009e40780080cf500003003a0036
:102fd400e0c42000908188001e01370030c2b30095
:102fe4009e40780080cf500003003a00a0be20002d
:102ff400908188001701370040c2b3009e407800da
:1030040080cf500003003a0060b82000908188000f
:103014001001370050c2b3009e40780080cf5000aa
:1030240003003a0020b22000908188000901370093
:1030340060c2b3009e40780080cf500003003a0085
:10304400e0ab2000908188000201370070c2b30019
:103054009e40780080cf500003003a00c0a82000b2
:1030640090818800fb00370080c2b3009e40780046
:1030740080cf500003003a00a0a520009081880072
:10308400f400370090c2b3009e40780080cf500017
:1030940003003a00609f200090818800ed00370013
:1030a400a0c2b3009e40780080cf500003003a00d5
:1030b400009b200090818800e6003700b0c2b30076
:1030c4009e40780080cf500003003a008098200092
:1030d40090818800df003700c0c2b3009e407800b2
:1030e40080cf500003003a00c094200090818800f3
:1030f400d8003700d0c2b3009e40780080cf500083
:1031040003003a00c08f200090818800d10037006e
:10311400e0c2b3009e40780080cf500003003a0024
:10312400a08c200090818800ca003700f0c2b30050
:103134009e40780080cf500003003a008089200030
:1031440090818800c300370000c3b3009e4078001c
:1031540080cf500003003a006086200090818800f0
:10316400bc00370010c3b3009e40780080cf5000ed
:1031740003003a004083200090818800b5003700a6
:1031840020c3b3009e40780080cf500003003a0073
:103194002080200090818800ae00370030c3b30047
:1031a4009e40780080cf500003003a00007d20004c
:1031b40090818800a700370040c3b3009e40780088
:1031c40080cf500003003a00e0792000908188000d
:1031d400a000370050c3b3009e40780080cf500059
:1031e40003003a00a07820009081880099003700fd
:1031f40060c3b3009e40780080cf500003003a00c3
:10320400c0762000908188009200370070c3b3001c
:103214009e40780080cf500003003a0000732000e5
:10322400908188008b00370080c3b3009e407800f3
:1032340080cf500003003a00807020009081880005
:103244008400370090c3b3009e40780080cf5000c4
:1032540003003a00606d2000908188007d003700f3
:10326400a0c3b3009e40780080cf500003003a0012
:10327400206c20009081880076003700b0c3b30032
:103284009e40780080cf500003003a00406a20003e
:10329400908188006f003700c0c3b3009e4078005f
:1032a40080cf500003003a002067200090818800fe
:1032b40068003700d0c3b3009e40780080cf500030
:1032c40003003a00e0652000908188006100370027
:1032d400e0c3b3009e40780080cf500003003a0062
:1032e40000642000908188005a003700f0c3b300c6
:1032f4009e40780080cf500003003a00c062200056
:10330400908188005300370000c4b3009e407800c9
:1033140080cf500003003a00e060200090818800d4
:103324004c00370010c4b3009e40780080cf50009a
:1033340003003a00c05d20009081880045003700fa
:1033440020c4b3009e40780080cf500003003a00b0
:10335400805c2000908188003e00370030c4b300b8
:103364009e40780080cf500003003a00a05a20000d
:10337400908188003700370040c4b3009e40780035
:1033840080cf500003003a006059200090818800eb
:103394003000370050c4b3009e40780080cf500006
:1033a40003003a00c05820009081880029003700ab
:1033b40060c4b3009e40780080cf500003003a0000
:1033c400e0562000908188002200370070c4b300ca
:1033d4009e40780080cf500003003a0060542000e3
:1033e400908188001b00370080c4b3009e407800a1
:1033f40080cf500003003a00805220009081880062
:103404001400370090c4b3009e40780080cf500071
:1034140003003a0040512000908188000d003700dd
:10342400a0c4b3009e40780080cf500003003a004f
:10343400005020009081880006003700a0c4b3002b
:103444009e40780080cf500002003600204e2000bd
:103454009081880091818000104e2000808f500060
:1034640002003c00204e2000908188009081800062
:083474000080fa0000000600d0
:020000040000fa
:10347c000000fa0014eea800150ea800152ea800e6
:10348c0024cea80024eea800250ea800252ea90005
:10349c000080fa00000006000000fa0014eea900fb
:1034ac00150ea800152ea80024cea90024eea90004
:1034bc00250ea900252ea9000080fa0000000600a8
:1034cc000000fa0014eea800150ea800152ea90095
:1034dc0024cea80024eea800250ea900252ea800b5
:1034ec000080fa00000006000000fa0014eea800ac
:1034fc00150ea800152ea80024cea80024eea900b5
:10350c00250ea900252ea8000080fa000000060058
:10351c000000fa0014eea900150ea800152ea80044
:10352c0024cea90024eea900250ea800252ea80063
:10353c000080fa00000006000000fa0014eea8005b
:10354c00150ea900152ea80024cea80024eea90063
:10355c00250ea800252ea8000080fa000000060009
:10356c000000fa0014eea800150ea900152ea800f4
:10357c0024cea80024eea800250ea800252ea80015
:10358c000080fa00000006000000fa0014eea8000b
:10359c00150ea800152ea80024cea90024eea90013
:1035ac00250ea900252ea9000080fa0000000600b7
:1035bc000000fa0014eea800150ea800152ea800a5
:1035cc0024cea80024eea800250ea800252ea800c5
:1035dc000080fa00000006000000fa0014eea800bb
:1035ec00150ea800152ea80024cea80024eea900c4
:1035fc00250ea800252ea8000080fa000000060069
:10360c000000fa0014eea900150ea900152ea90051
:10361c0024cea90024eea900250ea900252ea90070
:10362c000080fa00000006000000fa0014eea90069
:10363c00150ea900152ea90024cea90024eea90070
:10364c00250ea900252ea8000080fa000000060017
:10365c000200fa0030878000418780005087880084
:10366c0061878800eed0bf000004e0000800320043
:10367c0004eea900054ea90004eea800054ea90011
:10368c004015210010407800eff0b700060037001d
:10369c0004eea900054ea900054ea8005015210006
:1036ac0010407800eff0b7006015210090407800d2
:1036bc0040c6b30080cf500002003a00d0ff070094
:1036cc002e003700601521009040780080ccb300ac
:1036dc0080cf500002003a00d3ff070027003700cc
:1036ec00efd0bf000080fb00cf80de0092002000f6
:1036fc0003002000820f5000838f58001f003e00f3
:10370c0000060100090037000a0037000b003700e3
:10371c000c0037000d0037000e0037000f0037008b
:10372c0010003700110037001200370050ff07005f
:10373c001200370058ff07001000370060ff070029
:10374c000e00370068ff07000c00370070ff070001
:10375c000a00370078ff07000800370080ff0700d9
:10376c000600370088ff07000400370090ff0700b1
:10377c000200370098ff070000000000eed0bf00e9
:10378c000080fb000000a20000f0a7000000ea008f
:10379c000000ea004f00de0000407800eef0b700b9
:1037ac0097ff07000000eb00000f78000000eb0013
:1037bc00000f7800010037001e0fe80030062000d3
:1037cc009e007800808f5000fbff34000080fa00d0
:1037dc00000006000400fa00204798006015210044
:1037ec00ae409000014878002e4090008080fb0095
:1037fc00d0cc2c000008b8004308de0080407800d4
:10380c0040152100014878002e4090000081fb00fb
:10381c00d0cc2c000010b8004308de00ea00b90040
:10382c0000005100804078005015210001487800bc
:10383c000080fa00000006000400fa00000f780077
:10384c00110798001e007800e20f500007003200ac
:10385c00e30f500008003200e10f50000a003a005c
:10386c009e00900031618800080037009e00900097
:10387c0031628800050037009e009000316388009b
:10388c000000000001003700000000000080fa007a
:10389c00000006000200fa00000f78009e0078007d
:1038ac00918588001e0078000000e00005003200c1
:1038bc0010c0b300baf0b700bb70ef00bc70ef00e3
:1038cc0003003700ba70ef00bb70ef00bc70ef0064
:1038dc00be30ef0010c0b300f6f0b700c070ef00c0
:1038ec00c230ef0010c0b300f7f0b700c470ef00a7
:1038fc00c630ef0010c0b300f8f0b70080a720006e
:10390c00b085880080a72000c08588000080fa0060
:10391c00000006000000fa00c870ef00c970ef004c
:10392c00ca70ef00cb70ef00cc70ef000080fa0093
:10393c00000006001400fa0000579800110f9800c0
:10394c001e0890008000eb00fef30700008fbe0005
:10395c00c8d0bf000080fb008000400060552800ec
:10396c00008040001000780020079800c9d0bf00ec
:10397c000080fb0080004000605528000080400063
:10398c001000780030079800cad0bf000080fb0000
:10399c008000400060552800008040001000780036
:1039ac0040079800ae00900051079800be009000b0
:1039bc0061079800ce00900071079800de0090001f
:1039cc00100020009cff0700ee009000200020005b
:1039dc0099ff0700fe0090003000200096ff0700c2
:1039ec00c8d0bf000040e800c8f0b700810c21002f
:1039fc009140780040c5b30080cf500002003600e3
:103a0c0010c0b300cbf0b700910c210091407800ae
:103a1c0040c5b30080cf50000200360010c0b30088
:103a2c00ccf0b700cbd0bf000004e00003003200a4
:103a3c00c9d0bf000040e800c9f0b700ccd0bf002f
:103a4c000004e00003003200cad0bf000040e800d0
:103a5c00caf0b7000080fa00000006000200fa006d
:103a6c00004f7800f6d0bf000004e0000d003200db
:103a7c00f08580008002b000f0858800f185800020
:103a8c00f0f92000808f50000f00360000fa200063
:103a9c00f085880010c0b300c0f0b700f670ef00de
:103aac0009003700f08580008002b100f0858800a5
:103abc00f08580000000e00003003a00be30ef000b
:103acc0010c0b300f6f0b700f085800080007800dd
:103adc001000200058ff07000080fa0000000600cc
:103aec000200fa00004f7800f7d0bf000004e0009d
:103afc000d003200108680008002b0001086880015
:103b0c0011868000f0f92000808f50000f003600e5
:103b1c0000fa20001086880010c0b300c4f0b70073
:103b2c00f770ef0009003700108680008002b100aa
:103b3c0010868800108680000000e00003003a0028
:103b4c00c230ef0010c0b300f7f0b7001086800051
:103b5c00800078002000200037ff07000080fa006a
:103b6c00000006000200fa00004f7800f8d0bf00f9
:103b7c000004e0000b003200308680008002b000b0
:103b8c003086880031868000f0f92000808f50004c
:103b9c000d00360000fa200030868800f870ef0027
:103bac0009003700308680008002b1003086880022
:103bbc00308680000000e00003003a00c630ef00c1
:103bcc0010c0b300f8f0b700308680008000780099
:103bdc003000200018ff07000080fa0000000600eb
:103bec000000fa00ffff37000000fa00ffff37006b
:103bfc002600fa00881f7800000022000110200027
:103c0c008a0a0700008fbe0050052000a10a200080
:103c1c00120a07001e0078009e0090003e0a070062
:103c2c00404798004e4090000004a2000004e000c1
:103c3c0001003200eaff07003023220011012000ae
:103c4c003007980041079800605625004104200079
:103c5c005007980061079800c0bc2b00a10a2000f7
:103c6c0070079800010f9800f0ef2e00d10d200086
:103c7c00100f9800210f98005e019000ee0190004b
:103c8c003e009000ce0090000202be000001be007b
:103c9c001e0078009e0090002d0a070040479800f7
:103cac004e4090000084fb001e099000ae0990006d
:103cbc007e0090008e08900044002000050020003b
:103ccc003e034200ae834a000202be000001be0069
:103cdc000600be001e0a07000080fb000000640006
:103cec0000f0a7000000ea000000ea004f00de0030
:103cfc00404798004e4090000004a2000004e000f1
:103d0c0001003200b6ff0700d90907001e00780039
:103d1c009e009000f3090700300f9800410f9800a7
:103d2c0022002000030020003e004100ae8049002c
:103d3c00ec090700500f9800610f98004400200018
:103d4c00050020003e004200ae804a00e509070055
:103d5c00700f9800011798006200200003002000eb
:103d6c003e004100ae804900de09070010179800a4
:103d7c00211798003e019000ce0190003e08900063
:103d8c00ce089000800f5100818f590015003a0029
:103d9c005e019000ee0190005e089000ee0890002d
:103dac00800f5100818f59000e003a007e01900067
:103dbc008e0990007e0890008e109000800f5100ac
:103dcc00818f590007003a001e099000ae0990003f
:103ddc001e109000ae109000800f5100818f590082
:103dec000100320080ff07004f0478000080fa00c9
:103dfc00000006000e00fa00000022000110200056
:103e0c000a0a070020079800310798005005200087
:103e1c00a10a2000910907002e009000be0090001e
:103e2c00bd090700004f98000e4890000004a20046
:103e3c000004e0000100320069ff07006000b800d8
:103e4c00008fbe0017003700240020000500200062
:103e5c003e014200ae814a002e009000be00900050
:103e6c003e024000ae8248000400be000202be00ca
:103e7c001e0178009e019000b5090700004f9800c4
:103e8c000e4890000004a2000004e0000100320083
:103e9c0053ff070042002000030020001e0f4100ca
:103eac005e974900f07f2000010020001e01780081
:103ebc009e019000800f5100818f5900e2ff360067
:103ecc006b0907006000b800008fbe0012003700bd
:103edc002e009000be0090003e024000ae824800d2
:103eec000400be007f090700500798006107980086
:103efc005e009000ee009000be0f5000ae8f580098
:103f0c000100320038ff07002200200003002000cf
:103f1c001e0f41005e974900f07f20000100200039
:103f2c001e0178009e019000800f5100818f590076
:103f3c00e7ff36000080fa00000006000000fa00df
:103f4c002bff0700abff07000080fa000000060003
:020000040000fa
:103f5c000000fa0000002300203a88004827ef00f8
:103f6c004e27ef00f0012000303a88006027ef0068
:103f7c006227ef006427ef006627ef006a27ef0047
:103f8c006c27ef001200200080072000a109200000
:103f9c003374200080497800814978008249780088
:103fac001200200060042000710520002374200002
:103fbc00804978008149780082497800000000002f
:103fcc00103a8000610060000000e000fcff3a0045
:103fdc0000000000113a8000000220000080600008
:103fec000000e000fbff32000080fa000000060039
:020000040000fa
:1040000000000000000000000000000000000000b0
:1040100000000000000000000000000000000000a0
:104020000000000000000000000000000000000090
:104030000000000000000000000000000000000080
:020000040000fa
:020000040000fa
:106000000000fa00022cef00042cef00062cef0039
:106010000a2cef001a2cef001e2cef0000282000a5
:10602000006188000028200000628800002820000d
:1060300000638800800a2c00e3c120001132240094
:10604000d2bc2a008209780081097800106188009a
:10605000800a2c00e3c1200011322400d2bc2a00a7
:10606000820978008109780010628800800a2c007b
:10607000e3c1200011322400d2bc2a00820978003a
:10608000810978001063880010002000e3c120001f
:1060900011322400d2bc2a008209780081097800dc
:1060a0002061880090402000e3c1200011322400cc
:1060b000d2bc2a0082097800810978002062880019
:1060c00090c12000e3c1200011322400d2bc2a007c
:1060d0008209780081097800206388001000200080
:1060e000306188001000200030628800100020001d
:1060f0003063880000fa20004061880000fa200028
:106100004062880000fa2000406388002a2cef00db
:106110004a2cef006a2cef002c2cef004c2cef00e7
:106120006c2cef00322cef00522cef00722cef00a1
:10613000342cef00542cef00742cef003a2cef00bd
:106140005a2cef007a2cef003c2cef005c2cef0077
:106150007c2cef003e2cef005e2cef007e2cef003d
:10616000002cef000080fa00000006000000fa009a
:106170000080fa00000006000000fa0031408000b4
:1061800000202000008060000000e00002003200db
:10619000f6ff07000728a9000080fa0000000600ab
:1061a0000000fa000080fa00000006000000fa007b
:1061b0003140800000202000008060000000e000ee
:1061c00002003200f6ff07000bc8a9000080fa00a9
:1061d000000006000000fa000080fa00000006003f
:1061e0000000fa00314080000020200000806000a4
:1061f0000000e00002003200f6ff07000be8a900f3
:106200000080fa00000006000000fa000080fa009a
:10621000000006000000fa0031408000002020004d
:10622000008060000000e00002003200f6ff07007e
:106230000c08a9000080fa00000006000000fa0027
:10624000003a80000080fa00000006000200fa0018
:10625000faff0700000f78001e00780024000700f6
:106260000004e00002003200000028007100070076
:106270001e0078002a0007000004e000020032003f
:10628000000024006b0007001e00780032000700a9
:106290000004e0000200320000202000650007003a
:1062a0001e0078003a0007000004e00002003200ff
:1062b000000820005f0007001e0078004200070071
:1062c0000004e00002003200000420005900070032
:1062d0001e0078004a0007000004e00002003200bf
:1062e00000012000530007000080fa0000000600b3
:1062f0000400fa00100798000040eb00004f7800ff
:106300001e0090000000e00002003d0010c0b3003d
:10631000004f78001e4078000080fa000000060060
:106320000400fa00100798000040eb00004f7800ce
:106330009e00900000002400008060000000e0004b
:106340000200320010c0b300004f78001e407800f9
:106350000080fa00000006000400fa001007980010
:106360000040eb00004f78009e00900000202000cd
:10637000008060000000e0000200320010c0b300a6
:10638000004f78001e4078000080fa0000000600f0
:106390000400fa00100798000040eb00004f78005e
:1063a0009e00900000082000008060000000e000d7
:1063b0000200320010c0b300004f78001e40780089
:1063c0000080fa00000006000400fa0010079800a0
:1063d0000040eb00004f78009e0090000004200079
:1063e000008060000000e0000200320010c0b30036
:1063f000004f78001e4078000080fa000000060080
:106400000400fa00100798000040eb00004f7800ed
:106410001e009000700060000000e00002003200ea
:1064200010c0b300004f78001e4078000080fa00d2
:10643000000006000200fa00000f78009e80ea00cb
:10644000003a800000806000003a88000080fa0076
:10645000000006000000fa004027ef000080fa006c
:046460000000060032
:020000040000fa
:106464000000fe00021521000019780001097800df
:10647400000006000000fe000000eb008000eb00be
:10648400f8ff07002e27ef00000006000000fe00c2
:106494000000fe00801f7800811f7800821f7800b2
:1064a4000115210012468000c3e8a90031007800dc
:1064b40070398800110078007039880029e7a80035
:1064c400000000000000000029e7af00feff3700d5
:1064d40002f0a700c3e8a8004f017800cf007800bd
:1064e4004f007800000006000000fe00a2028000b9
:1064f400a10288009080ba001000ba00a2028800ad
:10650400000006000000fe00a2028000a102880034
:106514001000ba00a2028800000006000000fe007d
:10652400f27f20000001610008003a0032002400dc
:106534004239880050398800613988004c320200a1
:10654400000000001000200029a7af000000200078
:10655400000006000000fe0029e7af00feff370040
:106564000000a700130037000010a7001100370037
:1065740061398800503988001000240040398800af
:10658400a0028000a10f2000a102880001002000c9
:106594008208bb008398bb008408bb008598bb00bd
:1065a4004c32020000000000a0028800100020000d
:1065b40029a7af0000002000000006000000fe0034
:1065c40029e7af00feff37000000a70014003700e2
:1065d4000010a70012003700613988005039880084
:1065e400a10280001000240040398800a00f200080
:1065f400a0028800000020000208bb00f20f200067
:106604000298bb000308bb000298bb004c32020096
:1066140000000000a10288001000200029a7af009c
:106624000000200000000600f27f2000000061004e
:106634000000060002802f0000006100f2ff2f001e
:08664400810061000000060066
:020000040000fa
:10664c000000fa000021ef00106c270010088800f1
:10665c000000280020088800e08780000000e0008f
:10666c0002003a00e0372300240007000068a9006c
:10667c002068a800801521008040eb0001487800bc
:10668c000080fa00000006000200fa00000f7800fb
:10669c009e00780011088800801521008040eb00d6
:1066ac00014878000080fa00000006000000fa00a3
:1066bc00100880000080fa00000006000200fa00ba
:1066cc00000f78009e0078000108880080152100da
:1066dc008040eb00014878000080fa0000000600c2
:1066ec000000fa00000880000080fa00000006009c
:1066fc000000fa000080fa00000006000200fa0018
:10670c00000f78002068a9009e007800e1878800bf
:10671c002068a8000080fa00000006000000fa00c3
:10672c00801521008040eb00014878002068a8000b
:10673c0005e1a8000080fa00000006000000fa0045
:10674c0005e1a9002068a9000080fa0000000600fd
:10675c000200fa0080152100104f78001e407800ce
:10676c000004e00003003200801521008040eb00a3
:10677c00014878001e4078000080fa0000000600f6
:10678c000000fa0090152100104078000080fb00fa
:10679c000080fa00000006000000fa0090152100ad
:1067ac008040eb00014878000080fa0000000600f1
:1067bc000000fa000621ef00f012200060088800ab
:1067cc000000280080088800f08780000000e000ae
:1067dc0002003a00604323002400070000e8a900ef
:1067ec0020e8a800a01521008040eb0001487800ab
:1067fc000080fa00000006000200fa00000f78008a
:10680c009e00780061088800a01521008040eb00f4
:10681c00014878000080fa00000006000000fa0031
:10682c00600880000080fa00000006000200fa00f8
:10683c00000f78009e00780031088800a015210018
:10684c008040eb00014878000080fa000000060050
:10685c000000fa00300880000080fa0000000600fa
:10686c000000fa000080fa00000006000200fa00a6
:10687c00000f780020e8a9009e007800f1878800be
:10688c0020e8a8000080fa00000006000000fa00d2
:10689c00a01521008040eb000148780020e8a800fa
:1068ac0011e1a8000080fa00000006000000fa00c8
:1068bc0011e1a90020e8a9000080fa000000060000
:1068cc000200fa00a0152100104f78001e4078003d
:1068dc000004e00003003200a01521008040eb0012
:1068ec00014878001e4078000080fa000000060085
:1068fc000000fa00b0152100104078000080fb0069
:10690c000080fa00000006000000fa00b01521001b
:10691c008040eb00014878000080fa00000006007f
:10692c000000fa000a21ef00007f2e00700888009a
:10693c000003280090088800108880000000e00008
:10694c0002003a00e04e2300240007000108a900d1
:10695c002108a800c01521008040eb0001487800f8
:10696c000080fa00000006000200fa00000f780018
:10697c009e00780071088800c01521008040eb0053
:10698c00014878000080fa00000006000000fa00c0
:10699c00700880000080fa00000006000200fa0077
:1069ac00000f78009e00780051088800c015210067
:1069bc008040eb00014878000080fa0000000600df
:1069cc000000fa00500880000080fa000000060069
:1069dc000000fa000080fa00000006000200fa0035
:1069ec00000f78002108a9009e007800118888000b
:1069fc002108a8000080fa00000006000000fa0040
:106a0c00c01521008040eb00014878002108a80047
:106a1c0013e1a8000080fa00000006000000fa0054
:106a2c0013e1a9002108a9000080fa00000006006b
:106a3c000200fa00c0152100104f78001e407800ab
:106a4c000004e00003003200c01521008040eb0080
:106a5c00014878001e4078000080fa000000060013
:106a6c000000fa00d0152100104078000080fb00d7
:106a7c000080fa00000006000000fa00d01521008a
:106a8c008040eb00014878000080fa00000006000e
:020000040000fa
:106a9c00501100000400000082000000ffffff0006
:106aac00ff000000301100002000000080000000fa
:106abc00fa1000000200000082000000ffff00003e
:106acc00581100000200000080000000fc100000c3
:106adc0002000000800000005a11000002000000bb
:106aec0080000000fe10000002000000800000008a
:106afc000011000002000000800000005c1100008a
:106b0c0002000000800000000211000002000000e2
:106b1c0080000000041100002c0000008000000028
:106b2c00d010000016000000820000001e000a00b9
:106b3c00001e00002d00100027010a00401f0a0053
:106b4c0000401f000a0040001f0000000010000061
:106b5c00b200000080000000b21000001e00000017
:106b6c0080000000f610000004000000820000000d
:106b7c000101010000000000f01000000600000000
:106b8c008000000054110000040000008000000090
:106b9c00e61000000a000000800000000000000069
:020000040000fa
:106bac000000fa0040002800001988002223ef00a2
:106bbc0090102000201988002823ef002e23ef00ce
:106bcc003023ef003223ef002623ef00405f230039
:106bdc00050007000080fa00000006000000fa0023
:106bec000080fa00000006000200fa00000f780096
:106bfc001e007800008888000080fa000000060063
:106c0c000000fa00014080000000220000806000bb
:106c1c000000e00006003200008880000000e00068
:106c2c0002003200008880000000010001a8a900c9
:106c3c000080fa00000006000200fa00000f780045
:106c4c0021028000200f2000008060001e007000d8
:106c5c00200288000080fa00000006000000fa0004
:106c6c00c3e8a80000000000000000000080fa004b
:106c7c00000006000000fa000c0007003f000700af
:106c8c00b3f40700c6ff070025ff0700d9fc070077
:106c9c00c7fe07006afe0700f0ff07000002200095
:106cac00e5ff07000080fa00000006000000fa0073
:106cbc00042eef00142eef00242eef00f0312000f4
:106ccc00007088003007200080708800700320005e
:106cdc00007188000c2eef001c2eef002c2eef0004
:106cec000a2eef001a2eef002a2eef00062eef00d0
:106cfc00162eef00262eef00300120007070880059
:106d0c0010002000f07088003000200070718800a6
:106d1c000080fa00000006000000fa00200f21009d
:106d2c0080878800606a230074fe07000080fa00e8
:106d3c00000006000000fa000080fa0000000600c7
:106d4c000000fa0090878000a1878000610040005d
:106d5c00e080480090878800a18788000080fa00b6
:106d6c00000006000000fa00808780009000900070
:106d7c00100078000080fa00000006000000fa0005
:106d8c002142800080ff2f00008060000000a000e6
:106d9c002042880011428000f0ff28000080600033
:106dac0000c0a0001042880001428000f0ff2800c3
:106dbc000080600000c0a000004288000080fa0043
:106dcc00000006000200fa00000f78009e00780018
:106ddc00d1878800ffff37000000fa000013210064
:106dec008007780080142100000188000080fa00e0
:106dfc00000006000000fa009eff07001cea0700d6
:086e0c0046ec0700feff370011
:020000040000fa
:020000040002f8
:04afe000ceff0000a0
:020000040000fa
:020000040002f8
:04afe400ffff00006b
:020000040000fa
:020000040002f8
:04afe8007fff0000e7
:020000040000fa
:020000040002f8
:04afec007bff0000e7
:020000040000fa
:020000040002f8
:04aff00078ff0000e6
:020000040000fa
:020000040002f8
:04aff400ffffff005c
:00000001FF
